{
	"data": {
		"bytecode": {
			"linkReferences": {},
			"object": "60a06040523073ffffffffffffffffffffffffffffffffffffffff1660809073ffffffffffffffffffffffffffffffffffffffff1660601b8152503480156200004757600080fd5b50600060019054906101000a900460ff16806200006f575060008054906101000a900460ff16155b620000b1576040517f08c379a0000000000000000000000000000000000000000000000000000000008152600401620000a89062000152565b60405180910390fd5b60008060019054906101000a900460ff16159050801562000102576001600060016101000a81548160ff02191690831515021790555060016000806101000a81548160ff0219169083151502179055505b8015620001245760008060016101000a81548160ff0219169083151502179055505b50620001d4565b60006200013a602e8362000174565b9150620001478262000185565b604082019050919050565b600060208201905081810360008301526200016d816200012b565b9050919050565b600082825260208201905092915050565b7f496e697469616c697a61626c653a20636f6e747261637420697320616c72656160008201527f647920696e697469616c697a6564000000000000000000000000000000000000602082015250565b60805160601c616b376200020860003960008181610ba401528181610c330152818161122701526112b60152616b376000f3fe6080604052600436106101815760003560e01c8063a8dd7ce8116100d1578063d3d65ddb1161008a578063ed5cad6411610064578063ed5cad6414610543578063f2fde38b14610580578063faf3c53f146105a9578063fbcbc0f1146105d257610181565b8063d3d65ddb146104c6578063e1576897146104f1578063e3f00c3a1461051a57610181565b8063a8dd7ce8146103bc578063b50f1a5e146103e5578063b9b89dca14610422578063bac7ad521461044b578063bea24f2014610474578063cf149c6d1461049d57610181565b80634f1ef2861161013e5780638129fc1c116101185780638129fc1c146103145780638da5cb5b1461032b57806395c2a8d914610356578063a6ff8f0c1461039357610181565b80634f1ef286146102b857806359dac585146102d4578063715018a6146102fd57610181565b806301843caa1461018657806305e847fb146101c35780633659cfe6146101ec5780633a723d17146102155780634020895014610252578063470cf0e01461027b575b600080fd5b34801561019257600080fd5b506101ad60048036038101906101a89190614a33565b610615565b6040516101ba91906157e2565b60405180910390f35b3480156101cf57600080fd5b506101ea60048036038101906101e59190614a73565b610980565b005b3480156101f857600080fd5b50610213600480360381019061020e9190614a06565b610ba2565b005b34801561022157600080fd5b5061023c60048036038101906102379190614a33565b610d2b565b60405161024991906157e2565b60405180910390f35b34801561025e57600080fd5b5061027960048036038101906102749190614df5565b610fc2565b005b34801561028757600080fd5b506102a2600480360381019061029d9190614ac6565b611121565b6040516102af91906157e2565b60405180910390f35b6102d260048036038101906102cd9190614b19565b611225565b005b3480156102e057600080fd5b506102fb60048036038101906102f69190614f15565b611362565b005b34801561030957600080fd5b50610312611443565b005b34801561032057600080fd5b506103296114cb565b005b34801561033757600080fd5b506103406115b4565b60405161034d9190615738565b60405180910390f35b34801561036257600080fd5b5061037d60048036038101906103789190614a06565b6115de565b60405161038a91906157e2565b60405180910390f35b34801561039f57600080fd5b506103ba60048036038101906103b59190614f82565b61160c565b005b3480156103c857600080fd5b506103e360048036038101906103de9190614f15565b611846565b005b3480156103f157600080fd5b5061040c60048036038101906104079190614f42565b611910565b604051610419919061579e565b60405180910390f35b34801561042e57600080fd5b5061044960048036038101906104449190614ecc565b611a17565b005b34801561045757600080fd5b50610472600480360381019061046d9190614bb5565b611b49565b005b34801561048057600080fd5b5061049b60048036038101906104969190614c08565b612035565b005b3480156104a957600080fd5b506104c460048036038101906104bf9190614d4e565b6120e6565b005b3480156104d257600080fd5b506104db61227e565b6040516104e891906157e2565b60405180910390f35b3480156104fd57600080fd5b5061051860048036038101906105139190614c08565b612295565b005b34801561052657600080fd5b50610541600480360381019061053c9190614c93565b6123dc565b005b34801561054f57600080fd5b5061056a60048036038101906105659190614b75565b612459565b60405161057791906157e2565b60405180910390f35b34801561058c57600080fd5b506105a760048036038101906105a29190614a06565b6124b7565b005b3480156105b557600080fd5b506105d060048036038101906105cb9190614f82565b6125af565b005b3480156105de57600080fd5b506105f960048036038101906105f49190614a06565b612afa565b60405161060c9796959493929190615848565b60405180910390f35b60008061062184612e8a565b905061063081602001516131e5565b6106398161322d565b600061064484612e8a565b905061065381602001516131e5565b61065c8161322d565b600160028111156106705761066f6160da565b5b82604001516002811115610687576106866160da565b5b1480156106bc5750600160028111156106a3576106a26160da565b5b816040015160028111156106ba576106b96160da565b5b145b1561073d576106dc8160600151836060015161328190919063ffffffff16565b8015610734575060cc82600001516040516106f79190615721565b908152602001604051809103902081600001516040516107179190615721565b908152602001604051809103902060009054906101000a900460ff165b9250505061097a565b60016002811115610751576107506160da565b5b82604001516002811115610768576107676160da565b5b14801561079c5750600280811115610783576107826160da565b5b8160400151600281111561079a576107996160da565b5b145b156107fa5760cc82600001516040516107b59190615721565b908152602001604051809103902081606001516040516107d59190615721565b908152602001604051809103902060009054906101000a900460ff169250505061097a565b60028081111561080d5761080c6160da565b5b82604001516002811115610824576108236160da565b5b1480156108595750600160028111156108405761083f6160da565b5b81604001516002811115610857576108566160da565b5b145b156108b75760cc82606001516040516108729190615721565b908152602001604051809103902081600001516040516108929190615721565b908152602001604051809103902060009054906101000a900460ff169250505061097a565b6002808111156108ca576108c96160da565b5b826040015160028111156108e1576108e06160da565b5b14801561091557506002808111156108fc576108fb6160da565b5b81604001516002811115610913576109126160da565b5b145b156109735760cc826060015160405161092e9190615721565b9081526020016040518091039020816060015160405161094e9190615721565b908152602001604051809103902060009054906101000a900460ff169250505061097a565b6000925050505b92915050565b61098a6000613365565b610993836133b8565b61099c826133b8565b60006109a784612e8a565b90506109b681602001516131e5565b6109bf8161322d565b60006109ca84612e8a565b90506109d981602001516131e5565b6109e28161322d565b600160028111156109f6576109f56160da565b5b82604001516002811115610a0d57610a0c6160da565b5b148015610a42575060016002811115610a2957610a286160da565b5b81604001516002811115610a4057610a3f6160da565b5b145b610a81576040517f08c379a0000000000000000000000000000000000000000000000000000000008152600401610a7890615b13565b60405180910390fd5b610a9c8160000151836000015161328190919063ffffffff16565b15610adc576040517f08c379a0000000000000000000000000000000000000000000000000000000008152600401610ad3906159b3565b60405180910390fd5b8260cc8360000151604051610af19190615721565b90815260200160405180910390208260000151604051610b119190615721565b908152602001604051809103902060006101000a81548160ff0219169083151502179055508373ffffffffffffffffffffffffffffffffffffffff168573ffffffffffffffffffffffffffffffffffffffff167f944da3aaddcf895695572377f73f4b10c3822d1ea336c5d59f364f3e5e1b121885604051610b9391906157e2565b60405180910390a35050505050565b7f000000000000000000000000000000000000000000000000000000000000000073ffffffffffffffffffffffffffffffffffffffff163073ffffffffffffffffffffffffffffffffffffffff161415610c31576040517f08c379a0000000000000000000000000000000000000000000000000000000008152600401610c28906159d3565b60405180910390fd5b7f000000000000000000000000000000000000000000000000000000000000000073ffffffffffffffffffffffffffffffffffffffff16610c7061342b565b73ffffffffffffffffffffffffffffffffffffffff1614610cc6576040517f08c379a0000000000000000000000000000000000000000000000000000000008152600401610cbd90615a93565b60405180910390fd5b610ccf81613482565b610d2881600067ffffffffffffffff811115610cee57610ced616167565b5b6040519080825280601f01601f191660200182016040528015610d205781602001600182028036833780820191505090505b506000613501565b50565b600080610d3784612e8a565b9050610d4681602001516131e5565b610d4f8161322d565b6000610d5a84612e8a565b9050610d6981602001516131e5565b610d728161322d565b60016002811115610d8657610d856160da565b5b82604001516002811115610d9d57610d9c6160da565b5b148015610dd2575060016002811115610db957610db86160da565b5b81604001516002811115610dd057610dcf6160da565b5b145b15610e1e57610df28160600151836060015161328190919063ffffffff16565b8015610e155750610e148160000151836000015161328190919063ffffffff16565b5b92505050610fbc565b60016002811115610e3257610e316160da565b5b82604001516002811115610e4957610e486160da565b5b148015610e7d5750600280811115610e6457610e636160da565b5b81604001516002811115610e7b57610e7a6160da565b5b145b15610ea657610e9d8160600151836000015161328190919063ffffffff16565b92505050610fbc565b600280811115610eb957610eb86160da565b5b82604001516002811115610ed057610ecf6160da565b5b148015610f05575060016002811115610eec57610eeb6160da565b5b81604001516002811115610f0357610f026160da565b5b145b15610f2e57610f258260600151826000015161328190919063ffffffff16565b92505050610fbc565b600280811115610f4157610f406160da565b5b82604001516002811115610f5857610f576160da565b5b148015610f8c5750600280811115610f7357610f726160da565b5b81604001516002811115610f8a57610f896160da565b5b145b15610fb557610fac8160600151836060015161328190919063ffffffff16565b92505050610fbc565b6000925050505b92915050565b610fca6136d2565b610fd46000613365565b82518451148015610fe6575081518351145b8015610ff3575080518251145b611032576040517f08c379a000000000000000000000000000000000000000000000000000000000815260040161102990615a13565b60405180910390fd5b60005b84518110156110c5576110b285828151811061105457611053616138565b5b602002602001015185838151811061106f5761106e616138565b5b602002602001015185848151811061108a57611089616138565b5b60200260200101518585815181106110a5576110a4616138565b5b6020026020010151613723565b80806110bd90616062565b915050611035565b506110ce613866565b73ffffffffffffffffffffffffffffffffffffffff167f697b1ca999dc9fa10f6b5121c3681b6e562901370eebdabe6a41f253731ee2b985604051611113919061577c565b60405180910390a250505050565b60008061112d85612e8a565b905061113c81602001516131e5565b6111458161322d565b61114e846133b8565b6111578361386e565b60006111678260400151866138f6565b9050600060ca600084604001516002811115611186576111856160da565b5b6002811115611198576111976160da565b5b815260200190815260200160002082815481106111b8576111b7616138565b5b90600052602060002090600302016002016000867bffffffffffffffffffffffffffffffffffffffffffffffffffffffff19167bffffffffffffffffffffffffffffffffffffffffffffffffffffffff191681526020019081526020016000205411925050509392505050565b7f000000000000000000000000000000000000000000000000000000000000000073ffffffffffffffffffffffffffffffffffffffff163073ffffffffffffffffffffffffffffffffffffffff1614156112b4576040517f08c379a00000000000000000000000000000000000000000000000000000000081526004016112ab906159d3565b60405180910390fd5b7f000000000000000000000000000000000000000000000000000000000000000073ffffffffffffffffffffffffffffffffffffffff166112f361342b565b73ffffffffffffffffffffffffffffffffffffffff1614611349576040517f08c379a000000000000000000000000000000000000000000000000000000000815260040161134090615a93565b60405180910390fd5b61135282613482565b61135e82826001613501565b5050565b61136c6000613365565b60ce60019054906101000a900460ff16151581151514156113c2576040517f08c379a00000000000000000000000000000000000000000000000000000000081526004016113b990615913565b60405180910390fd5b8060ce60016101000a81548160ff0219169083151502179055506113e4613866565b73ffffffffffffffffffffffffffffffffffffffff167f7d50bb020f29cc2d35f133362054f432834ddc2cfc3f6dc0f9e9dea5bf8ffe6b60ce60019054906101000a900460ff1660405161143891906157e2565b60405180910390a250565b61144b613866565b73ffffffffffffffffffffffffffffffffffffffff166114696115b4565b73ffffffffffffffffffffffffffffffffffffffff16146114bf576040517f08c379a00000000000000000000000000000000000000000000000000000000081526004016114b690615bb3565b60405180910390fd5b6114c960006139c9565b565b600060019054906101000a900460ff16806114f1575060008054906101000a900460ff16155b611530576040517f08c379a000000000000000000000000000000000000000000000000000000000815260040161152790615b53565b60405180910390fd5b60008060019054906101000a900460ff161590508015611580576001600060016101000a81548160ff02191690831515021790555060016000806101000a81548160ff0219169083151502179055505b611588613a8f565b611590613b78565b80156115b15760008060016101000a81548160ff0219169083151502179055505b50565b6000603360009054906101000a900473ffffffffffffffffffffffffffffffffffffffff16905090565b6000806115ea83612e8a565b90506115f981602001516131e5565b6116028161322d565b6001915050919050565b6116166000613365565b61161f826133b8565b6116288161386e565b600060ca6000856002811115611641576116406160da565b5b6002811115611653576116526160da565b5b815260200190815260200160002061166b85856138f6565b8154811061167c5761167b616138565b5b906000526020600020906003020190506000816002016000847bffffffffffffffffffffffffffffffffffffffffffffffffffffffff19167bffffffffffffffffffffffffffffffffffffffffffffffffffffffff1916815260200190815260200160002054905060008111611727576040517f08c379a000000000000000000000000000000000000000000000000000000000815260040161171e90615af3565b60405180910390fd5b600060e01b8260010160018361173d9190615ecb565b8154811061174e5761174d616138565b5b90600052602060002090600891828204019190066004026101000a81548163ffffffff021916908360e01c0217905550816002016000847bffffffffffffffffffffffffffffffffffffffffffffffffffffffff19167bffffffffffffffffffffffffffffffffffffffffffffffffffffffff19168152602001908152602001600020600090558460028111156117e8576117e76160da565b5b6117f0613866565b73ffffffffffffffffffffffffffffffffffffffff167ffd7321e06212c7e20cb40ffe695d160cb669329e947bbcab975e41e9851534178686604051611837929190615753565b60405180910390a35050505050565b6118506000613365565b61185861227e565b1515811515141561189e576040517f08c379a000000000000000000000000000000000000000000000000000000000815260040161189590615913565b60405180910390fd5b8060ce60006101000a81548160ff0219169083151502179055506118c0613866565b73ffffffffffffffffffffffffffffffffffffffff167f548b8e30af324db539fea4a4816919b2d27ab094df8638f0e3c16c7271d798608260405161190591906157e2565b60405180910390a250565b606061191b826133b8565b60ca6000846002811115611932576119316160da565b5b6002811115611944576119436160da565b5b815260200190815260200160002061195c84846138f6565b8154811061196d5761196c616138565b5b9060005260206000209060030201600101805480602002602001604051908101604052809291908181526020018280548015611a0a57602002820191906000526020600020906000905b82829054906101000a900460e01b7bffffffffffffffffffffffffffffffffffffffffffffffffffffffff1916815260200190600401906020826003010492830192600103820291508084116119b75790505b5050505050905092915050565b611a216000613365565b60005b8151811015611af0576000828281518110611a4257611a41616138565b5b6020026020010151511415611a8c576040517f08c379a0000000000000000000000000000000000000000000000000000000008152600401611a8390615ab3565b60405180910390fd5b600160cd838381518110611aa357611aa2616138565b5b6020026020010151604051611ab89190615721565b908152602001604051809103902060006101000a81548160ff0219169083151502179055508080611ae890616062565b915050611a24565b50611af9613866565b73ffffffffffffffffffffffffffffffffffffffff167f199521935c6599c790890fbd51923a1d92fb29f6691b18e985938fab4070e8ec82604051611b3e91906157c0565b60405180910390a250565b600080611b5585613c61565b91509150611b628161322d565b611b6c8282613d31565b80611b9f575060006002811115611b8657611b856160da565b5b81604001516002811115611b9d57611b9c6160da565b5b145b611bde576040517f08c379a0000000000000000000000000000000000000000000000000000000008152600401611bd590615c73565b60405180910390fd5b600280811115611bf157611bf06160da565b5b81604001516002811115611c0857611c076160da565b5b1415611c49576040517f08c379a0000000000000000000000000000000000000000000000000000000008152600401611c4090615cd3565b60405180910390fd5b60006002811115611c5d57611c5c6160da565b5b81604001516002811115611c7457611c736160da565b5b1415611dc1578215611d2057836001811115611c9357611c926160da565b5b82608001516001811115611caa57611ca96160da565b5b1415611ceb576040517f08c379a0000000000000000000000000000000000000000000000000000000008152600401611ce290615933565b60405180910390fd5b8382608001906001811115611d0357611d026160da565b5b90816001811115611d1757611d166160da565b5b81525050611dbc565b836001811115611d3357611d326160da565b5b8260a001516001811115611d4a57611d496160da565b5b1415611d8b576040517f08c379a0000000000000000000000000000000000000000000000000000000008152600401611d82906159f3565b60405180910390fd5b838260a001906001811115611da357611da26160da565b5b90816001811115611db757611db66160da565b5b815250505b611e8f565b60016002811115611dd557611dd46160da565b5b81604001516002811115611dec57611deb6160da565b5b1415611e8e57836001811115611e0557611e046160da565b5b82608001516001811115611e1c57611e1b6160da565b5b1415611e5d576040517f08c379a0000000000000000000000000000000000000000000000000000000008152600401611e5490615933565b60405180910390fd5b8382608001906001811115611e7557611e746160da565b5b90816001811115611e8957611e886160da565b5b815250505b5b8160c960008773ffffffffffffffffffffffffffffffffffffffff1673ffffffffffffffffffffffffffffffffffffffff1681526020019081526020016000206000820151816000019080519060200190611eeb92919061464d565b506020820151816001019080519060200190611f0892919061464d565b5060408201518160020160006101000a81548160ff02191690836002811115611f3457611f336160da565b5b02179055506060820151816003019080519060200190611f5592919061464d565b5060808201518160040160006101000a81548160ff02191690836001811115611f8157611f806160da565b5b021790555060a08201518160040160016101000a81548160ff02191690836001811115611fb157611fb06160da565b5b021790555060c0820151816005019080519060200190611fd292919061464d565b509050508473ffffffffffffffffffffffffffffffffffffffff167f3a99d1f905eb66fd0850dd6e2156668b6ae1f16f41cd49dd7c6d4fb5147f784f83608001518460a001516040516120269291906157fd565b60405180910390a25050505050565b61203f6001613365565b612047613d56565b61205082613d9f565b61205983613de7565b600061206b612066613866565b612e8a565b905061207f84838360000151866002613e3a565b8373ffffffffffffffffffffffffffffffffffffffff1661209e613866565b73ffffffffffffffffffffffffffffffffffffffff167fd246aa772c5574778b374ed1202c22bac9c87a04fd3624439c2642fa6ca6217160405160405180910390a350505050565b6120f06001613365565b81518351148015612102575080518251145b612141576040517f08c379a000000000000000000000000000000000000000000000000000000000815260040161213890615a13565b60405180910390fd5b600061215361214e613866565b612e8a565b905060005b845181101561222257612169613d56565b61218c84828151811061217f5761217e616138565b5b6020026020010151613d9f565b6121af8582815181106121a2576121a1616138565b5b6020026020010151613de7565b61220f8582815181106121c5576121c4616138565b5b60200260200101518483815181106121e0576121df616138565b5b60200260200101518460000151878581518110612200576121ff616138565b5b60200260200101516002613e3a565b808061221a90616062565b915050612158565b5061222b613866565b73ffffffffffffffffffffffffffffffffffffffff167f697b1ca999dc9fa10f6b5121c3681b6e562901370eebdabe6a41f253731ee2b985604051612270919061577c565b60405180910390a250505050565b600060ce60009054906101000a900460ff16905090565b61229d613866565b73ffffffffffffffffffffffffffffffffffffffff166122bb6115b4565b73ffffffffffffffffffffffffffffffffffffffff1614612311576040517f08c379a000000000000000000000000000000000000000000000000000000000815260040161230890615bb3565b60405180910390fd5b600081511415612356576040517f08c379a000000000000000000000000000000000000000000000000000000000815260040161234d90615bd3565b60405180910390fd5b61235f82613d9f565b61236883613de7565b612376838283856000613e3a565b8273ffffffffffffffffffffffffffffffffffffffff16612395613866565b73ffffffffffffffffffffffffffffffffffffffff167fd246aa772c5574778b374ed1202c22bac9c87a04fd3624439c2642fa6ca6217160405160405180910390a3505050565b6123e66000613365565b6123f284848484613723565b8373ffffffffffffffffffffffffffffffffffffffff16612411613866565b73ffffffffffffffffffffffffffffffffffffffff167fd246aa772c5574778b374ed1202c22bac9c87a04fd3624439c2642fa6ca6217160405160405180910390a350505050565b60008061246584612e8a565b905061247481602001516131e5565b61247d8161322d565b8260028111156124905761248f6160da565b5b60ff16816040015160028111156124aa576124a96160da565b5b60ff161491505092915050565b6124bf613866565b73ffffffffffffffffffffffffffffffffffffffff166124dd6115b4565b73ffffffffffffffffffffffffffffffffffffffff1614612533576040517f08c379a000000000000000000000000000000000000000000000000000000000815260040161252a90615bb3565b60405180910390fd5b600073ffffffffffffffffffffffffffffffffffffffff168173ffffffffffffffffffffffffffffffffffffffff1614156125a3576040517f08c379a000000000000000000000000000000000000000000000000000000000815260040161259a90615973565b60405180910390fd5b6125ac816139c9565b50565b6125b96000613365565b6125c2826133b8565b6125cb8161386e565b60008060cb60008660028111156125e5576125e46160da565b5b60028111156125f7576125f66160da565b5b815260200190815260200160002060008573ffffffffffffffffffffffffffffffffffffffff1673ffffffffffffffffffffffffffffffffffffffff16815260200190815260200160002054905060008114156128e157600060ca6000876002811115612667576126666160da565b5b6002811115612679576126786160da565b5b815260200190815260200160002080549050905060ca60008760028111156126a4576126a36160da565b5b60028111156126b6576126b56160da565b5b81526020019081526020016000206001816001815401808255809150500390600052602060002090505060ca60008760028111156126f7576126f66160da565b5b6002811115612709576127086160da565b5b8152602001908152602001600020818154811061272957612728616138565b5b9060005260206000209060030201925060ca60008760028111156127505761274f6160da565b5b6002811115612762576127616160da565b5b81526020019081526020016000208054905060cb600088600281111561278b5761278a6160da565b5b600281111561279d5761279c6160da565b5b815260200190815260200160002060008773ffffffffffffffffffffffffffffffffffffffff1673ffffffffffffffffffffffffffffffffffffffff16815260200190815260200160002081905550848360000160006101000a81548173ffffffffffffffffffffffffffffffffffffffff021916908373ffffffffffffffffffffffffffffffffffffffff160217905550826001018490806001815401808255809150506001900390600052602060002090600891828204019190066004029091909190916101000a81548163ffffffff021916908360e01c02179055508260010180549050836002016000867bffffffffffffffffffffffffffffffffffffffffffffffffffffffff19167bffffffffffffffffffffffffffffffffffffffffffffffffffffffff191681526020019081526020016000208190555050612a89565b60ca60008660028111156128f8576128f76160da565b5b600281111561290a576129096160da565b5b81526020019081526020016000206001826129259190615ecb565b8154811061293657612935616138565b5b906000526020600020906003020191506000826002016000857bffffffffffffffffffffffffffffffffffffffffffffffffffffffff19167bffffffffffffffffffffffffffffffffffffffffffffffffffffffff1916815260200190815260200160002054146129dc576040517f08c379a00000000000000000000000000000000000000000000000000000000081526004016129d390615c93565b60405180910390fd5b816001018390806001815401808255809150506001900390600052602060002090600891828204019190066004029091909190916101000a81548163ffffffff021916908360e01c02179055508160010180549050826002016000857bffffffffffffffffffffffffffffffffffffffffffffffffffffffff19167bffffffffffffffffffffffffffffffffffffffffffffffffffffffff19168152602001908152602001600020819055505b846002811115612a9c57612a9b6160da565b5b612aa4613866565b73ffffffffffffffffffffffffffffffffffffffff167fd2925d5c000f95a189be5c6c90c0dc14f33c077900241eb3e7c0a287d914e6508686604051612aeb929190615753565b60405180910390a35050505050565b606080600060606000806060600060c960008a73ffffffffffffffffffffffffffffffffffffffff1673ffffffffffffffffffffffffffffffffffffffff1681526020019081526020016000206040518060e0016040529081600082018054612b6290615fff565b80601f0160208091040260200160405190810160405280929190818152602001828054612b8e90615fff565b8015612bdb5780601f10612bb057610100808354040283529160200191612bdb565b820191906000526020600020905b815481529060010190602001808311612bbe57829003601f168201915b50505050508152602001600182018054612bf490615fff565b80601f0160208091040260200160405190810160405280929190818152602001828054612c2090615fff565b8015612c6d5780601f10612c4257610100808354040283529160200191612c6d565b820191906000526020600020905b815481529060010190602001808311612c5057829003601f168201915b505050505081526020016002820160009054906101000a900460ff166002811115612c9b57612c9a6160da565b5b6002811115612cad57612cac6160da565b5b8152602001600382018054612cc190615fff565b80601f0160208091040260200160405190810160405280929190818152602001828054612ced90615fff565b8015612d3a5780601f10612d0f57610100808354040283529160200191612d3a565b820191906000526020600020905b815481529060010190602001808311612d1d57829003601f168201915b505050505081526020016004820160009054906101000a900460ff166001811115612d6857612d676160da565b5b6001811115612d7a57612d796160da565b5b81526020016004820160019054906101000a900460ff166001811115612da357612da26160da565b5b6001811115612db557612db46160da565b5b8152602001600582018054612dc990615fff565b80601f0160208091040260200160405190810160405280929190818152602001828054612df590615fff565b8015612e425780601f10612e1757610100808354040283529160200191612e42565b820191906000526020600020905b815481529060010190602001808311612e2557829003601f168201915b5050505050815250509050806000015181602001518260400151836060015184608001518560a001518660c00151975097509750975097509750975050919395979092949650565b612e926146d3565b612e9b826133b8565b60c960008373ffffffffffffffffffffffffffffffffffffffff1673ffffffffffffffffffffffffffffffffffffffff1681526020019081526020016000206040518060e0016040529081600082018054612ef590615fff565b80601f0160208091040260200160405190810160405280929190818152602001828054612f2190615fff565b8015612f6e5780601f10612f4357610100808354040283529160200191612f6e565b820191906000526020600020905b815481529060010190602001808311612f5157829003601f168201915b50505050508152602001600182018054612f8790615fff565b80601f0160208091040260200160405190810160405280929190818152602001828054612fb390615fff565b80156130005780601f10612fd557610100808354040283529160200191613000565b820191906000526020600020905b815481529060010190602001808311612fe357829003601f168201915b505050505081526020016002820160009054906101000a900460ff16600281111561302e5761302d6160da565b5b60028111156130405761303f6160da565b5b815260200160038201805461305490615fff565b80601f016020809104026020016040519081016040528092919081815260200182805461308090615fff565b80156130cd5780601f106130a2576101008083540402835291602001916130cd565b820191906000526020600020905b8154815290600101906020018083116130b057829003601f168201915b505050505081526020016004820160009054906101000a900460ff1660018111156130fb576130fa6160da565b5b600181111561310d5761310c6160da565b5b81526020016004820160019054906101000a900460ff166001811115613136576131356160da565b5b6001811115613148576131476160da565b5b815260200160058201805461315c90615fff565b80601f016020809104026020016040519081016040528092919081815260200182805461318890615fff565b80156131d55780601f106131aa576101008083540402835291602001916131d5565b820191906000526020600020905b8154815290600101906020018083116131b857829003601f168201915b5050505050815250509050919050565b60008151141561322a576040517f08c379a000000000000000000000000000000000000000000000000000000000815260040161322190615a73565b60405180910390fd5b50565b61323f8160a001518260800151613fff565b61327e576040517f08c379a000000000000000000000000000000000000000000000000000000000815260040161327590615b73565b60405180910390fd5b50565b600080839050600083905080518251146132a05760009250505061335f565b60008251905060005b81811015613356578281815181106132c4576132c3616138565b5b602001015160f81c60f81b7effffffffffffffffffffffffffffffffffffffffffffffffffffffffffffff191684828151811061330457613303616138565b5b602001015160f81c60f81b7effffffffffffffffffffffffffffffffffffffffffffffffffffffffffffff19161461334357600094505050505061335f565b808061334e90616062565b9150506132a9565b50600193505050505b92915050565b613376613370613866565b82612459565b6133b5576040517f08c379a00000000000000000000000000000000000000000000000000000000081526004016133ac90615c33565b60405180910390fd5b50565b600073ffffffffffffffffffffffffffffffffffffffff168173ffffffffffffffffffffffffffffffffffffffff161415613428576040517f08c379a000000000000000000000000000000000000000000000000000000000815260040161341f90615c53565b60405180910390fd5b50565b60006134597f360894a13ba1a3210667c828492db98dca3e2076cc3735a920a3ca505d382bbc60001b61405f565b60000160009054906101000a900473ffffffffffffffffffffffffffffffffffffffff16905090565b61348a613866565b73ffffffffffffffffffffffffffffffffffffffff166134a86115b4565b73ffffffffffffffffffffffffffffffffffffffff16146134fe576040517f08c379a00000000000000000000000000000000000000000000000000000000081526004016134f590615bb3565b60405180910390fd5b50565b600061350b61342b565b905061351684614069565b6000835111806135235750815b15613534576135328484614122565b505b60006135627f4910fdfa16fed3260ed0e7147f7cc6da11a60208b5b9406d12a635614ffd914360001b614206565b90508060000160009054906101000a900460ff166136cb5760018160000160006101000a81548160ff02191690831515021790555061362e85836040516024016135ac9190615738565b6040516020818303038152906040527f3659cfe6000000000000000000000000000000000000000000000000000000007bffffffffffffffffffffffffffffffffffffffffffffffffffffffff19166020820180517bffffffffffffffffffffffffffffffffffffffffffffffffffffffff8381831617835250505050614122565b5060008160000160006101000a81548160ff02191690831515021790555061365461342b565b73ffffffffffffffffffffffffffffffffffffffff168273ffffffffffffffffffffffffffffffffffffffff16146136c1576040517f08c379a00000000000000000000000000000000000000000000000000000000081526004016136b890615953565b60405180910390fd5b6136ca85614210565b5b5050505050565b60ce60019054906101000a900460ff16613721576040517f08c379a000000000000000000000000000000000000000000000000000000000815260040161371890615c13565b60405180910390fd5b565b61372c83613d9f565b61373584613de7565b6000600290506000825114156137e65760008351141561378a576040517f08c379a0000000000000000000000000000000000000000000000000000000008152600401613781906158d3565b60405180910390fd5b600061379c613797613866565b612e8a565b90508060000151925060019150600160cd856040516137bb9190615721565b908152602001604051809103902060006101000a81548160ff02191690831515021790555050613852565b60cd826040516137f69190615721565b908152602001604051809103902060009054906101000a900460ff16613851576040517f08c379a000000000000000000000000000000000000000000000000000000000815260040161384890615b33565b60405180910390fd5b5b61385f8584848785613e3a565b5050505050565b600033905090565b600060e01b7bffffffffffffffffffffffffffffffffffffffffffffffffffffffff1916817bffffffffffffffffffffffffffffffffffffffffffffffffffffffff191614156138f3576040517f08c379a00000000000000000000000000000000000000000000000000000000081526004016138ea90615a53565b60405180910390fd5b50565b60008060cb60008560028111156139105761390f6160da565b5b6002811115613922576139216160da565b5b815260200190815260200160002060008473ffffffffffffffffffffffffffffffffffffffff1673ffffffffffffffffffffffffffffffffffffffff168152602001908152602001600020549050600081116139b3576040517f08c379a00000000000000000000000000000000000000000000000000000000081526004016139aa90615cb3565b60405180910390fd5b6001816139c09190615ecb565b91505092915050565b6000603360009054906101000a900473ffffffffffffffffffffffffffffffffffffffff16905081603360006101000a81548173ffffffffffffffffffffffffffffffffffffffff021916908373ffffffffffffffffffffffffffffffffffffffff1602179055508173ffffffffffffffffffffffffffffffffffffffff168173ffffffffffffffffffffffffffffffffffffffff167f8be0079c531659141344cd1fd0a4f28419497f9722a3daafe3b4186f6b6457e060405160405180910390a35050565b600060019054906101000a900460ff1680613ab5575060008054906101000a900460ff16155b613af4576040517f08c379a0000000000000000000000000000000000000000000000000000000008152600401613aeb90615b53565b60405180910390fd5b60008060019054906101000a900460ff161590508015613b44576001600060016101000a81548160ff02191690831515021790555060016000806101000a81548160ff0219169083151502179055505b613b4c61425f565b613b54614338565b8015613b755760008060016101000a81548160ff0219169083151502179055505b50565b600060019054906101000a900460ff1680613b9e575060008054906101000a900460ff16155b613bdd576040517f08c379a0000000000000000000000000000000000000000000000000000000008152600401613bd490615b53565b60405180910390fd5b60008060019054906101000a900460ff161590508015613c2d576001600060016101000a81548160ff02191690831515021790555060016000806101000a81548160ff0219169083151502179055505b613c35614421565b613c3d6144fa565b8015613c5e5760008060016101000a81548160ff0219169083151502179055505b50565b613c696146d3565b613c716146d3565b6000613c7c84612e8a565b905060008160200151511415613cc7576040517f08c379a0000000000000000000000000000000000000000000000000000000008152600401613cbe90615a73565b60405180910390fd5b6000613cd9613cd4613866565b612e8a565b905060008160200151511415613d24576040517f08c379a0000000000000000000000000000000000000000000000000000000008152600401613d1b90615ad3565b60405180910390fd5b8181935093505050915091565b6000613d4e8260000151846060015161328190919063ffffffff16565b905092915050565b613d5e61227e565b613d9d576040517f08c379a0000000000000000000000000000000000000000000000000000000008152600401613d9490615a33565b60405180910390fd5b565b600081511415613de4576040517f08c379a0000000000000000000000000000000000000000000000000000000008152600401613ddb906158f3565b60405180910390fd5b50565b6000613df282612e8a565b602001515114613e37576040517f08c379a0000000000000000000000000000000000000000000000000000000008152600401613e2e90615993565b60405180910390fd5b50565b6040518060e00160405280858152602001838152602001826002811115613e6457613e636160da565b5b8152602001848152602001600180811115613e8257613e816160da565b5b8152602001600180811115613e9a57613e996160da565b5b81526020016040518060200160405280600081525081525060c960008773ffffffffffffffffffffffffffffffffffffffff1673ffffffffffffffffffffffffffffffffffffffff1681526020019081526020016000206000820151816000019080519060200190613f0d92919061464d565b506020820151816001019080519060200190613f2a92919061464d565b5060408201518160020160006101000a81548160ff02191690836002811115613f5657613f556160da565b5b02179055506060820151816003019080519060200190613f7792919061464d565b5060808201518160040160006101000a81548160ff02191690836001811115613fa357613fa26160da565b5b021790555060a08201518160040160016101000a81548160ff02191690836001811115613fd357613fd26160da565b5b021790555060c0820151816005019080519060200190613ff492919061464d565b509050505050505050565b6000600180811115614014576140136160da565b5b836001811115614027576140266160da565b5b1480156140575750600180811115614042576140416160da565b5b826001811115614055576140546160da565b5b145b905092915050565b6000819050919050565b614072816145d3565b6140b1576040517f08c379a00000000000000000000000000000000000000000000000000000000081526004016140a890615b93565b60405180910390fd5b806140de7f360894a13ba1a3210667c828492db98dca3e2076cc3735a920a3ca505d382bbc60001b61405f565b60000160006101000a81548173ffffffffffffffffffffffffffffffffffffffff021916908373ffffffffffffffffffffffffffffffffffffffff16021790555050565b606061412d836145d3565b61416c576040517f08c379a000000000000000000000000000000000000000000000000000000000815260040161416390615bf3565b60405180910390fd5b6000808473ffffffffffffffffffffffffffffffffffffffff1684604051614194919061570a565b600060405180830381855af49150503d80600081146141cf576040519150601f19603f3d011682016040523d82523d6000602084013e6141d4565b606091505b50915091506141fc8282604051806060016040528060278152602001616adb602791396145e6565b9250505092915050565b6000819050919050565b61421981614069565b8073ffffffffffffffffffffffffffffffffffffffff167fbc7cd75a20ee27fd9adebab32041f755214dbc6bffa90cc0225b39da2e5c2d3b60405160405180910390a250565b600060019054906101000a900460ff1680614285575060008054906101000a900460ff16155b6142c4576040517f08c379a00000000000000000000000000000000000000000000000000000000081526004016142bb90615b53565b60405180910390fd5b60008060019054906101000a900460ff161590508015614314576001600060016101000a81548160ff02191690831515021790555060016000806101000a81548160ff0219169083151502179055505b80156143355760008060016101000a81548160ff0219169083151502179055505b50565b600060019054906101000a900460ff168061435e575060008054906101000a900460ff16155b61439d576040517f08c379a000000000000000000000000000000000000000000000000000000000815260040161439490615b53565b60405180910390fd5b60008060019054906101000a900460ff1615905080156143ed576001600060016101000a81548160ff02191690831515021790555060016000806101000a81548160ff0219169083151502179055505b6143fd6143f8613866565b6139c9565b801561441e5760008060016101000a81548160ff0219169083151502179055505b50565b600060019054906101000a900460ff1680614447575060008054906101000a900460ff16155b614486576040517f08c379a000000000000000000000000000000000000000000000000000000000815260040161447d90615b53565b60405180910390fd5b60008060019054906101000a900460ff1615905080156144d6576001600060016101000a81548160ff02191690831515021790555060016000806101000a81548160ff0219169083151502179055505b80156144f75760008060016101000a81548160ff0219169083151502179055505b50565b600060019054906101000a900460ff1680614520575060008054906101000a900460ff16155b61455f576040517f08c379a000000000000000000000000000000000000000000000000000000000815260040161455690615b53565b60405180910390fd5b60008060019054906101000a900460ff1615905080156145af576001600060016101000a81548160ff02191690831515021790555060016000806101000a81548160ff0219169083151502179055505b80156145d05760008060016101000a81548160ff0219169083151502179055505b50565b600080823b905060008111915050919050565b606083156145f657829050614646565b6000835111156146095782518084602001fd5b816040517f08c379a000000000000000000000000000000000000000000000000000000000815260040161463d9190615826565b60405180910390fd5b9392505050565b82805461465990615fff565b90600052602060002090601f01602090048101928261467b57600085556146c2565b82601f1061469457805160ff19168380011785556146c2565b828001600101855582156146c2579182015b828111156146c15782518255916020019190600101906146a6565b5b5090506146cf9190614746565b5090565b6040518060e00160405280606081526020016060815260200160006002811115614700576146ff6160da565b5b815260200160608152602001600060018111156147205761471f6160da565b5b815260200160006001811115614739576147386160da565b5b8152602001606081525090565b5b8082111561475f576000816000905550600101614747565b5090565b600061477661477184615d18565b615cf3565b905080838252602082019050828560208602820111156147995761479861619b565b5b60005b858110156147c957816147af88826148e5565b84526020840193506020830192505060018101905061479c565b5050509392505050565b60006147e66147e184615d44565b615cf3565b905080838252602082019050828560208602820111156148095761480861619b565b5b60005b8581101561485757813567ffffffffffffffff81111561482f5761482e616196565b5b80860161483c89826149d8565b8552602085019450602084019350505060018101905061480c565b5050509392505050565b600061487461486f84615d70565b615cf3565b9050828152602081018484840111156148905761488f6161a0565b5b61489b848285615fbd565b509392505050565b60006148b66148b184615da1565b615cf3565b9050828152602081018484840111156148d2576148d16161a0565b5b6148dd848285615fbd565b509392505050565b6000813590506148f481616a75565b92915050565b600082601f83011261490f5761490e616196565b5b813561491f848260208601614763565b91505092915050565b600082601f83011261493d5761493c616196565b5b813561494d8482602086016147d3565b91505092915050565b60008135905061496581616a8c565b92915050565b60008135905061497a81616aa3565b92915050565b600082601f83011261499557614994616196565b5b81356149a5848260208601614861565b91505092915050565b6000813590506149bd81616aba565b92915050565b6000813590506149d281616aca565b92915050565b600082601f8301126149ed576149ec616196565b5b81356149fd8482602086016148a3565b91505092915050565b600060208284031215614a1c57614a1b6161aa565b5b6000614a2a848285016148e5565b91505092915050565b60008060408385031215614a4a57614a496161aa565b5b6000614a58858286016148e5565b9250506020614a69858286016148e5565b9150509250929050565b600080600060608486031215614a8c57614a8b6161aa565b5b6000614a9a868287016148e5565b9350506020614aab868287016148e5565b9250506040614abc86828701614956565b9150509250925092565b600080600060608486031215614adf57614ade6161aa565b5b6000614aed868287016148e5565b9350506020614afe868287016148e5565b9250506040614b0f8682870161496b565b9150509250925092565b60008060408385031215614b3057614b2f6161aa565b5b6000614b3e858286016148e5565b925050602083013567ffffffffffffffff811115614b5f57614b5e6161a5565b5b614b6b85828601614980565b9150509250929050565b60008060408385031215614b8c57614b8b6161aa565b5b6000614b9a858286016148e5565b9250506020614bab858286016149ae565b9150509250929050565b600080600060608486031215614bce57614bcd6161aa565b5b6000614bdc868287016148e5565b9350506020614bed868287016149c3565b9250506040614bfe86828701614956565b9150509250925092565b600080600060608486031215614c2157614c206161aa565b5b6000614c2f868287016148e5565b935050602084013567ffffffffffffffff811115614c5057614c4f6161a5565b5b614c5c868287016149d8565b925050604084013567ffffffffffffffff811115614c7d57614c7c6161a5565b5b614c89868287016149d8565b9150509250925092565b60008060008060808587031215614cad57614cac6161aa565b5b6000614cbb878288016148e5565b945050602085013567ffffffffffffffff811115614cdc57614cdb6161a5565b5b614ce8878288016149d8565b935050604085013567ffffffffffffffff811115614d0957614d086161a5565b5b614d15878288016149d8565b925050606085013567ffffffffffffffff811115614d3657614d356161a5565b5b614d42878288016149d8565b91505092959194509250565b600080600060608486031215614d6757614d666161aa565b5b600084013567ffffffffffffffff811115614d8557614d846161a5565b5b614d91868287016148fa565b935050602084013567ffffffffffffffff811115614db257614db16161a5565b5b614dbe86828701614928565b925050604084013567ffffffffffffffff811115614ddf57614dde6161a5565b5b614deb86828701614928565b9150509250925092565b60008060008060808587031215614e0f57614e0e6161aa565b5b600085013567ffffffffffffffff811115614e2d57614e2c6161a5565b5b614e39878288016148fa565b945050602085013567ffffffffffffffff811115614e5a57614e596161a5565b5b614e6687828801614928565b935050604085013567ffffffffffffffff811115614e8757614e866161a5565b5b614e9387828801614928565b925050606085013567ffffffffffffffff811115614eb457614eb36161a5565b5b614ec087828801614928565b91505092959194509250565b600060208284031215614ee257614ee16161aa565b5b600082013567ffffffffffffffff811115614f0057614eff6161a5565b5b614f0c84828501614928565b91505092915050565b600060208284031215614f2b57614f2a6161aa565b5b6000614f3984828501614956565b91505092915050565b60008060408385031215614f5957614f586161aa565b5b6000614f67858286016149ae565b9250506020614f78858286016148e5565b9150509250929050565b600080600060608486031215614f9b57614f9a6161aa565b5b6000614fa9868287016149ae565b9350506020614fba868287016148e5565b9250506040614fcb8682870161496b565b9150509250925092565b6000614fe18383615019565b60208301905092915050565b6000614ff98383615177565b60208301905092915050565b600061501183836151e4565b905092915050565b61502281615eff565b82525050565b61503181615eff565b82525050565b600061504282615e02565b61504c8185615e60565b935061505783615dd2565b8060005b8381101561508857815161506f8882614fd5565b975061507a83615e39565b92505060018101905061505b565b5085935050505092915050565b60006150a082615e0d565b6150aa8185615e71565b93506150b583615de2565b8060005b838110156150e65781516150cd8882614fed565b97506150d883615e46565b9250506001810190506150b9565b5085935050505092915050565b60006150fe82615e18565b6151088185615e82565b93508360208202850161511a85615df2565b8060005b8581101561515657848403895281516151378582615005565b945061514283615e53565b925060208a0199505060018101905061511e565b50829750879550505050505092915050565b61517181615f11565b82525050565b61518081615f1d565b82525050565b61518f81615f1d565b82525050565b60006151a082615e23565b6151aa8185615e93565b93506151ba818560208601615fcc565b80840191505092915050565b6151cf81615f99565b82525050565b6151de81615fab565b82525050565b60006151ef82615e2e565b6151f98185615e9e565b9350615209818560208601615fcc565b615212816161af565b840191505092915050565b600061522882615e2e565b6152328185615eaf565b9350615242818560208601615fcc565b61524b816161af565b840191505092915050565b600061526182615e2e565b61526b8185615ec0565b935061527b818560208601615fcc565b80840191505092915050565b6000615294602583615eaf565b915061529f826161c0565b604082019050919050565b60006152b7602783615eaf565b91506152c28261620f565b604082019050919050565b60006152da601b83615eaf565b91506152e58261625e565b602082019050919050565b60006152fd602f83615eaf565b915061530882616287565b604082019050919050565b6000615320602f83615eaf565b915061532b826162d6565b604082019050919050565b6000615343602683615eaf565b915061534e82616325565b604082019050919050565b6000615366602283615eaf565b915061537182616374565b604082019050919050565b6000615389602c83615eaf565b9150615394826163c3565b604082019050919050565b60006153ac602c83615eaf565b91506153b782616412565b604082019050919050565b60006153cf602f83615eaf565b91506153da82616461565b604082019050919050565b60006153f2601a83615eaf565b91506153fd826164b0565b602082019050919050565b6000615415602883615eaf565b9150615420826164d9565b604082019050919050565b6000615438601583615eaf565b915061544382616528565b602082019050919050565b600061545b602283615eaf565b915061546682616551565b604082019050919050565b600061547e602c83615eaf565b9150615489826165a0565b604082019050919050565b60006154a1601583615eaf565b91506154ac826165ef565b602082019050919050565b60006154c4602c83615eaf565b91506154cf82616618565b604082019050919050565b60006154e7601e83615eaf565b91506154f282616667565b602082019050919050565b600061550a602783615eaf565b915061551582616690565b604082019050919050565b600061552d601b83615eaf565b9150615538826166df565b602082019050919050565b6000615550602e83615eaf565b915061555b82616708565b604082019050919050565b6000615573602383615eaf565b915061557e82616757565b604082019050919050565b6000615596602d83615eaf565b91506155a1826167a6565b604082019050919050565b60006155b9602083615eaf565b91506155c4826167f5565b602082019050919050565b60006155dc601f83615eaf565b91506155e78261681e565b602082019050919050565b60006155ff602683615eaf565b915061560a82616847565b604082019050919050565b6000615622602983615eaf565b915061562d82616896565b604082019050919050565b6000615645602583615eaf565b9150615650826168e5565b604082019050919050565b6000615668601683615eaf565b915061567382616934565b602082019050919050565b600061568b602883615eaf565b91506156968261695d565b604082019050919050565b60006156ae601e83615eaf565b91506156b9826169ac565b602082019050919050565b60006156d1603383615eaf565b91506156dc826169d5565b604082019050919050565b60006156f4601583615eaf565b91506156ff82616a24565b602082019050919050565b60006157168284615195565b915081905092915050565b600061572d8284615256565b915081905092915050565b600060208201905061574d6000830184615028565b92915050565b60006040820190506157686000830185615028565b6157756020830184615186565b9392505050565b600060208201905081810360008301526157968184615037565b905092915050565b600060208201905081810360008301526157b88184615095565b905092915050565b600060208201905081810360008301526157da81846150f3565b905092915050565b60006020820190506157f76000830184615168565b92915050565b600060408201905061581260008301856151d5565b61581f60208301846151d5565b9392505050565b60006020820190508181036000830152615840818461521d565b905092915050565b600060e0820190508181036000830152615862818a61521d565b90508181036020830152615876818961521d565b905061588560408301886151c6565b8181036060830152615897818761521d565b90506158a660808301866151d5565b6158b360a08301856151d5565b81810360c08301526158c5818461521d565b905098975050505050505050565b600060208201905081810360008301526158ec81615287565b9050919050565b6000602082019050818103600083015261590c816152aa565b9050919050565b6000602082019050818103600083015261592c816152cd565b9050919050565b6000602082019050818103600083015261594c816152f0565b9050919050565b6000602082019050818103600083015261596c81615313565b9050919050565b6000602082019050818103600083015261598c81615336565b9050919050565b600060208201905081810360008301526159ac81615359565b9050919050565b600060208201905081810360008301526159cc8161537c565b9050919050565b600060208201905081810360008301526159ec8161539f565b9050919050565b60006020820190508181036000830152615a0c816153c2565b9050919050565b60006020820190508181036000830152615a2c816153e5565b9050919050565b60006020820190508181036000830152615a4c81615408565b9050919050565b60006020820190508181036000830152615a6c8161542b565b9050919050565b60006020820190508181036000830152615a8c8161544e565b9050919050565b60006020820190508181036000830152615aac81615471565b9050919050565b60006020820190508181036000830152615acc81615494565b9050919050565b60006020820190508181036000830152615aec816154b7565b9050919050565b60006020820190508181036000830152615b0c816154da565b9050919050565b60006020820190508181036000830152615b2c816154fd565b9050919050565b60006020820190508181036000830152615b4c81615520565b9050919050565b60006020820190508181036000830152615b6c81615543565b9050919050565b60006020820190508181036000830152615b8c81615566565b9050919050565b60006020820190508181036000830152615bac81615589565b9050919050565b60006020820190508181036000830152615bcc816155ac565b9050919050565b60006020820190508181036000830152615bec816155cf565b9050919050565b60006020820190508181036000830152615c0c816155f2565b9050919050565b60006020820190508181036000830152615c2c81615615565b9050919050565b60006020820190508181036000830152615c4c81615638565b9050919050565b60006020820190508181036000830152615c6c8161565b565b9050919050565b60006020820190508181036000830152615c8c8161567e565b9050919050565b60006020820190508181036000830152615cac816156a1565b9050919050565b60006020820190508181036000830152615ccc816156c4565b9050919050565b60006020820190508181036000830152615cec816156e7565b9050919050565b6000615cfd615d0e565b9050615d098282616031565b919050565b6000604051905090565b600067ffffffffffffffff821115615d3357615d32616167565b5b602082029050602081019050919050565b600067ffffffffffffffff821115615d5f57615d5e616167565b5b602082029050602081019050919050565b600067ffffffffffffffff821115615d8b57615d8a616167565b5b615d94826161af565b9050602081019050919050565b600067ffffffffffffffff821115615dbc57615dbb616167565b5b615dc5826161af565b9050602081019050919050565b6000819050602082019050919050565b6000819050602082019050919050565b6000819050602082019050919050565b600081519050919050565b600081519050919050565b600081519050919050565b600081519050919050565b600081519050919050565b6000602082019050919050565b6000602082019050919050565b6000602082019050919050565b600082825260208201905092915050565b600082825260208201905092915050565b600082825260208201905092915050565b600081905092915050565b600082825260208201905092915050565b600082825260208201905092915050565b600081905092915050565b6000615ed682615f8f565b9150615ee183615f8f565b925082821015615ef457615ef36160ab565b5b828203905092915050565b6000615f0a82615f6f565b9050919050565b60008115159050919050565b60007fffffffff0000000000000000000000000000000000000000000000000000000082169050919050565b6000819050615f5782616a4d565b919050565b6000819050615f6a82616a61565b919050565b600073ffffffffffffffffffffffffffffffffffffffff82169050919050565b6000819050919050565b6000615fa482615f49565b9050919050565b6000615fb682615f5c565b9050919050565b82818337600083830152505050565b60005b83811015615fea578082015181840152602081019050615fcf565b83811115615ff9576000848401525b50505050565b6000600282049050600182168061601757607f821691505b6020821081141561602b5761602a616109565b5b50919050565b61603a826161af565b810181811067ffffffffffffffff8211171561605957616058616167565b5b80604052505050565b600061606d82615f8f565b91507fffffffffffffffffffffffffffffffffffffffffffffffffffffffffffffffff8214156160a05761609f6160ab565b5b600182019050919050565b7f4e487b7100000000000000000000000000000000000000000000000000000000600052601160045260246000fd5b7f4e487b7100000000000000000000000000000000000000000000000000000000600052602160045260246000fd5b7f4e487b7100000000000000000000000000000000000000000000000000000000600052602260045260246000fd5b7f4e487b7100000000000000000000000000000000000000000000000000000000600052603260045260246000fd5b7f4e487b7100000000000000000000000000000000000000000000000000000000600052604160045260246000fd5b600080fd5b600080fd5b600080fd5b600080fd5b600080fd5b6000601f19601f8301169050919050565b7f417574686f726974793a206163636f756e744449442063616e6e6f742062652060008201527f656d707479000000000000000000000000000000000000000000000000000000602082015250565b7f417574686f726974793a204163636f756e744e616d652063616e6e6f7420626560008201527f20656d7074792100000000000000000000000000000000000000000000000000602082015250565b7f417574686f726974793a696e76616c6964206f7065726174696f6e0000000000600082015250565b7f417574686f726974793a20506c6174666f726d537461746520646f65736e277460008201527f206e65656420746f206368616e67650000000000000000000000000000000000602082015250565b7f45524331393637557067726164653a207570677261646520627265616b73206660008201527f7572746865722075706772616465730000000000000000000000000000000000602082015250565b7f4f776e61626c653a206e6577206f776e657220697320746865207a65726f206160008201527f6464726573730000000000000000000000000000000000000000000000000000602082015250565b7f417574686f726974793a204163636f756e7420616c726561647920657869737460008201527f7321000000000000000000000000000000000000000000000000000000000000602082015250565b7f417574686f726974793a426f746820617265207468652073616d6520706c617460008201527f666f726d206163636f756e740000000000000000000000000000000000000000602082015250565b7f46756e6374696f6e206d7573742062652063616c6c6564207468726f7567682060008201527f64656c656761746563616c6c0000000000000000000000000000000000000000602082015250565b7f417574686f726974793a204f70657261746f72537461746520646f65736e277460008201527f206e65656420746f206368616e67650000000000000000000000000000000000602082015250565b7f417574686f726974793a206c656e677468206d69736d61746368000000000000600082015250565b7f417574686f726974793a7377697463686572206f6620706c6174666f726d206960008201527f7320636c6f736564000000000000000000000000000000000000000000000000602082015250565b7f417574686f726974793a696e76616c6964207369670000000000000000000000600082015250565b7f417574686f726974793a204163636f756e7420646f6573206e6f74206578697360008201527f7421000000000000000000000000000000000000000000000000000000000000602082015250565b7f46756e6374696f6e206d7573742062652063616c6c6564207468726f7567682060008201527f6163746976652070726f78790000000000000000000000000000000000000000602082015250565b7f417574686f726974793a696e76616c6964206469640000000000000000000000600082015250565b7f417574686f726974793a204c65616465724163636f756e74496e666f20646f6560008201527f73206e6f74206578697374210000000000000000000000000000000000000000602082015250565b7f417574686f726974793a66756e6320646f6573206e6f74206578697374730000600082015250565b7f417574686f726974793a426f7468206d7573742062652060706c6174666f726d60008201527f6020726f6c657300000000000000000000000000000000000000000000000000602082015250565b7f417574686f726974793a696e76616c6964206c65616465724449440000000000600082015250565b7f496e697469616c697a61626c653a20636f6e747261637420697320616c72656160008201527f647920696e697469616c697a6564000000000000000000000000000000000000602082015250565b7f417574686f726974793a204163636f756e7420686173206265656e2066726f7a60008201527f656e210000000000000000000000000000000000000000000000000000000000602082015250565b7f455243313936373a206e657720696d706c656d656e746174696f6e206973206e60008201527f6f74206120636f6e747261637400000000000000000000000000000000000000602082015250565b7f4f776e61626c653a2063616c6c6572206973206e6f7420746865206f776e6572600082015250565b7f417574686f726974793a204449442063616e6e6f7420626520656d7074792100600082015250565b7f416464726573733a2064656c65676174652063616c6c20746f206e6f6e2d636f60008201527f6e74726163740000000000000000000000000000000000000000000000000000602082015250565b7f417574686f726974793a7377697463686572206f6620706c6174666f726d206960008201527f7320636c6f7365642e0000000000000000000000000000000000000000000000602082015250565b7f417574686f726974793a20696e636f727265637420726f6c65206f722064697360008201527f61626c6564000000000000000000000000000000000000000000000000000000602082015250565b7f417574686f726974793a7a65726f206164647265737300000000000000000000600082015250565b7f417574686f726974793a204163636f756e74277320726f6c6520646f6573206e60008201527f6f74206d61746368000000000000000000000000000000000000000000000000602082015250565b7f417574686f726974793a2066756e6320616c7265616479206578697374730000600082015250565b7f417574686f726974793a60726f6c6560206f722060636f6e747261637441646460008201527f726573736020646f65736e277420657869737400000000000000000000000000602082015250565b7f417574686f726974793a2077726f6e6720726f6c650000000000000000000000600082015250565b60038110616a5e57616a5d6160da565b5b50565b60028110616a7257616a716160da565b5b50565b616a7e81615eff565b8114616a8957600080fd5b50565b616a9581615f11565b8114616aa057600080fd5b50565b616aac81615f1d565b8114616ab757600080fd5b50565b60038110616ac757600080fd5b50565b60028110616ad757600080fd5b5056fe416464726573733a206c6f772d6c6576656c2064656c65676174652063616c6c206661696c6564a2646970667358221220f21651c769cd20271e4024fbec392ddaea80cd42c70c2436d40a948b240a7cbf64736f6c63430008070033",
			"opcodes": "PUSH1 0xA0 PUSH1 0x40 MSTORE ADDRESS PUSH20 0xFFFFFFFFFFFFFFFFFFFFFFFFFFFFFFFFFFFFFFFF AND PUSH1 0x80 SWAP1 PUSH20 0xFFFFFFFFFFFFFFFFFFFFFFFFFFFFFFFFFFFFFFFF AND PUSH1 0x60 SHL DUP2 MSTORE POP CALLVALUE DUP1 ISZERO PUSH3 0x47 JUMPI PUSH1 0x0 DUP1 REVERT JUMPDEST POP PUSH1 0x0 PUSH1 0x1 SWAP1 SLOAD SWAP1 PUSH2 0x100 EXP SWAP1 DIV PUSH1 0xFF AND DUP1 PUSH3 0x6F JUMPI POP PUSH1 0x0 DUP1 SLOAD SWAP1 PUSH2 0x100 EXP SWAP1 DIV PUSH1 0xFF AND ISZERO JUMPDEST PUSH3 0xB1 JUMPI PUSH1 0x40 MLOAD PUSH32 0x8C379A000000000000000000000000000000000000000000000000000000000 DUP2 MSTORE PUSH1 0x4 ADD PUSH3 0xA8 SWAP1 PUSH3 0x152 JUMP JUMPDEST PUSH1 0x40 MLOAD DUP1 SWAP2 SUB SWAP1 REVERT JUMPDEST PUSH1 0x0 DUP1 PUSH1 0x1 SWAP1 SLOAD SWAP1 PUSH2 0x100 EXP SWAP1 DIV PUSH1 0xFF AND ISZERO SWAP1 POP DUP1 ISZERO PUSH3 0x102 JUMPI PUSH1 0x1 PUSH1 0x0 PUSH1 0x1 PUSH2 0x100 EXP DUP2 SLOAD DUP2 PUSH1 0xFF MUL NOT AND SWAP1 DUP4 ISZERO ISZERO MUL OR SWAP1 SSTORE POP PUSH1 0x1 PUSH1 0x0 DUP1 PUSH2 0x100 EXP DUP2 SLOAD DUP2 PUSH1 0xFF MUL NOT AND SWAP1 DUP4 ISZERO ISZERO MUL OR SWAP1 SSTORE POP JUMPDEST DUP1 ISZERO PUSH3 0x124 JUMPI PUSH1 0x0 DUP1 PUSH1 0x1 PUSH2 0x100 EXP DUP2 SLOAD DUP2 PUSH1 0xFF MUL NOT AND SWAP1 DUP4 ISZERO ISZERO MUL OR SWAP1 SSTORE POP JUMPDEST POP PUSH3 0x1D4 JUMP JUMPDEST PUSH1 0x0 PUSH3 0x13A PUSH1 0x2E DUP4 PUSH3 0x174 JUMP JUMPDEST SWAP2 POP PUSH3 0x147 DUP3 PUSH3 0x185 JUMP JUMPDEST PUSH1 0x40 DUP3 ADD SWAP1 POP SWAP2 SWAP1 POP JUMP JUMPDEST PUSH1 0x0 PUSH1 0x20 DUP3 ADD SWAP1 POP DUP2 DUP2 SUB PUSH1 0x0 DUP4 ADD MSTORE PUSH3 0x16D DUP2 PUSH3 0x12B JUMP JUMPDEST SWAP1 POP SWAP2 SWAP1 POP JUMP JUMPDEST PUSH1 0x0 DUP3 DUP3 MSTORE PUSH1 0x20 DUP3 ADD SWAP1 POP SWAP3 SWAP2 POP POP JUMP JUMPDEST PUSH32 0x496E697469616C697A61626C653A20636F6E747261637420697320616C726561 PUSH1 0x0 DUP3 ADD MSTORE PUSH32 0x647920696E697469616C697A6564000000000000000000000000000000000000 PUSH1 0x20 DUP3 ADD MSTORE POP JUMP JUMPDEST PUSH1 0x80 MLOAD PUSH1 0x60 SHR PUSH2 0x6B37 PUSH3 0x208 PUSH1 0x0 CODECOPY PUSH1 0x0 DUP2 DUP2 PUSH2 0xBA4 ADD MSTORE DUP2 DUP2 PUSH2 0xC33 ADD MSTORE DUP2 DUP2 PUSH2 0x1227 ADD MSTORE PUSH2 0x12B6 ADD MSTORE PUSH2 0x6B37 PUSH1 0x0 RETURN INVALID PUSH1 0x80 PUSH1 0x40 MSTORE PUSH1 0x4 CALLDATASIZE LT PUSH2 0x181 JUMPI PUSH1 0x0 CALLDATALOAD PUSH1 0xE0 SHR DUP1 PUSH4 0xA8DD7CE8 GT PUSH2 0xD1 JUMPI DUP1 PUSH4 0xD3D65DDB GT PUSH2 0x8A JUMPI DUP1 PUSH4 0xED5CAD64 GT PUSH2 0x64 JUMPI DUP1 PUSH4 0xED5CAD64 EQ PUSH2 0x543 JUMPI DUP1 PUSH4 0xF2FDE38B EQ PUSH2 0x580 JUMPI DUP1 PUSH4 0xFAF3C53F EQ PUSH2 0x5A9 JUMPI DUP1 PUSH4 0xFBCBC0F1 EQ PUSH2 0x5D2 JUMPI PUSH2 0x181 JUMP JUMPDEST DUP1 PUSH4 0xD3D65DDB EQ PUSH2 0x4C6 JUMPI DUP1 PUSH4 0xE1576897 EQ PUSH2 0x4F1 JUMPI DUP1 PUSH4 0xE3F00C3A EQ PUSH2 0x51A JUMPI PUSH2 0x181 JUMP JUMPDEST DUP1 PUSH4 0xA8DD7CE8 EQ PUSH2 0x3BC JUMPI DUP1 PUSH4 0xB50F1A5E EQ PUSH2 0x3E5 JUMPI DUP1 PUSH4 0xB9B89DCA EQ PUSH2 0x422 JUMPI DUP1 PUSH4 0xBAC7AD52 EQ PUSH2 0x44B JUMPI DUP1 PUSH4 0xBEA24F20 EQ PUSH2 0x474 JUMPI DUP1 PUSH4 0xCF149C6D EQ PUSH2 0x49D JUMPI PUSH2 0x181 JUMP JUMPDEST DUP1 PUSH4 0x4F1EF286 GT PUSH2 0x13E JUMPI DUP1 PUSH4 0x8129FC1C GT PUSH2 0x118 JUMPI DUP1 PUSH4 0x8129FC1C EQ PUSH2 0x314 JUMPI DUP1 PUSH4 0x8DA5CB5B EQ PUSH2 0x32B JUMPI DUP1 PUSH4 0x95C2A8D9 EQ PUSH2 0x356 JUMPI DUP1 PUSH4 0xA6FF8F0C EQ PUSH2 0x393 JUMPI PUSH2 0x181 JUMP JUMPDEST DUP1 PUSH4 0x4F1EF286 EQ PUSH2 0x2B8 JUMPI DUP1 PUSH4 0x59DAC585 EQ PUSH2 0x2D4 JUMPI DUP1 PUSH4 0x715018A6 EQ PUSH2 0x2FD JUMPI PUSH2 0x181 JUMP JUMPDEST DUP1 PUSH4 0x1843CAA EQ PUSH2 0x186 JUMPI DUP1 PUSH4 0x5E847FB EQ PUSH2 0x1C3 JUMPI DUP1 PUSH4 0x3659CFE6 EQ PUSH2 0x1EC JUMPI DUP1 PUSH4 0x3A723D17 EQ PUSH2 0x215 JUMPI DUP1 PUSH4 0x40208950 EQ PUSH2 0x252 JUMPI DUP1 PUSH4 0x470CF0E0 EQ PUSH2 0x27B JUMPI JUMPDEST PUSH1 0x0 DUP1 REVERT JUMPDEST CALLVALUE DUP1 ISZERO PUSH2 0x192 JUMPI PUSH1 0x0 DUP1 REVERT JUMPDEST POP PUSH2 0x1AD PUSH1 0x4 DUP1 CALLDATASIZE SUB DUP2 ADD SWAP1 PUSH2 0x1A8 SWAP2 SWAP1 PUSH2 0x4A33 JUMP JUMPDEST PUSH2 0x615 JUMP JUMPDEST PUSH1 0x40 MLOAD PUSH2 0x1BA SWAP2 SWAP1 PUSH2 0x57E2 JUMP JUMPDEST PUSH1 0x40 MLOAD DUP1 SWAP2 SUB SWAP1 RETURN JUMPDEST CALLVALUE DUP1 ISZERO PUSH2 0x1CF JUMPI PUSH1 0x0 DUP1 REVERT JUMPDEST POP PUSH2 0x1EA PUSH1 0x4 DUP1 CALLDATASIZE SUB DUP2 ADD SWAP1 PUSH2 0x1E5 SWAP2 SWAP1 PUSH2 0x4A73 JUMP JUMPDEST PUSH2 0x980 JUMP JUMPDEST STOP JUMPDEST CALLVALUE DUP1 ISZERO PUSH2 0x1F8 JUMPI PUSH1 0x0 DUP1 REVERT JUMPDEST POP PUSH2 0x213 PUSH1 0x4 DUP1 CALLDATASIZE SUB DUP2 ADD SWAP1 PUSH2 0x20E SWAP2 SWAP1 PUSH2 0x4A06 JUMP JUMPDEST PUSH2 0xBA2 JUMP JUMPDEST STOP JUMPDEST CALLVALUE DUP1 ISZERO PUSH2 0x221 JUMPI PUSH1 0x0 DUP1 REVERT JUMPDEST POP PUSH2 0x23C PUSH1 0x4 DUP1 CALLDATASIZE SUB DUP2 ADD SWAP1 PUSH2 0x237 SWAP2 SWAP1 PUSH2 0x4A33 JUMP JUMPDEST PUSH2 0xD2B JUMP JUMPDEST PUSH1 0x40 MLOAD PUSH2 0x249 SWAP2 SWAP1 PUSH2 0x57E2 JUMP JUMPDEST PUSH1 0x40 MLOAD DUP1 SWAP2 SUB SWAP1 RETURN JUMPDEST CALLVALUE DUP1 ISZERO PUSH2 0x25E JUMPI PUSH1 0x0 DUP1 REVERT JUMPDEST POP PUSH2 0x279 PUSH1 0x4 DUP1 CALLDATASIZE SUB DUP2 ADD SWAP1 PUSH2 0x274 SWAP2 SWAP1 PUSH2 0x4DF5 JUMP JUMPDEST PUSH2 0xFC2 JUMP JUMPDEST STOP JUMPDEST CALLVALUE DUP1 ISZERO PUSH2 0x287 JUMPI PUSH1 0x0 DUP1 REVERT JUMPDEST POP PUSH2 0x2A2 PUSH1 0x4 DUP1 CALLDATASIZE SUB DUP2 ADD SWAP1 PUSH2 0x29D SWAP2 SWAP1 PUSH2 0x4AC6 JUMP JUMPDEST PUSH2 0x1121 JUMP JUMPDEST PUSH1 0x40 MLOAD PUSH2 0x2AF SWAP2 SWAP1 PUSH2 0x57E2 JUMP JUMPDEST PUSH1 0x40 MLOAD DUP1 SWAP2 SUB SWAP1 RETURN JUMPDEST PUSH2 0x2D2 PUSH1 0x4 DUP1 CALLDATASIZE SUB DUP2 ADD SWAP1 PUSH2 0x2CD SWAP2 SWAP1 PUSH2 0x4B19 JUMP JUMPDEST PUSH2 0x1225 JUMP JUMPDEST STOP JUMPDEST CALLVALUE DUP1 ISZERO PUSH2 0x2E0 JUMPI PUSH1 0x0 DUP1 REVERT JUMPDEST POP PUSH2 0x2FB PUSH1 0x4 DUP1 CALLDATASIZE SUB DUP2 ADD SWAP1 PUSH2 0x2F6 SWAP2 SWAP1 PUSH2 0x4F15 JUMP JUMPDEST PUSH2 0x1362 JUMP JUMPDEST STOP JUMPDEST CALLVALUE DUP1 ISZERO PUSH2 0x309 JUMPI PUSH1 0x0 DUP1 REVERT JUMPDEST POP PUSH2 0x312 PUSH2 0x1443 JUMP JUMPDEST STOP JUMPDEST CALLVALUE DUP1 ISZERO PUSH2 0x320 JUMPI PUSH1 0x0 DUP1 REVERT JUMPDEST POP PUSH2 0x329 PUSH2 0x14CB JUMP JUMPDEST STOP JUMPDEST CALLVALUE DUP1 ISZERO PUSH2 0x337 JUMPI PUSH1 0x0 DUP1 REVERT JUMPDEST POP PUSH2 0x340 PUSH2 0x15B4 JUMP JUMPDEST PUSH1 0x40 MLOAD PUSH2 0x34D SWAP2 SWAP1 PUSH2 0x5738 JUMP JUMPDEST PUSH1 0x40 MLOAD DUP1 SWAP2 SUB SWAP1 RETURN JUMPDEST CALLVALUE DUP1 ISZERO PUSH2 0x362 JUMPI PUSH1 0x0 DUP1 REVERT JUMPDEST POP PUSH2 0x37D PUSH1 0x4 DUP1 CALLDATASIZE SUB DUP2 ADD SWAP1 PUSH2 0x378 SWAP2 SWAP1 PUSH2 0x4A06 JUMP JUMPDEST PUSH2 0x15DE JUMP JUMPDEST PUSH1 0x40 MLOAD PUSH2 0x38A SWAP2 SWAP1 PUSH2 0x57E2 JUMP JUMPDEST PUSH1 0x40 MLOAD DUP1 SWAP2 SUB SWAP1 RETURN JUMPDEST CALLVALUE DUP1 ISZERO PUSH2 0x39F JUMPI PUSH1 0x0 DUP1 REVERT JUMPDEST POP PUSH2 0x3BA PUSH1 0x4 DUP1 CALLDATASIZE SUB DUP2 ADD SWAP1 PUSH2 0x3B5 SWAP2 SWAP1 PUSH2 0x4F82 JUMP JUMPDEST PUSH2 0x160C JUMP JUMPDEST STOP JUMPDEST CALLVALUE DUP1 ISZERO PUSH2 0x3C8 JUMPI PUSH1 0x0 DUP1 REVERT JUMPDEST POP PUSH2 0x3E3 PUSH1 0x4 DUP1 CALLDATASIZE SUB DUP2 ADD SWAP1 PUSH2 0x3DE SWAP2 SWAP1 PUSH2 0x4F15 JUMP JUMPDEST PUSH2 0x1846 JUMP JUMPDEST STOP JUMPDEST CALLVALUE DUP1 ISZERO PUSH2 0x3F1 JUMPI PUSH1 0x0 DUP1 REVERT JUMPDEST POP PUSH2 0x40C PUSH1 0x4 DUP1 CALLDATASIZE SUB DUP2 ADD SWAP1 PUSH2 0x407 SWAP2 SWAP1 PUSH2 0x4F42 JUMP JUMPDEST PUSH2 0x1910 JUMP JUMPDEST PUSH1 0x40 MLOAD PUSH2 0x419 SWAP2 SWAP1 PUSH2 0x579E JUMP JUMPDEST PUSH1 0x40 MLOAD DUP1 SWAP2 SUB SWAP1 RETURN JUMPDEST CALLVALUE DUP1 ISZERO PUSH2 0x42E JUMPI PUSH1 0x0 DUP1 REVERT JUMPDEST POP PUSH2 0x449 PUSH1 0x4 DUP1 CALLDATASIZE SUB DUP2 ADD SWAP1 PUSH2 0x444 SWAP2 SWAP1 PUSH2 0x4ECC JUMP JUMPDEST PUSH2 0x1A17 JUMP JUMPDEST STOP JUMPDEST CALLVALUE DUP1 ISZERO PUSH2 0x457 JUMPI PUSH1 0x0 DUP1 REVERT JUMPDEST POP PUSH2 0x472 PUSH1 0x4 DUP1 CALLDATASIZE SUB DUP2 ADD SWAP1 PUSH2 0x46D SWAP2 SWAP1 PUSH2 0x4BB5 JUMP JUMPDEST PUSH2 0x1B49 JUMP JUMPDEST STOP JUMPDEST CALLVALUE DUP1 ISZERO PUSH2 0x480 JUMPI PUSH1 0x0 DUP1 REVERT JUMPDEST POP PUSH2 0x49B PUSH1 0x4 DUP1 CALLDATASIZE SUB DUP2 ADD SWAP1 PUSH2 0x496 SWAP2 SWAP1 PUSH2 0x4C08 JUMP JUMPDEST PUSH2 0x2035 JUMP JUMPDEST STOP JUMPDEST CALLVALUE DUP1 ISZERO PUSH2 0x4A9 JUMPI PUSH1 0x0 DUP1 REVERT JUMPDEST POP PUSH2 0x4C4 PUSH1 0x4 DUP1 CALLDATASIZE SUB DUP2 ADD SWAP1 PUSH2 0x4BF SWAP2 SWAP1 PUSH2 0x4D4E JUMP JUMPDEST PUSH2 0x20E6 JUMP JUMPDEST STOP JUMPDEST CALLVALUE DUP1 ISZERO PUSH2 0x4D2 JUMPI PUSH1 0x0 DUP1 REVERT JUMPDEST POP PUSH2 0x4DB PUSH2 0x227E JUMP JUMPDEST PUSH1 0x40 MLOAD PUSH2 0x4E8 SWAP2 SWAP1 PUSH2 0x57E2 JUMP JUMPDEST PUSH1 0x40 MLOAD DUP1 SWAP2 SUB SWAP1 RETURN JUMPDEST CALLVALUE DUP1 ISZERO PUSH2 0x4FD JUMPI PUSH1 0x0 DUP1 REVERT JUMPDEST POP PUSH2 0x518 PUSH1 0x4 DUP1 CALLDATASIZE SUB DUP2 ADD SWAP1 PUSH2 0x513 SWAP2 SWAP1 PUSH2 0x4C08 JUMP JUMPDEST PUSH2 0x2295 JUMP JUMPDEST STOP JUMPDEST CALLVALUE DUP1 ISZERO PUSH2 0x526 JUMPI PUSH1 0x0 DUP1 REVERT JUMPDEST POP PUSH2 0x541 PUSH1 0x4 DUP1 CALLDATASIZE SUB DUP2 ADD SWAP1 PUSH2 0x53C SWAP2 SWAP1 PUSH2 0x4C93 JUMP JUMPDEST PUSH2 0x23DC JUMP JUMPDEST STOP JUMPDEST CALLVALUE DUP1 ISZERO PUSH2 0x54F JUMPI PUSH1 0x0 DUP1 REVERT JUMPDEST POP PUSH2 0x56A PUSH1 0x4 DUP1 CALLDATASIZE SUB DUP2 ADD SWAP1 PUSH2 0x565 SWAP2 SWAP1 PUSH2 0x4B75 JUMP JUMPDEST PUSH2 0x2459 JUMP JUMPDEST PUSH1 0x40 MLOAD PUSH2 0x577 SWAP2 SWAP1 PUSH2 0x57E2 JUMP JUMPDEST PUSH1 0x40 MLOAD DUP1 SWAP2 SUB SWAP1 RETURN JUMPDEST CALLVALUE DUP1 ISZERO PUSH2 0x58C JUMPI PUSH1 0x0 DUP1 REVERT JUMPDEST POP PUSH2 0x5A7 PUSH1 0x4 DUP1 CALLDATASIZE SUB DUP2 ADD SWAP1 PUSH2 0x5A2 SWAP2 SWAP1 PUSH2 0x4A06 JUMP JUMPDEST PUSH2 0x24B7 JUMP JUMPDEST STOP JUMPDEST CALLVALUE DUP1 ISZERO PUSH2 0x5B5 JUMPI PUSH1 0x0 DUP1 REVERT JUMPDEST POP PUSH2 0x5D0 PUSH1 0x4 DUP1 CALLDATASIZE SUB DUP2 ADD SWAP1 PUSH2 0x5CB SWAP2 SWAP1 PUSH2 0x4F82 JUMP JUMPDEST PUSH2 0x25AF JUMP JUMPDEST STOP JUMPDEST CALLVALUE DUP1 ISZERO PUSH2 0x5DE JUMPI PUSH1 0x0 DUP1 REVERT JUMPDEST POP PUSH2 0x5F9 PUSH1 0x4 DUP1 CALLDATASIZE SUB DUP2 ADD SWAP1 PUSH2 0x5F4 SWAP2 SWAP1 PUSH2 0x4A06 JUMP JUMPDEST PUSH2 0x2AFA JUMP JUMPDEST PUSH1 0x40 MLOAD PUSH2 0x60C SWAP8 SWAP7 SWAP6 SWAP5 SWAP4 SWAP3 SWAP2 SWAP1 PUSH2 0x5848 JUMP JUMPDEST PUSH1 0x40 MLOAD DUP1 SWAP2 SUB SWAP1 RETURN JUMPDEST PUSH1 0x0 DUP1 PUSH2 0x621 DUP5 PUSH2 0x2E8A JUMP JUMPDEST SWAP1 POP PUSH2 0x630 DUP2 PUSH1 0x20 ADD MLOAD PUSH2 0x31E5 JUMP JUMPDEST PUSH2 0x639 DUP2 PUSH2 0x322D JUMP JUMPDEST PUSH1 0x0 PUSH2 0x644 DUP5 PUSH2 0x2E8A JUMP JUMPDEST SWAP1 POP PUSH2 0x653 DUP2 PUSH1 0x20 ADD MLOAD PUSH2 0x31E5 JUMP JUMPDEST PUSH2 0x65C DUP2 PUSH2 0x322D JUMP JUMPDEST PUSH1 0x1 PUSH1 0x2 DUP2 GT ISZERO PUSH2 0x670 JUMPI PUSH2 0x66F PUSH2 0x60DA JUMP JUMPDEST JUMPDEST DUP3 PUSH1 0x40 ADD MLOAD PUSH1 0x2 DUP2 GT ISZERO PUSH2 0x687 JUMPI PUSH2 0x686 PUSH2 0x60DA JUMP JUMPDEST JUMPDEST EQ DUP1 ISZERO PUSH2 0x6BC JUMPI POP PUSH1 0x1 PUSH1 0x2 DUP2 GT ISZERO PUSH2 0x6A3 JUMPI PUSH2 0x6A2 PUSH2 0x60DA JUMP JUMPDEST JUMPDEST DUP2 PUSH1 0x40 ADD MLOAD PUSH1 0x2 DUP2 GT ISZERO PUSH2 0x6BA JUMPI PUSH2 0x6B9 PUSH2 0x60DA JUMP JUMPDEST JUMPDEST EQ JUMPDEST ISZERO PUSH2 0x73D JUMPI PUSH2 0x6DC DUP2 PUSH1 0x60 ADD MLOAD DUP4 PUSH1 0x60 ADD MLOAD PUSH2 0x3281 SWAP1 SWAP2 SWAP1 PUSH4 0xFFFFFFFF AND JUMP JUMPDEST DUP1 ISZERO PUSH2 0x734 JUMPI POP PUSH1 0xCC DUP3 PUSH1 0x0 ADD MLOAD PUSH1 0x40 MLOAD PUSH2 0x6F7 SWAP2 SWAP1 PUSH2 0x5721 JUMP JUMPDEST SWAP1 DUP2 MSTORE PUSH1 0x20 ADD PUSH1 0x40 MLOAD DUP1 SWAP2 SUB SWAP1 KECCAK256 DUP2 PUSH1 0x0 ADD MLOAD PUSH1 0x40 MLOAD PUSH2 0x717 SWAP2 SWAP1 PUSH2 0x5721 JUMP JUMPDEST SWAP1 DUP2 MSTORE PUSH1 0x20 ADD PUSH1 0x40 MLOAD DUP1 SWAP2 SUB SWAP1 KECCAK256 PUSH1 0x0 SWAP1 SLOAD SWAP1 PUSH2 0x100 EXP SWAP1 DIV PUSH1 0xFF AND JUMPDEST SWAP3 POP POP POP PUSH2 0x97A JUMP JUMPDEST PUSH1 0x1 PUSH1 0x2 DUP2 GT ISZERO PUSH2 0x751 JUMPI PUSH2 0x750 PUSH2 0x60DA JUMP JUMPDEST JUMPDEST DUP3 PUSH1 0x40 ADD MLOAD PUSH1 0x2 DUP2 GT ISZERO PUSH2 0x768 JUMPI PUSH2 0x767 PUSH2 0x60DA JUMP JUMPDEST JUMPDEST EQ DUP1 ISZERO PUSH2 0x79C JUMPI POP PUSH1 0x2 DUP1 DUP2 GT ISZERO PUSH2 0x783 JUMPI PUSH2 0x782 PUSH2 0x60DA JUMP JUMPDEST JUMPDEST DUP2 PUSH1 0x40 ADD MLOAD PUSH1 0x2 DUP2 GT ISZERO PUSH2 0x79A JUMPI PUSH2 0x799 PUSH2 0x60DA JUMP JUMPDEST JUMPDEST EQ JUMPDEST ISZERO PUSH2 0x7FA JUMPI PUSH1 0xCC DUP3 PUSH1 0x0 ADD MLOAD PUSH1 0x40 MLOAD PUSH2 0x7B5 SWAP2 SWAP1 PUSH2 0x5721 JUMP JUMPDEST SWAP1 DUP2 MSTORE PUSH1 0x20 ADD PUSH1 0x40 MLOAD DUP1 SWAP2 SUB SWAP1 KECCAK256 DUP2 PUSH1 0x60 ADD MLOAD PUSH1 0x40 MLOAD PUSH2 0x7D5 SWAP2 SWAP1 PUSH2 0x5721 JUMP JUMPDEST SWAP1 DUP2 MSTORE PUSH1 0x20 ADD PUSH1 0x40 MLOAD DUP1 SWAP2 SUB SWAP1 KECCAK256 PUSH1 0x0 SWAP1 SLOAD SWAP1 PUSH2 0x100 EXP SWAP1 DIV PUSH1 0xFF AND SWAP3 POP POP POP PUSH2 0x97A JUMP JUMPDEST PUSH1 0x2 DUP1 DUP2 GT ISZERO PUSH2 0x80D JUMPI PUSH2 0x80C PUSH2 0x60DA JUMP JUMPDEST JUMPDEST DUP3 PUSH1 0x40 ADD MLOAD PUSH1 0x2 DUP2 GT ISZERO PUSH2 0x824 JUMPI PUSH2 0x823 PUSH2 0x60DA JUMP JUMPDEST JUMPDEST EQ DUP1 ISZERO PUSH2 0x859 JUMPI POP PUSH1 0x1 PUSH1 0x2 DUP2 GT ISZERO PUSH2 0x840 JUMPI PUSH2 0x83F PUSH2 0x60DA JUMP JUMPDEST JUMPDEST DUP2 PUSH1 0x40 ADD MLOAD PUSH1 0x2 DUP2 GT ISZERO PUSH2 0x857 JUMPI PUSH2 0x856 PUSH2 0x60DA JUMP JUMPDEST JUMPDEST EQ JUMPDEST ISZERO PUSH2 0x8B7 JUMPI PUSH1 0xCC DUP3 PUSH1 0x60 ADD MLOAD PUSH1 0x40 MLOAD PUSH2 0x872 SWAP2 SWAP1 PUSH2 0x5721 JUMP JUMPDEST SWAP1 DUP2 MSTORE PUSH1 0x20 ADD PUSH1 0x40 MLOAD DUP1 SWAP2 SUB SWAP1 KECCAK256 DUP2 PUSH1 0x0 ADD MLOAD PUSH1 0x40 MLOAD PUSH2 0x892 SWAP2 SWAP1 PUSH2 0x5721 JUMP JUMPDEST SWAP1 DUP2 MSTORE PUSH1 0x20 ADD PUSH1 0x40 MLOAD DUP1 SWAP2 SUB SWAP1 KECCAK256 PUSH1 0x0 SWAP1 SLOAD SWAP1 PUSH2 0x100 EXP SWAP1 DIV PUSH1 0xFF AND SWAP3 POP POP POP PUSH2 0x97A JUMP JUMPDEST PUSH1 0x2 DUP1 DUP2 GT ISZERO PUSH2 0x8CA JUMPI PUSH2 0x8C9 PUSH2 0x60DA JUMP JUMPDEST JUMPDEST DUP3 PUSH1 0x40 ADD MLOAD PUSH1 0x2 DUP2 GT ISZERO PUSH2 0x8E1 JUMPI PUSH2 0x8E0 PUSH2 0x60DA JUMP JUMPDEST JUMPDEST EQ DUP1 ISZERO PUSH2 0x915 JUMPI POP PUSH1 0x2 DUP1 DUP2 GT ISZERO PUSH2 0x8FC JUMPI PUSH2 0x8FB PUSH2 0x60DA JUMP JUMPDEST JUMPDEST DUP2 PUSH1 0x40 ADD MLOAD PUSH1 0x2 DUP2 GT ISZERO PUSH2 0x913 JUMPI PUSH2 0x912 PUSH2 0x60DA JUMP JUMPDEST JUMPDEST EQ JUMPDEST ISZERO PUSH2 0x973 JUMPI PUSH1 0xCC DUP3 PUSH1 0x60 ADD MLOAD PUSH1 0x40 MLOAD PUSH2 0x92E SWAP2 SWAP1 PUSH2 0x5721 JUMP JUMPDEST SWAP1 DUP2 MSTORE PUSH1 0x20 ADD PUSH1 0x40 MLOAD DUP1 SWAP2 SUB SWAP1 KECCAK256 DUP2 PUSH1 0x60 ADD MLOAD PUSH1 0x40 MLOAD PUSH2 0x94E SWAP2 SWAP1 PUSH2 0x5721 JUMP JUMPDEST SWAP1 DUP2 MSTORE PUSH1 0x20 ADD PUSH1 0x40 MLOAD DUP1 SWAP2 SUB SWAP1 KECCAK256 PUSH1 0x0 SWAP1 SLOAD SWAP1 PUSH2 0x100 EXP SWAP1 DIV PUSH1 0xFF AND SWAP3 POP POP POP PUSH2 0x97A JUMP JUMPDEST PUSH1 0x0 SWAP3 POP POP POP JUMPDEST SWAP3 SWAP2 POP POP JUMP JUMPDEST PUSH2 0x98A PUSH1 0x0 PUSH2 0x3365 JUMP JUMPDEST PUSH2 0x993 DUP4 PUSH2 0x33B8 JUMP JUMPDEST PUSH2 0x99C DUP3 PUSH2 0x33B8 JUMP JUMPDEST PUSH1 0x0 PUSH2 0x9A7 DUP5 PUSH2 0x2E8A JUMP JUMPDEST SWAP1 POP PUSH2 0x9B6 DUP2 PUSH1 0x20 ADD MLOAD PUSH2 0x31E5 JUMP JUMPDEST PUSH2 0x9BF DUP2 PUSH2 0x322D JUMP JUMPDEST PUSH1 0x0 PUSH2 0x9CA DUP5 PUSH2 0x2E8A JUMP JUMPDEST SWAP1 POP PUSH2 0x9D9 DUP2 PUSH1 0x20 ADD MLOAD PUSH2 0x31E5 JUMP JUMPDEST PUSH2 0x9E2 DUP2 PUSH2 0x322D JUMP JUMPDEST PUSH1 0x1 PUSH1 0x2 DUP2 GT ISZERO PUSH2 0x9F6 JUMPI PUSH2 0x9F5 PUSH2 0x60DA JUMP JUMPDEST JUMPDEST DUP3 PUSH1 0x40 ADD MLOAD PUSH1 0x2 DUP2 GT ISZERO PUSH2 0xA0D JUMPI PUSH2 0xA0C PUSH2 0x60DA JUMP JUMPDEST JUMPDEST EQ DUP1 ISZERO PUSH2 0xA42 JUMPI POP PUSH1 0x1 PUSH1 0x2 DUP2 GT ISZERO PUSH2 0xA29 JUMPI PUSH2 0xA28 PUSH2 0x60DA JUMP JUMPDEST JUMPDEST DUP2 PUSH1 0x40 ADD MLOAD PUSH1 0x2 DUP2 GT ISZERO PUSH2 0xA40 JUMPI PUSH2 0xA3F PUSH2 0x60DA JUMP JUMPDEST JUMPDEST EQ JUMPDEST PUSH2 0xA81 JUMPI PUSH1 0x40 MLOAD PUSH32 0x8C379A000000000000000000000000000000000000000000000000000000000 DUP2 MSTORE PUSH1 0x4 ADD PUSH2 0xA78 SWAP1 PUSH2 0x5B13 JUMP JUMPDEST PUSH1 0x40 MLOAD DUP1 SWAP2 SUB SWAP1 REVERT JUMPDEST PUSH2 0xA9C DUP2 PUSH1 0x0 ADD MLOAD DUP4 PUSH1 0x0 ADD MLOAD PUSH2 0x3281 SWAP1 SWAP2 SWAP1 PUSH4 0xFFFFFFFF AND JUMP JUMPDEST ISZERO PUSH2 0xADC JUMPI PUSH1 0x40 MLOAD PUSH32 0x8C379A000000000000000000000000000000000000000000000000000000000 DUP2 MSTORE PUSH1 0x4 ADD PUSH2 0xAD3 SWAP1 PUSH2 0x59B3 JUMP JUMPDEST PUSH1 0x40 MLOAD DUP1 SWAP2 SUB SWAP1 REVERT JUMPDEST DUP3 PUSH1 0xCC DUP4 PUSH1 0x0 ADD MLOAD PUSH1 0x40 MLOAD PUSH2 0xAF1 SWAP2 SWAP1 PUSH2 0x5721 JUMP JUMPDEST SWAP1 DUP2 MSTORE PUSH1 0x20 ADD PUSH1 0x40 MLOAD DUP1 SWAP2 SUB SWAP1 KECCAK256 DUP3 PUSH1 0x0 ADD MLOAD PUSH1 0x40 MLOAD PUSH2 0xB11 SWAP2 SWAP1 PUSH2 0x5721 JUMP JUMPDEST SWAP1 DUP2 MSTORE PUSH1 0x20 ADD PUSH1 0x40 MLOAD DUP1 SWAP2 SUB SWAP1 KECCAK256 PUSH1 0x0 PUSH2 0x100 EXP DUP2 SLOAD DUP2 PUSH1 0xFF MUL NOT AND SWAP1 DUP4 ISZERO ISZERO MUL OR SWAP1 SSTORE POP DUP4 PUSH20 0xFFFFFFFFFFFFFFFFFFFFFFFFFFFFFFFFFFFFFFFF AND DUP6 PUSH20 0xFFFFFFFFFFFFFFFFFFFFFFFFFFFFFFFFFFFFFFFF AND PUSH32 0x944DA3AADDCF895695572377F73F4B10C3822D1EA336C5D59F364F3E5E1B1218 DUP6 PUSH1 0x40 MLOAD PUSH2 0xB93 SWAP2 SWAP1 PUSH2 0x57E2 JUMP JUMPDEST PUSH1 0x40 MLOAD DUP1 SWAP2 SUB SWAP1 LOG3 POP POP POP POP POP JUMP JUMPDEST PUSH32 0x0 PUSH20 0xFFFFFFFFFFFFFFFFFFFFFFFFFFFFFFFFFFFFFFFF AND ADDRESS PUSH20 0xFFFFFFFFFFFFFFFFFFFFFFFFFFFFFFFFFFFFFFFF AND EQ ISZERO PUSH2 0xC31 JUMPI PUSH1 0x40 MLOAD PUSH32 0x8C379A000000000000000000000000000000000000000000000000000000000 DUP2 MSTORE PUSH1 0x4 ADD PUSH2 0xC28 SWAP1 PUSH2 0x59D3 JUMP JUMPDEST PUSH1 0x40 MLOAD DUP1 SWAP2 SUB SWAP1 REVERT JUMPDEST PUSH32 0x0 PUSH20 0xFFFFFFFFFFFFFFFFFFFFFFFFFFFFFFFFFFFFFFFF AND PUSH2 0xC70 PUSH2 0x342B JUMP JUMPDEST PUSH20 0xFFFFFFFFFFFFFFFFFFFFFFFFFFFFFFFFFFFFFFFF AND EQ PUSH2 0xCC6 JUMPI PUSH1 0x40 MLOAD PUSH32 0x8C379A000000000000000000000000000000000000000000000000000000000 DUP2 MSTORE PUSH1 0x4 ADD PUSH2 0xCBD SWAP1 PUSH2 0x5A93 JUMP JUMPDEST PUSH1 0x40 MLOAD DUP1 SWAP2 SUB SWAP1 REVERT JUMPDEST PUSH2 0xCCF DUP2 PUSH2 0x3482 JUMP JUMPDEST PUSH2 0xD28 DUP2 PUSH1 0x0 PUSH8 0xFFFFFFFFFFFFFFFF DUP2 GT ISZERO PUSH2 0xCEE JUMPI PUSH2 0xCED PUSH2 0x6167 JUMP JUMPDEST JUMPDEST PUSH1 0x40 MLOAD SWAP1 DUP1 DUP3 MSTORE DUP1 PUSH1 0x1F ADD PUSH1 0x1F NOT AND PUSH1 0x20 ADD DUP3 ADD PUSH1 0x40 MSTORE DUP1 ISZERO PUSH2 0xD20 JUMPI DUP2 PUSH1 0x20 ADD PUSH1 0x1 DUP3 MUL DUP1 CALLDATASIZE DUP4 CALLDATACOPY DUP1 DUP3 ADD SWAP2 POP POP SWAP1 POP JUMPDEST POP PUSH1 0x0 PUSH2 0x3501 JUMP JUMPDEST POP JUMP JUMPDEST PUSH1 0x0 DUP1 PUSH2 0xD37 DUP5 PUSH2 0x2E8A JUMP JUMPDEST SWAP1 POP PUSH2 0xD46 DUP2 PUSH1 0x20 ADD MLOAD PUSH2 0x31E5 JUMP JUMPDEST PUSH2 0xD4F DUP2 PUSH2 0x322D JUMP JUMPDEST PUSH1 0x0 PUSH2 0xD5A DUP5 PUSH2 0x2E8A JUMP JUMPDEST SWAP1 POP PUSH2 0xD69 DUP2 PUSH1 0x20 ADD MLOAD PUSH2 0x31E5 JUMP JUMPDEST PUSH2 0xD72 DUP2 PUSH2 0x322D JUMP JUMPDEST PUSH1 0x1 PUSH1 0x2 DUP2 GT ISZERO PUSH2 0xD86 JUMPI PUSH2 0xD85 PUSH2 0x60DA JUMP JUMPDEST JUMPDEST DUP3 PUSH1 0x40 ADD MLOAD PUSH1 0x2 DUP2 GT ISZERO PUSH2 0xD9D JUMPI PUSH2 0xD9C PUSH2 0x60DA JUMP JUMPDEST JUMPDEST EQ DUP1 ISZERO PUSH2 0xDD2 JUMPI POP PUSH1 0x1 PUSH1 0x2 DUP2 GT ISZERO PUSH2 0xDB9 JUMPI PUSH2 0xDB8 PUSH2 0x60DA JUMP JUMPDEST JUMPDEST DUP2 PUSH1 0x40 ADD MLOAD PUSH1 0x2 DUP2 GT ISZERO PUSH2 0xDD0 JUMPI PUSH2 0xDCF PUSH2 0x60DA JUMP JUMPDEST JUMPDEST EQ JUMPDEST ISZERO PUSH2 0xE1E JUMPI PUSH2 0xDF2 DUP2 PUSH1 0x60 ADD MLOAD DUP4 PUSH1 0x60 ADD MLOAD PUSH2 0x3281 SWAP1 SWAP2 SWAP1 PUSH4 0xFFFFFFFF AND JUMP JUMPDEST DUP1 ISZERO PUSH2 0xE15 JUMPI POP PUSH2 0xE14 DUP2 PUSH1 0x0 ADD MLOAD DUP4 PUSH1 0x0 ADD MLOAD PUSH2 0x3281 SWAP1 SWAP2 SWAP1 PUSH4 0xFFFFFFFF AND JUMP JUMPDEST JUMPDEST SWAP3 POP POP POP PUSH2 0xFBC JUMP JUMPDEST PUSH1 0x1 PUSH1 0x2 DUP2 GT ISZERO PUSH2 0xE32 JUMPI PUSH2 0xE31 PUSH2 0x60DA JUMP JUMPDEST JUMPDEST DUP3 PUSH1 0x40 ADD MLOAD PUSH1 0x2 DUP2 GT ISZERO PUSH2 0xE49 JUMPI PUSH2 0xE48 PUSH2 0x60DA JUMP JUMPDEST JUMPDEST EQ DUP1 ISZERO PUSH2 0xE7D JUMPI POP PUSH1 0x2 DUP1 DUP2 GT ISZERO PUSH2 0xE64 JUMPI PUSH2 0xE63 PUSH2 0x60DA JUMP JUMPDEST JUMPDEST DUP2 PUSH1 0x40 ADD MLOAD PUSH1 0x2 DUP2 GT ISZERO PUSH2 0xE7B JUMPI PUSH2 0xE7A PUSH2 0x60DA JUMP JUMPDEST JUMPDEST EQ JUMPDEST ISZERO PUSH2 0xEA6 JUMPI PUSH2 0xE9D DUP2 PUSH1 0x60 ADD MLOAD DUP4 PUSH1 0x0 ADD MLOAD PUSH2 0x3281 SWAP1 SWAP2 SWAP1 PUSH4 0xFFFFFFFF AND JUMP JUMPDEST SWAP3 POP POP POP PUSH2 0xFBC JUMP JUMPDEST PUSH1 0x2 DUP1 DUP2 GT ISZERO PUSH2 0xEB9 JUMPI PUSH2 0xEB8 PUSH2 0x60DA JUMP JUMPDEST JUMPDEST DUP3 PUSH1 0x40 ADD MLOAD PUSH1 0x2 DUP2 GT ISZERO PUSH2 0xED0 JUMPI PUSH2 0xECF PUSH2 0x60DA JUMP JUMPDEST JUMPDEST EQ DUP1 ISZERO PUSH2 0xF05 JUMPI POP PUSH1 0x1 PUSH1 0x2 DUP2 GT ISZERO PUSH2 0xEEC JUMPI PUSH2 0xEEB PUSH2 0x60DA JUMP JUMPDEST JUMPDEST DUP2 PUSH1 0x40 ADD MLOAD PUSH1 0x2 DUP2 GT ISZERO PUSH2 0xF03 JUMPI PUSH2 0xF02 PUSH2 0x60DA JUMP JUMPDEST JUMPDEST EQ JUMPDEST ISZERO PUSH2 0xF2E JUMPI PUSH2 0xF25 DUP3 PUSH1 0x60 ADD MLOAD DUP3 PUSH1 0x0 ADD MLOAD PUSH2 0x3281 SWAP1 SWAP2 SWAP1 PUSH4 0xFFFFFFFF AND JUMP JUMPDEST SWAP3 POP POP POP PUSH2 0xFBC JUMP JUMPDEST PUSH1 0x2 DUP1 DUP2 GT ISZERO PUSH2 0xF41 JUMPI PUSH2 0xF40 PUSH2 0x60DA JUMP JUMPDEST JUMPDEST DUP3 PUSH1 0x40 ADD MLOAD PUSH1 0x2 DUP2 GT ISZERO PUSH2 0xF58 JUMPI PUSH2 0xF57 PUSH2 0x60DA JUMP JUMPDEST JUMPDEST EQ DUP1 ISZERO PUSH2 0xF8C JUMPI POP PUSH1 0x2 DUP1 DUP2 GT ISZERO PUSH2 0xF73 JUMPI PUSH2 0xF72 PUSH2 0x60DA JUMP JUMPDEST JUMPDEST DUP2 PUSH1 0x40 ADD MLOAD PUSH1 0x2 DUP2 GT ISZERO PUSH2 0xF8A JUMPI PUSH2 0xF89 PUSH2 0x60DA JUMP JUMPDEST JUMPDEST EQ JUMPDEST ISZERO PUSH2 0xFB5 JUMPI PUSH2 0xFAC DUP2 PUSH1 0x60 ADD MLOAD DUP4 PUSH1 0x60 ADD MLOAD PUSH2 0x3281 SWAP1 SWAP2 SWAP1 PUSH4 0xFFFFFFFF AND JUMP JUMPDEST SWAP3 POP POP POP PUSH2 0xFBC JUMP JUMPDEST PUSH1 0x0 SWAP3 POP POP POP JUMPDEST SWAP3 SWAP2 POP POP JUMP JUMPDEST PUSH2 0xFCA PUSH2 0x36D2 JUMP JUMPDEST PUSH2 0xFD4 PUSH1 0x0 PUSH2 0x3365 JUMP JUMPDEST DUP3 MLOAD DUP5 MLOAD EQ DUP1 ISZERO PUSH2 0xFE6 JUMPI POP DUP2 MLOAD DUP4 MLOAD EQ JUMPDEST DUP1 ISZERO PUSH2 0xFF3 JUMPI POP DUP1 MLOAD DUP3 MLOAD EQ JUMPDEST PUSH2 0x1032 JUMPI PUSH1 0x40 MLOAD PUSH32 0x8C379A000000000000000000000000000000000000000000000000000000000 DUP2 MSTORE PUSH1 0x4 ADD PUSH2 0x1029 SWAP1 PUSH2 0x5A13 JUMP JUMPDEST PUSH1 0x40 MLOAD DUP1 SWAP2 SUB SWAP1 REVERT JUMPDEST PUSH1 0x0 JUMPDEST DUP5 MLOAD DUP2 LT ISZERO PUSH2 0x10C5 JUMPI PUSH2 0x10B2 DUP6 DUP3 DUP2 MLOAD DUP2 LT PUSH2 0x1054 JUMPI PUSH2 0x1053 PUSH2 0x6138 JUMP JUMPDEST JUMPDEST PUSH1 0x20 MUL PUSH1 0x20 ADD ADD MLOAD DUP6 DUP4 DUP2 MLOAD DUP2 LT PUSH2 0x106F JUMPI PUSH2 0x106E PUSH2 0x6138 JUMP JUMPDEST JUMPDEST PUSH1 0x20 MUL PUSH1 0x20 ADD ADD MLOAD DUP6 DUP5 DUP2 MLOAD DUP2 LT PUSH2 0x108A JUMPI PUSH2 0x1089 PUSH2 0x6138 JUMP JUMPDEST JUMPDEST PUSH1 0x20 MUL PUSH1 0x20 ADD ADD MLOAD DUP6 DUP6 DUP2 MLOAD DUP2 LT PUSH2 0x10A5 JUMPI PUSH2 0x10A4 PUSH2 0x6138 JUMP JUMPDEST JUMPDEST PUSH1 0x20 MUL PUSH1 0x20 ADD ADD MLOAD PUSH2 0x3723 JUMP JUMPDEST DUP1 DUP1 PUSH2 0x10BD SWAP1 PUSH2 0x6062 JUMP JUMPDEST SWAP2 POP POP PUSH2 0x1035 JUMP JUMPDEST POP PUSH2 0x10CE PUSH2 0x3866 JUMP JUMPDEST PUSH20 0xFFFFFFFFFFFFFFFFFFFFFFFFFFFFFFFFFFFFFFFF AND PUSH32 0x697B1CA999DC9FA10F6B5121C3681B6E562901370EEBDABE6A41F253731EE2B9 DUP6 PUSH1 0x40 MLOAD PUSH2 0x1113 SWAP2 SWAP1 PUSH2 0x577C JUMP JUMPDEST PUSH1 0x40 MLOAD DUP1 SWAP2 SUB SWAP1 LOG2 POP POP POP POP JUMP JUMPDEST PUSH1 0x0 DUP1 PUSH2 0x112D DUP6 PUSH2 0x2E8A JUMP JUMPDEST SWAP1 POP PUSH2 0x113C DUP2 PUSH1 0x20 ADD MLOAD PUSH2 0x31E5 JUMP JUMPDEST PUSH2 0x1145 DUP2 PUSH2 0x322D JUMP JUMPDEST PUSH2 0x114E DUP5 PUSH2 0x33B8 JUMP JUMPDEST PUSH2 0x1157 DUP4 PUSH2 0x386E JUMP JUMPDEST PUSH1 0x0 PUSH2 0x1167 DUP3 PUSH1 0x40 ADD MLOAD DUP7 PUSH2 0x38F6 JUMP JUMPDEST SWAP1 POP PUSH1 0x0 PUSH1 0xCA PUSH1 0x0 DUP5 PUSH1 0x40 ADD MLOAD PUSH1 0x2 DUP2 GT ISZERO PUSH2 0x1186 JUMPI PUSH2 0x1185 PUSH2 0x60DA JUMP JUMPDEST JUMPDEST PUSH1 0x2 DUP2 GT ISZERO PUSH2 0x1198 JUMPI PUSH2 0x1197 PUSH2 0x60DA JUMP JUMPDEST JUMPDEST DUP2 MSTORE PUSH1 0x20 ADD SWAP1 DUP2 MSTORE PUSH1 0x20 ADD PUSH1 0x0 KECCAK256 DUP3 DUP2 SLOAD DUP2 LT PUSH2 0x11B8 JUMPI PUSH2 0x11B7 PUSH2 0x6138 JUMP JUMPDEST JUMPDEST SWAP1 PUSH1 0x0 MSTORE PUSH1 0x20 PUSH1 0x0 KECCAK256 SWAP1 PUSH1 0x3 MUL ADD PUSH1 0x2 ADD PUSH1 0x0 DUP7 PUSH28 0xFFFFFFFFFFFFFFFFFFFFFFFFFFFFFFFFFFFFFFFFFFFFFFFFFFFFFFFF NOT AND PUSH28 0xFFFFFFFFFFFFFFFFFFFFFFFFFFFFFFFFFFFFFFFFFFFFFFFFFFFFFFFF NOT AND DUP2 MSTORE PUSH1 0x20 ADD SWAP1 DUP2 MSTORE PUSH1 0x20 ADD PUSH1 0x0 KECCAK256 SLOAD GT SWAP3 POP POP POP SWAP4 SWAP3 POP POP POP JUMP JUMPDEST PUSH32 0x0 PUSH20 0xFFFFFFFFFFFFFFFFFFFFFFFFFFFFFFFFFFFFFFFF AND ADDRESS PUSH20 0xFFFFFFFFFFFFFFFFFFFFFFFFFFFFFFFFFFFFFFFF AND EQ ISZERO PUSH2 0x12B4 JUMPI PUSH1 0x40 MLOAD PUSH32 0x8C379A000000000000000000000000000000000000000000000000000000000 DUP2 MSTORE PUSH1 0x4 ADD PUSH2 0x12AB SWAP1 PUSH2 0x59D3 JUMP JUMPDEST PUSH1 0x40 MLOAD DUP1 SWAP2 SUB SWAP1 REVERT JUMPDEST PUSH32 0x0 PUSH20 0xFFFFFFFFFFFFFFFFFFFFFFFFFFFFFFFFFFFFFFFF AND PUSH2 0x12F3 PUSH2 0x342B JUMP JUMPDEST PUSH20 0xFFFFFFFFFFFFFFFFFFFFFFFFFFFFFFFFFFFFFFFF AND EQ PUSH2 0x1349 JUMPI PUSH1 0x40 MLOAD PUSH32 0x8C379A000000000000000000000000000000000000000000000000000000000 DUP2 MSTORE PUSH1 0x4 ADD PUSH2 0x1340 SWAP1 PUSH2 0x5A93 JUMP JUMPDEST PUSH1 0x40 MLOAD DUP1 SWAP2 SUB SWAP1 REVERT JUMPDEST PUSH2 0x1352 DUP3 PUSH2 0x3482 JUMP JUMPDEST PUSH2 0x135E DUP3 DUP3 PUSH1 0x1 PUSH2 0x3501 JUMP JUMPDEST POP POP JUMP JUMPDEST PUSH2 0x136C PUSH1 0x0 PUSH2 0x3365 JUMP JUMPDEST PUSH1 0xCE PUSH1 0x1 SWAP1 SLOAD SWAP1 PUSH2 0x100 EXP SWAP1 DIV PUSH1 0xFF AND ISZERO ISZERO DUP2 ISZERO ISZERO EQ ISZERO PUSH2 0x13C2 JUMPI PUSH1 0x40 MLOAD PUSH32 0x8C379A000000000000000000000000000000000000000000000000000000000 DUP2 MSTORE PUSH1 0x4 ADD PUSH2 0x13B9 SWAP1 PUSH2 0x5913 JUMP JUMPDEST PUSH1 0x40 MLOAD DUP1 SWAP2 SUB SWAP1 REVERT JUMPDEST DUP1 PUSH1 0xCE PUSH1 0x1 PUSH2 0x100 EXP DUP2 SLOAD DUP2 PUSH1 0xFF MUL NOT AND SWAP1 DUP4 ISZERO ISZERO MUL OR SWAP1 SSTORE POP PUSH2 0x13E4 PUSH2 0x3866 JUMP JUMPDEST PUSH20 0xFFFFFFFFFFFFFFFFFFFFFFFFFFFFFFFFFFFFFFFF AND PUSH32 0x7D50BB020F29CC2D35F133362054F432834DDC2CFC3F6DC0F9E9DEA5BF8FFE6B PUSH1 0xCE PUSH1 0x1 SWAP1 SLOAD SWAP1 PUSH2 0x100 EXP SWAP1 DIV PUSH1 0xFF AND PUSH1 0x40 MLOAD PUSH2 0x1438 SWAP2 SWAP1 PUSH2 0x57E2 JUMP JUMPDEST PUSH1 0x40 MLOAD DUP1 SWAP2 SUB SWAP1 LOG2 POP JUMP JUMPDEST PUSH2 0x144B PUSH2 0x3866 JUMP JUMPDEST PUSH20 0xFFFFFFFFFFFFFFFFFFFFFFFFFFFFFFFFFFFFFFFF AND PUSH2 0x1469 PUSH2 0x15B4 JUMP JUMPDEST PUSH20 0xFFFFFFFFFFFFFFFFFFFFFFFFFFFFFFFFFFFFFFFF AND EQ PUSH2 0x14BF JUMPI PUSH1 0x40 MLOAD PUSH32 0x8C379A000000000000000000000000000000000000000000000000000000000 DUP2 MSTORE PUSH1 0x4 ADD PUSH2 0x14B6 SWAP1 PUSH2 0x5BB3 JUMP JUMPDEST PUSH1 0x40 MLOAD DUP1 SWAP2 SUB SWAP1 REVERT JUMPDEST PUSH2 0x14C9 PUSH1 0x0 PUSH2 0x39C9 JUMP JUMPDEST JUMP JUMPDEST PUSH1 0x0 PUSH1 0x1 SWAP1 SLOAD SWAP1 PUSH2 0x100 EXP SWAP1 DIV PUSH1 0xFF AND DUP1 PUSH2 0x14F1 JUMPI POP PUSH1 0x0 DUP1 SLOAD SWAP1 PUSH2 0x100 EXP SWAP1 DIV PUSH1 0xFF AND ISZERO JUMPDEST PUSH2 0x1530 JUMPI PUSH1 0x40 MLOAD PUSH32 0x8C379A000000000000000000000000000000000000000000000000000000000 DUP2 MSTORE PUSH1 0x4 ADD PUSH2 0x1527 SWAP1 PUSH2 0x5B53 JUMP JUMPDEST PUSH1 0x40 MLOAD DUP1 SWAP2 SUB SWAP1 REVERT JUMPDEST PUSH1 0x0 DUP1 PUSH1 0x1 SWAP1 SLOAD SWAP1 PUSH2 0x100 EXP SWAP1 DIV PUSH1 0xFF AND ISZERO SWAP1 POP DUP1 ISZERO PUSH2 0x1580 JUMPI PUSH1 0x1 PUSH1 0x0 PUSH1 0x1 PUSH2 0x100 EXP DUP2 SLOAD DUP2 PUSH1 0xFF MUL NOT AND SWAP1 DUP4 ISZERO ISZERO MUL OR SWAP1 SSTORE POP PUSH1 0x1 PUSH1 0x0 DUP1 PUSH2 0x100 EXP DUP2 SLOAD DUP2 PUSH1 0xFF MUL NOT AND SWAP1 DUP4 ISZERO ISZERO MUL OR SWAP1 SSTORE POP JUMPDEST PUSH2 0x1588 PUSH2 0x3A8F JUMP JUMPDEST PUSH2 0x1590 PUSH2 0x3B78 JUMP JUMPDEST DUP1 ISZERO PUSH2 0x15B1 JUMPI PUSH1 0x0 DUP1 PUSH1 0x1 PUSH2 0x100 EXP DUP2 SLOAD DUP2 PUSH1 0xFF MUL NOT AND SWAP1 DUP4 ISZERO ISZERO MUL OR SWAP1 SSTORE POP JUMPDEST POP JUMP JUMPDEST PUSH1 0x0 PUSH1 0x33 PUSH1 0x0 SWAP1 SLOAD SWAP1 PUSH2 0x100 EXP SWAP1 DIV PUSH20 0xFFFFFFFFFFFFFFFFFFFFFFFFFFFFFFFFFFFFFFFF AND SWAP1 POP SWAP1 JUMP JUMPDEST PUSH1 0x0 DUP1 PUSH2 0x15EA DUP4 PUSH2 0x2E8A JUMP JUMPDEST SWAP1 POP PUSH2 0x15F9 DUP2 PUSH1 0x20 ADD MLOAD PUSH2 0x31E5 JUMP JUMPDEST PUSH2 0x1602 DUP2 PUSH2 0x322D JUMP JUMPDEST PUSH1 0x1 SWAP2 POP POP SWAP2 SWAP1 POP JUMP JUMPDEST PUSH2 0x1616 PUSH1 0x0 PUSH2 0x3365 JUMP JUMPDEST PUSH2 0x161F DUP3 PUSH2 0x33B8 JUMP JUMPDEST PUSH2 0x1628 DUP2 PUSH2 0x386E JUMP JUMPDEST PUSH1 0x0 PUSH1 0xCA PUSH1 0x0 DUP6 PUSH1 0x2 DUP2 GT ISZERO PUSH2 0x1641 JUMPI PUSH2 0x1640 PUSH2 0x60DA JUMP JUMPDEST JUMPDEST PUSH1 0x2 DUP2 GT ISZERO PUSH2 0x1653 JUMPI PUSH2 0x1652 PUSH2 0x60DA JUMP JUMPDEST JUMPDEST DUP2 MSTORE PUSH1 0x20 ADD SWAP1 DUP2 MSTORE PUSH1 0x20 ADD PUSH1 0x0 KECCAK256 PUSH2 0x166B DUP6 DUP6 PUSH2 0x38F6 JUMP JUMPDEST DUP2 SLOAD DUP2 LT PUSH2 0x167C JUMPI PUSH2 0x167B PUSH2 0x6138 JUMP JUMPDEST JUMPDEST SWAP1 PUSH1 0x0 MSTORE PUSH1 0x20 PUSH1 0x0 KECCAK256 SWAP1 PUSH1 0x3 MUL ADD SWAP1 POP PUSH1 0x0 DUP2 PUSH1 0x2 ADD PUSH1 0x0 DUP5 PUSH28 0xFFFFFFFFFFFFFFFFFFFFFFFFFFFFFFFFFFFFFFFFFFFFFFFFFFFFFFFF NOT AND PUSH28 0xFFFFFFFFFFFFFFFFFFFFFFFFFFFFFFFFFFFFFFFFFFFFFFFFFFFFFFFF NOT AND DUP2 MSTORE PUSH1 0x20 ADD SWAP1 DUP2 MSTORE PUSH1 0x20 ADD PUSH1 0x0 KECCAK256 SLOAD SWAP1 POP PUSH1 0x0 DUP2 GT PUSH2 0x1727 JUMPI PUSH1 0x40 MLOAD PUSH32 0x8C379A000000000000000000000000000000000000000000000000000000000 DUP2 MSTORE PUSH1 0x4 ADD PUSH2 0x171E SWAP1 PUSH2 0x5AF3 JUMP JUMPDEST PUSH1 0x40 MLOAD DUP1 SWAP2 SUB SWAP1 REVERT JUMPDEST PUSH1 0x0 PUSH1 0xE0 SHL DUP3 PUSH1 0x1 ADD PUSH1 0x1 DUP4 PUSH2 0x173D SWAP2 SWAP1 PUSH2 0x5ECB JUMP JUMPDEST DUP2 SLOAD DUP2 LT PUSH2 0x174E JUMPI PUSH2 0x174D PUSH2 0x6138 JUMP JUMPDEST JUMPDEST SWAP1 PUSH1 0x0 MSTORE PUSH1 0x20 PUSH1 0x0 KECCAK256 SWAP1 PUSH1 0x8 SWAP2 DUP3 DUP3 DIV ADD SWAP2 SWAP1 MOD PUSH1 0x4 MUL PUSH2 0x100 EXP DUP2 SLOAD DUP2 PUSH4 0xFFFFFFFF MUL NOT AND SWAP1 DUP4 PUSH1 0xE0 SHR MUL OR SWAP1 SSTORE POP DUP2 PUSH1 0x2 ADD PUSH1 0x0 DUP5 PUSH28 0xFFFFFFFFFFFFFFFFFFFFFFFFFFFFFFFFFFFFFFFFFFFFFFFFFFFFFFFF NOT AND PUSH28 0xFFFFFFFFFFFFFFFFFFFFFFFFFFFFFFFFFFFFFFFFFFFFFFFFFFFFFFFF NOT AND DUP2 MSTORE PUSH1 0x20 ADD SWAP1 DUP2 MSTORE PUSH1 0x20 ADD PUSH1 0x0 KECCAK256 PUSH1 0x0 SWAP1 SSTORE DUP5 PUSH1 0x2 DUP2 GT ISZERO PUSH2 0x17E8 JUMPI PUSH2 0x17E7 PUSH2 0x60DA JUMP JUMPDEST JUMPDEST PUSH2 0x17F0 PUSH2 0x3866 JUMP JUMPDEST PUSH20 0xFFFFFFFFFFFFFFFFFFFFFFFFFFFFFFFFFFFFFFFF AND PUSH32 0xFD7321E06212C7E20CB40FFE695D160CB669329E947BBCAB975E41E985153417 DUP7 DUP7 PUSH1 0x40 MLOAD PUSH2 0x1837 SWAP3 SWAP2 SWAP1 PUSH2 0x5753 JUMP JUMPDEST PUSH1 0x40 MLOAD DUP1 SWAP2 SUB SWAP1 LOG3 POP POP POP POP POP JUMP JUMPDEST PUSH2 0x1850 PUSH1 0x0 PUSH2 0x3365 JUMP JUMPDEST PUSH2 0x1858 PUSH2 0x227E JUMP JUMPDEST ISZERO ISZERO DUP2 ISZERO ISZERO EQ ISZERO PUSH2 0x189E JUMPI PUSH1 0x40 MLOAD PUSH32 0x8C379A000000000000000000000000000000000000000000000000000000000 DUP2 MSTORE PUSH1 0x4 ADD PUSH2 0x1895 SWAP1 PUSH2 0x5913 JUMP JUMPDEST PUSH1 0x40 MLOAD DUP1 SWAP2 SUB SWAP1 REVERT JUMPDEST DUP1 PUSH1 0xCE PUSH1 0x0 PUSH2 0x100 EXP DUP2 SLOAD DUP2 PUSH1 0xFF MUL NOT AND SWAP1 DUP4 ISZERO ISZERO MUL OR SWAP1 SSTORE POP PUSH2 0x18C0 PUSH2 0x3866 JUMP JUMPDEST PUSH20 0xFFFFFFFFFFFFFFFFFFFFFFFFFFFFFFFFFFFFFFFF AND PUSH32 0x548B8E30AF324DB539FEA4A4816919B2D27AB094DF8638F0E3C16C7271D79860 DUP3 PUSH1 0x40 MLOAD PUSH2 0x1905 SWAP2 SWAP1 PUSH2 0x57E2 JUMP JUMPDEST PUSH1 0x40 MLOAD DUP1 SWAP2 SUB SWAP1 LOG2 POP JUMP JUMPDEST PUSH1 0x60 PUSH2 0x191B DUP3 PUSH2 0x33B8 JUMP JUMPDEST PUSH1 0xCA PUSH1 0x0 DUP5 PUSH1 0x2 DUP2 GT ISZERO PUSH2 0x1932 JUMPI PUSH2 0x1931 PUSH2 0x60DA JUMP JUMPDEST JUMPDEST PUSH1 0x2 DUP2 GT ISZERO PUSH2 0x1944 JUMPI PUSH2 0x1943 PUSH2 0x60DA JUMP JUMPDEST JUMPDEST DUP2 MSTORE PUSH1 0x20 ADD SWAP1 DUP2 MSTORE PUSH1 0x20 ADD PUSH1 0x0 KECCAK256 PUSH2 0x195C DUP5 DUP5 PUSH2 0x38F6 JUMP JUMPDEST DUP2 SLOAD DUP2 LT PUSH2 0x196D JUMPI PUSH2 0x196C PUSH2 0x6138 JUMP JUMPDEST JUMPDEST SWAP1 PUSH1 0x0 MSTORE PUSH1 0x20 PUSH1 0x0 KECCAK256 SWAP1 PUSH1 0x3 MUL ADD PUSH1 0x1 ADD DUP1 SLOAD DUP1 PUSH1 0x20 MUL PUSH1 0x20 ADD PUSH1 0x40 MLOAD SWAP1 DUP2 ADD PUSH1 0x40 MSTORE DUP1 SWAP3 SWAP2 SWAP1 DUP2 DUP2 MSTORE PUSH1 0x20 ADD DUP3 DUP1 SLOAD DUP1 ISZERO PUSH2 0x1A0A JUMPI PUSH1 0x20 MUL DUP3 ADD SWAP2 SWAP1 PUSH1 0x0 MSTORE PUSH1 0x20 PUSH1 0x0 KECCAK256 SWAP1 PUSH1 0x0 SWAP1 JUMPDEST DUP3 DUP3 SWAP1 SLOAD SWAP1 PUSH2 0x100 EXP SWAP1 DIV PUSH1 0xE0 SHL PUSH28 0xFFFFFFFFFFFFFFFFFFFFFFFFFFFFFFFFFFFFFFFFFFFFFFFFFFFFFFFF NOT AND DUP2 MSTORE PUSH1 0x20 ADD SWAP1 PUSH1 0x4 ADD SWAP1 PUSH1 0x20 DUP3 PUSH1 0x3 ADD DIV SWAP3 DUP4 ADD SWAP3 PUSH1 0x1 SUB DUP3 MUL SWAP2 POP DUP1 DUP5 GT PUSH2 0x19B7 JUMPI SWAP1 POP JUMPDEST POP POP POP POP POP SWAP1 POP SWAP3 SWAP2 POP POP JUMP JUMPDEST PUSH2 0x1A21 PUSH1 0x0 PUSH2 0x3365 JUMP JUMPDEST PUSH1 0x0 JUMPDEST DUP2 MLOAD DUP2 LT ISZERO PUSH2 0x1AF0 JUMPI PUSH1 0x0 DUP3 DUP3 DUP2 MLOAD DUP2 LT PUSH2 0x1A42 JUMPI PUSH2 0x1A41 PUSH2 0x6138 JUMP JUMPDEST JUMPDEST PUSH1 0x20 MUL PUSH1 0x20 ADD ADD MLOAD MLOAD EQ ISZERO PUSH2 0x1A8C JUMPI PUSH1 0x40 MLOAD PUSH32 0x8C379A000000000000000000000000000000000000000000000000000000000 DUP2 MSTORE PUSH1 0x4 ADD PUSH2 0x1A83 SWAP1 PUSH2 0x5AB3 JUMP JUMPDEST PUSH1 0x40 MLOAD DUP1 SWAP2 SUB SWAP1 REVERT JUMPDEST PUSH1 0x1 PUSH1 0xCD DUP4 DUP4 DUP2 MLOAD DUP2 LT PUSH2 0x1AA3 JUMPI PUSH2 0x1AA2 PUSH2 0x6138 JUMP JUMPDEST JUMPDEST PUSH1 0x20 MUL PUSH1 0x20 ADD ADD MLOAD PUSH1 0x40 MLOAD PUSH2 0x1AB8 SWAP2 SWAP1 PUSH2 0x5721 JUMP JUMPDEST SWAP1 DUP2 MSTORE PUSH1 0x20 ADD PUSH1 0x40 MLOAD DUP1 SWAP2 SUB SWAP1 KECCAK256 PUSH1 0x0 PUSH2 0x100 EXP DUP2 SLOAD DUP2 PUSH1 0xFF MUL NOT AND SWAP1 DUP4 ISZERO ISZERO MUL OR SWAP1 SSTORE POP DUP1 DUP1 PUSH2 0x1AE8 SWAP1 PUSH2 0x6062 JUMP JUMPDEST SWAP2 POP POP PUSH2 0x1A24 JUMP JUMPDEST POP PUSH2 0x1AF9 PUSH2 0x3866 JUMP JUMPDEST PUSH20 0xFFFFFFFFFFFFFFFFFFFFFFFFFFFFFFFFFFFFFFFF AND PUSH32 0x199521935C6599C790890FBD51923A1D92FB29F6691B18E985938FAB4070E8EC DUP3 PUSH1 0x40 MLOAD PUSH2 0x1B3E SWAP2 SWAP1 PUSH2 0x57C0 JUMP JUMPDEST PUSH1 0x40 MLOAD DUP1 SWAP2 SUB SWAP1 LOG2 POP JUMP JUMPDEST PUSH1 0x0 DUP1 PUSH2 0x1B55 DUP6 PUSH2 0x3C61 JUMP JUMPDEST SWAP2 POP SWAP2 POP PUSH2 0x1B62 DUP2 PUSH2 0x322D JUMP JUMPDEST PUSH2 0x1B6C DUP3 DUP3 PUSH2 0x3D31 JUMP JUMPDEST DUP1 PUSH2 0x1B9F JUMPI POP PUSH1 0x0 PUSH1 0x2 DUP2 GT ISZERO PUSH2 0x1B86 JUMPI PUSH2 0x1B85 PUSH2 0x60DA JUMP JUMPDEST JUMPDEST DUP2 PUSH1 0x40 ADD MLOAD PUSH1 0x2 DUP2 GT ISZERO PUSH2 0x1B9D JUMPI PUSH2 0x1B9C PUSH2 0x60DA JUMP JUMPDEST JUMPDEST EQ JUMPDEST PUSH2 0x1BDE JUMPI PUSH1 0x40 MLOAD PUSH32 0x8C379A000000000000000000000000000000000000000000000000000000000 DUP2 MSTORE PUSH1 0x4 ADD PUSH2 0x1BD5 SWAP1 PUSH2 0x5C73 JUMP JUMPDEST PUSH1 0x40 MLOAD DUP1 SWAP2 SUB SWAP1 REVERT JUMPDEST PUSH1 0x2 DUP1 DUP2 GT ISZERO PUSH2 0x1BF1 JUMPI PUSH2 0x1BF0 PUSH2 0x60DA JUMP JUMPDEST JUMPDEST DUP2 PUSH1 0x40 ADD MLOAD PUSH1 0x2 DUP2 GT ISZERO PUSH2 0x1C08 JUMPI PUSH2 0x1C07 PUSH2 0x60DA JUMP JUMPDEST JUMPDEST EQ ISZERO PUSH2 0x1C49 JUMPI PUSH1 0x40 MLOAD PUSH32 0x8C379A000000000000000000000000000000000000000000000000000000000 DUP2 MSTORE PUSH1 0x4 ADD PUSH2 0x1C40 SWAP1 PUSH2 0x5CD3 JUMP JUMPDEST PUSH1 0x40 MLOAD DUP1 SWAP2 SUB SWAP1 REVERT JUMPDEST PUSH1 0x0 PUSH1 0x2 DUP2 GT ISZERO PUSH2 0x1C5D JUMPI PUSH2 0x1C5C PUSH2 0x60DA JUMP JUMPDEST JUMPDEST DUP2 PUSH1 0x40 ADD MLOAD PUSH1 0x2 DUP2 GT ISZERO PUSH2 0x1C74 JUMPI PUSH2 0x1C73 PUSH2 0x60DA JUMP JUMPDEST JUMPDEST EQ ISZERO PUSH2 0x1DC1 JUMPI DUP3 ISZERO PUSH2 0x1D20 JUMPI DUP4 PUSH1 0x1 DUP2 GT ISZERO PUSH2 0x1C93 JUMPI PUSH2 0x1C92 PUSH2 0x60DA JUMP JUMPDEST JUMPDEST DUP3 PUSH1 0x80 ADD MLOAD PUSH1 0x1 DUP2 GT ISZERO PUSH2 0x1CAA JUMPI PUSH2 0x1CA9 PUSH2 0x60DA JUMP JUMPDEST JUMPDEST EQ ISZERO PUSH2 0x1CEB JUMPI PUSH1 0x40 MLOAD PUSH32 0x8C379A000000000000000000000000000000000000000000000000000000000 DUP2 MSTORE PUSH1 0x4 ADD PUSH2 0x1CE2 SWAP1 PUSH2 0x5933 JUMP JUMPDEST PUSH1 0x40 MLOAD DUP1 SWAP2 SUB SWAP1 REVERT JUMPDEST DUP4 DUP3 PUSH1 0x80 ADD SWAP1 PUSH1 0x1 DUP2 GT ISZERO PUSH2 0x1D03 JUMPI PUSH2 0x1D02 PUSH2 0x60DA JUMP JUMPDEST JUMPDEST SWAP1 DUP2 PUSH1 0x1 DUP2 GT ISZERO PUSH2 0x1D17 JUMPI PUSH2 0x1D16 PUSH2 0x60DA JUMP JUMPDEST JUMPDEST DUP2 MSTORE POP POP PUSH2 0x1DBC JUMP JUMPDEST DUP4 PUSH1 0x1 DUP2 GT ISZERO PUSH2 0x1D33 JUMPI PUSH2 0x1D32 PUSH2 0x60DA JUMP JUMPDEST JUMPDEST DUP3 PUSH1 0xA0 ADD MLOAD PUSH1 0x1 DUP2 GT ISZERO PUSH2 0x1D4A JUMPI PUSH2 0x1D49 PUSH2 0x60DA JUMP JUMPDEST JUMPDEST EQ ISZERO PUSH2 0x1D8B JUMPI PUSH1 0x40 MLOAD PUSH32 0x8C379A000000000000000000000000000000000000000000000000000000000 DUP2 MSTORE PUSH1 0x4 ADD PUSH2 0x1D82 SWAP1 PUSH2 0x59F3 JUMP JUMPDEST PUSH1 0x40 MLOAD DUP1 SWAP2 SUB SWAP1 REVERT JUMPDEST DUP4 DUP3 PUSH1 0xA0 ADD SWAP1 PUSH1 0x1 DUP2 GT ISZERO PUSH2 0x1DA3 JUMPI PUSH2 0x1DA2 PUSH2 0x60DA JUMP JUMPDEST JUMPDEST SWAP1 DUP2 PUSH1 0x1 DUP2 GT ISZERO PUSH2 0x1DB7 JUMPI PUSH2 0x1DB6 PUSH2 0x60DA JUMP JUMPDEST JUMPDEST DUP2 MSTORE POP POP JUMPDEST PUSH2 0x1E8F JUMP JUMPDEST PUSH1 0x1 PUSH1 0x2 DUP2 GT ISZERO PUSH2 0x1DD5 JUMPI PUSH2 0x1DD4 PUSH2 0x60DA JUMP JUMPDEST JUMPDEST DUP2 PUSH1 0x40 ADD MLOAD PUSH1 0x2 DUP2 GT ISZERO PUSH2 0x1DEC JUMPI PUSH2 0x1DEB PUSH2 0x60DA JUMP JUMPDEST JUMPDEST EQ ISZERO PUSH2 0x1E8E JUMPI DUP4 PUSH1 0x1 DUP2 GT ISZERO PUSH2 0x1E05 JUMPI PUSH2 0x1E04 PUSH2 0x60DA JUMP JUMPDEST JUMPDEST DUP3 PUSH1 0x80 ADD MLOAD PUSH1 0x1 DUP2 GT ISZERO PUSH2 0x1E1C JUMPI PUSH2 0x1E1B PUSH2 0x60DA JUMP JUMPDEST JUMPDEST EQ ISZERO PUSH2 0x1E5D JUMPI PUSH1 0x40 MLOAD PUSH32 0x8C379A000000000000000000000000000000000000000000000000000000000 DUP2 MSTORE PUSH1 0x4 ADD PUSH2 0x1E54 SWAP1 PUSH2 0x5933 JUMP JUMPDEST PUSH1 0x40 MLOAD DUP1 SWAP2 SUB SWAP1 REVERT JUMPDEST DUP4 DUP3 PUSH1 0x80 ADD SWAP1 PUSH1 0x1 DUP2 GT ISZERO PUSH2 0x1E75 JUMPI PUSH2 0x1E74 PUSH2 0x60DA JUMP JUMPDEST JUMPDEST SWAP1 DUP2 PUSH1 0x1 DUP2 GT ISZERO PUSH2 0x1E89 JUMPI PUSH2 0x1E88 PUSH2 0x60DA JUMP JUMPDEST JUMPDEST DUP2 MSTORE POP POP JUMPDEST JUMPDEST DUP2 PUSH1 0xC9 PUSH1 0x0 DUP8 PUSH20 0xFFFFFFFFFFFFFFFFFFFFFFFFFFFFFFFFFFFFFFFF AND PUSH20 0xFFFFFFFFFFFFFFFFFFFFFFFFFFFFFFFFFFFFFFFF AND DUP2 MSTORE PUSH1 0x20 ADD SWAP1 DUP2 MSTORE PUSH1 0x20 ADD PUSH1 0x0 KECCAK256 PUSH1 0x0 DUP3 ADD MLOAD DUP2 PUSH1 0x0 ADD SWAP1 DUP1 MLOAD SWAP1 PUSH1 0x20 ADD SWAP1 PUSH2 0x1EEB SWAP3 SWAP2 SWAP1 PUSH2 0x464D JUMP JUMPDEST POP PUSH1 0x20 DUP3 ADD MLOAD DUP2 PUSH1 0x1 ADD SWAP1 DUP1 MLOAD SWAP1 PUSH1 0x20 ADD SWAP1 PUSH2 0x1F08 SWAP3 SWAP2 SWAP1 PUSH2 0x464D JUMP JUMPDEST POP PUSH1 0x40 DUP3 ADD MLOAD DUP2 PUSH1 0x2 ADD PUSH1 0x0 PUSH2 0x100 EXP DUP2 SLOAD DUP2 PUSH1 0xFF MUL NOT AND SWAP1 DUP4 PUSH1 0x2 DUP2 GT ISZERO PUSH2 0x1F34 JUMPI PUSH2 0x1F33 PUSH2 0x60DA JUMP JUMPDEST JUMPDEST MUL OR SWAP1 SSTORE POP PUSH1 0x60 DUP3 ADD MLOAD DUP2 PUSH1 0x3 ADD SWAP1 DUP1 MLOAD SWAP1 PUSH1 0x20 ADD SWAP1 PUSH2 0x1F55 SWAP3 SWAP2 SWAP1 PUSH2 0x464D JUMP JUMPDEST POP PUSH1 0x80 DUP3 ADD MLOAD DUP2 PUSH1 0x4 ADD PUSH1 0x0 PUSH2 0x100 EXP DUP2 SLOAD DUP2 PUSH1 0xFF MUL NOT AND SWAP1 DUP4 PUSH1 0x1 DUP2 GT ISZERO PUSH2 0x1F81 JUMPI PUSH2 0x1F80 PUSH2 0x60DA JUMP JUMPDEST JUMPDEST MUL OR SWAP1 SSTORE POP PUSH1 0xA0 DUP3 ADD MLOAD DUP2 PUSH1 0x4 ADD PUSH1 0x1 PUSH2 0x100 EXP DUP2 SLOAD DUP2 PUSH1 0xFF MUL NOT AND SWAP1 DUP4 PUSH1 0x1 DUP2 GT ISZERO PUSH2 0x1FB1 JUMPI PUSH2 0x1FB0 PUSH2 0x60DA JUMP JUMPDEST JUMPDEST MUL OR SWAP1 SSTORE POP PUSH1 0xC0 DUP3 ADD MLOAD DUP2 PUSH1 0x5 ADD SWAP1 DUP1 MLOAD SWAP1 PUSH1 0x20 ADD SWAP1 PUSH2 0x1FD2 SWAP3 SWAP2 SWAP1 PUSH2 0x464D JUMP JUMPDEST POP SWAP1 POP POP DUP5 PUSH20 0xFFFFFFFFFFFFFFFFFFFFFFFFFFFFFFFFFFFFFFFF AND PUSH32 0x3A99D1F905EB66FD0850DD6E2156668B6AE1F16F41CD49DD7C6D4FB5147F784F DUP4 PUSH1 0x80 ADD MLOAD DUP5 PUSH1 0xA0 ADD MLOAD PUSH1 0x40 MLOAD PUSH2 0x2026 SWAP3 SWAP2 SWAP1 PUSH2 0x57FD JUMP JUMPDEST PUSH1 0x40 MLOAD DUP1 SWAP2 SUB SWAP1 LOG2 POP POP POP POP POP JUMP JUMPDEST PUSH2 0x203F PUSH1 0x1 PUSH2 0x3365 JUMP JUMPDEST PUSH2 0x2047 PUSH2 0x3D56 JUMP JUMPDEST PUSH2 0x2050 DUP3 PUSH2 0x3D9F JUMP JUMPDEST PUSH2 0x2059 DUP4 PUSH2 0x3DE7 JUMP JUMPDEST PUSH1 0x0 PUSH2 0x206B PUSH2 0x2066 PUSH2 0x3866 JUMP JUMPDEST PUSH2 0x2E8A JUMP JUMPDEST SWAP1 POP PUSH2 0x207F DUP5 DUP4 DUP4 PUSH1 0x0 ADD MLOAD DUP7 PUSH1 0x2 PUSH2 0x3E3A JUMP JUMPDEST DUP4 PUSH20 0xFFFFFFFFFFFFFFFFFFFFFFFFFFFFFFFFFFFFFFFF AND PUSH2 0x209E PUSH2 0x3866 JUMP JUMPDEST PUSH20 0xFFFFFFFFFFFFFFFFFFFFFFFFFFFFFFFFFFFFFFFF AND PUSH32 0xD246AA772C5574778B374ED1202C22BAC9C87A04FD3624439C2642FA6CA62171 PUSH1 0x40 MLOAD PUSH1 0x40 MLOAD DUP1 SWAP2 SUB SWAP1 LOG3 POP POP POP POP JUMP JUMPDEST PUSH2 0x20F0 PUSH1 0x1 PUSH2 0x3365 JUMP JUMPDEST DUP2 MLOAD DUP4 MLOAD EQ DUP1 ISZERO PUSH2 0x2102 JUMPI POP DUP1 MLOAD DUP3 MLOAD EQ JUMPDEST PUSH2 0x2141 JUMPI PUSH1 0x40 MLOAD PUSH32 0x8C379A000000000000000000000000000000000000000000000000000000000 DUP2 MSTORE PUSH1 0x4 ADD PUSH2 0x2138 SWAP1 PUSH2 0x5A13 JUMP JUMPDEST PUSH1 0x40 MLOAD DUP1 SWAP2 SUB SWAP1 REVERT JUMPDEST PUSH1 0x0 PUSH2 0x2153 PUSH2 0x214E PUSH2 0x3866 JUMP JUMPDEST PUSH2 0x2E8A JUMP JUMPDEST SWAP1 POP PUSH1 0x0 JUMPDEST DUP5 MLOAD DUP2 LT ISZERO PUSH2 0x2222 JUMPI PUSH2 0x2169 PUSH2 0x3D56 JUMP JUMPDEST PUSH2 0x218C DUP5 DUP3 DUP2 MLOAD DUP2 LT PUSH2 0x217F JUMPI PUSH2 0x217E PUSH2 0x6138 JUMP JUMPDEST JUMPDEST PUSH1 0x20 MUL PUSH1 0x20 ADD ADD MLOAD PUSH2 0x3D9F JUMP JUMPDEST PUSH2 0x21AF DUP6 DUP3 DUP2 MLOAD DUP2 LT PUSH2 0x21A2 JUMPI PUSH2 0x21A1 PUSH2 0x6138 JUMP JUMPDEST JUMPDEST PUSH1 0x20 MUL PUSH1 0x20 ADD ADD MLOAD PUSH2 0x3DE7 JUMP JUMPDEST PUSH2 0x220F DUP6 DUP3 DUP2 MLOAD DUP2 LT PUSH2 0x21C5 JUMPI PUSH2 0x21C4 PUSH2 0x6138 JUMP JUMPDEST JUMPDEST PUSH1 0x20 MUL PUSH1 0x20 ADD ADD MLOAD DUP5 DUP4 DUP2 MLOAD DUP2 LT PUSH2 0x21E0 JUMPI PUSH2 0x21DF PUSH2 0x6138 JUMP JUMPDEST JUMPDEST PUSH1 0x20 MUL PUSH1 0x20 ADD ADD MLOAD DUP5 PUSH1 0x0 ADD MLOAD DUP8 DUP6 DUP2 MLOAD DUP2 LT PUSH2 0x2200 JUMPI PUSH2 0x21FF PUSH2 0x6138 JUMP JUMPDEST JUMPDEST PUSH1 0x20 MUL PUSH1 0x20 ADD ADD MLOAD PUSH1 0x2 PUSH2 0x3E3A JUMP JUMPDEST DUP1 DUP1 PUSH2 0x221A SWAP1 PUSH2 0x6062 JUMP JUMPDEST SWAP2 POP POP PUSH2 0x2158 JUMP JUMPDEST POP PUSH2 0x222B PUSH2 0x3866 JUMP JUMPDEST PUSH20 0xFFFFFFFFFFFFFFFFFFFFFFFFFFFFFFFFFFFFFFFF AND PUSH32 0x697B1CA999DC9FA10F6B5121C3681B6E562901370EEBDABE6A41F253731EE2B9 DUP6 PUSH1 0x40 MLOAD PUSH2 0x2270 SWAP2 SWAP1 PUSH2 0x577C JUMP JUMPDEST PUSH1 0x40 MLOAD DUP1 SWAP2 SUB SWAP1 LOG2 POP POP POP POP JUMP JUMPDEST PUSH1 0x0 PUSH1 0xCE PUSH1 0x0 SWAP1 SLOAD SWAP1 PUSH2 0x100 EXP SWAP1 DIV PUSH1 0xFF AND SWAP1 POP SWAP1 JUMP JUMPDEST PUSH2 0x229D PUSH2 0x3866 JUMP JUMPDEST PUSH20 0xFFFFFFFFFFFFFFFFFFFFFFFFFFFFFFFFFFFFFFFF AND PUSH2 0x22BB PUSH2 0x15B4 JUMP JUMPDEST PUSH20 0xFFFFFFFFFFFFFFFFFFFFFFFFFFFFFFFFFFFFFFFF AND EQ PUSH2 0x2311 JUMPI PUSH1 0x40 MLOAD PUSH32 0x8C379A000000000000000000000000000000000000000000000000000000000 DUP2 MSTORE PUSH1 0x4 ADD PUSH2 0x2308 SWAP1 PUSH2 0x5BB3 JUMP JUMPDEST PUSH1 0x40 MLOAD DUP1 SWAP2 SUB SWAP1 REVERT JUMPDEST PUSH1 0x0 DUP2 MLOAD EQ ISZERO PUSH2 0x2356 JUMPI PUSH1 0x40 MLOAD PUSH32 0x8C379A000000000000000000000000000000000000000000000000000000000 DUP2 MSTORE PUSH1 0x4 ADD PUSH2 0x234D SWAP1 PUSH2 0x5BD3 JUMP JUMPDEST PUSH1 0x40 MLOAD DUP1 SWAP2 SUB SWAP1 REVERT JUMPDEST PUSH2 0x235F DUP3 PUSH2 0x3D9F JUMP JUMPDEST PUSH2 0x2368 DUP4 PUSH2 0x3DE7 JUMP JUMPDEST PUSH2 0x2376 DUP4 DUP3 DUP4 DUP6 PUSH1 0x0 PUSH2 0x3E3A JUMP JUMPDEST DUP3 PUSH20 0xFFFFFFFFFFFFFFFFFFFFFFFFFFFFFFFFFFFFFFFF AND PUSH2 0x2395 PUSH2 0x3866 JUMP JUMPDEST PUSH20 0xFFFFFFFFFFFFFFFFFFFFFFFFFFFFFFFFFFFFFFFF AND PUSH32 0xD246AA772C5574778B374ED1202C22BAC9C87A04FD3624439C2642FA6CA62171 PUSH1 0x40 MLOAD PUSH1 0x40 MLOAD DUP1 SWAP2 SUB SWAP1 LOG3 POP POP POP JUMP JUMPDEST PUSH2 0x23E6 PUSH1 0x0 PUSH2 0x3365 JUMP JUMPDEST PUSH2 0x23F2 DUP5 DUP5 DUP5 DUP5 PUSH2 0x3723 JUMP JUMPDEST DUP4 PUSH20 0xFFFFFFFFFFFFFFFFFFFFFFFFFFFFFFFFFFFFFFFF AND PUSH2 0x2411 PUSH2 0x3866 JUMP JUMPDEST PUSH20 0xFFFFFFFFFFFFFFFFFFFFFFFFFFFFFFFFFFFFFFFF AND PUSH32 0xD246AA772C5574778B374ED1202C22BAC9C87A04FD3624439C2642FA6CA62171 PUSH1 0x40 MLOAD PUSH1 0x40 MLOAD DUP1 SWAP2 SUB SWAP1 LOG3 POP POP POP POP JUMP JUMPDEST PUSH1 0x0 DUP1 PUSH2 0x2465 DUP5 PUSH2 0x2E8A JUMP JUMPDEST SWAP1 POP PUSH2 0x2474 DUP2 PUSH1 0x20 ADD MLOAD PUSH2 0x31E5 JUMP JUMPDEST PUSH2 0x247D DUP2 PUSH2 0x322D JUMP JUMPDEST DUP3 PUSH1 0x2 DUP2 GT ISZERO PUSH2 0x2490 JUMPI PUSH2 0x248F PUSH2 0x60DA JUMP JUMPDEST JUMPDEST PUSH1 0xFF AND DUP2 PUSH1 0x40 ADD MLOAD PUSH1 0x2 DUP2 GT ISZERO PUSH2 0x24AA JUMPI PUSH2 0x24A9 PUSH2 0x60DA JUMP JUMPDEST JUMPDEST PUSH1 0xFF AND EQ SWAP2 POP POP SWAP3 SWAP2 POP POP JUMP JUMPDEST PUSH2 0x24BF PUSH2 0x3866 JUMP JUMPDEST PUSH20 0xFFFFFFFFFFFFFFFFFFFFFFFFFFFFFFFFFFFFFFFF AND PUSH2 0x24DD PUSH2 0x15B4 JUMP JUMPDEST PUSH20 0xFFFFFFFFFFFFFFFFFFFFFFFFFFFFFFFFFFFFFFFF AND EQ PUSH2 0x2533 JUMPI PUSH1 0x40 MLOAD PUSH32 0x8C379A000000000000000000000000000000000000000000000000000000000 DUP2 MSTORE PUSH1 0x4 ADD PUSH2 0x252A SWAP1 PUSH2 0x5BB3 JUMP JUMPDEST PUSH1 0x40 MLOAD DUP1 SWAP2 SUB SWAP1 REVERT JUMPDEST PUSH1 0x0 PUSH20 0xFFFFFFFFFFFFFFFFFFFFFFFFFFFFFFFFFFFFFFFF AND DUP2 PUSH20 0xFFFFFFFFFFFFFFFFFFFFFFFFFFFFFFFFFFFFFFFF AND EQ ISZERO PUSH2 0x25A3 JUMPI PUSH1 0x40 MLOAD PUSH32 0x8C379A000000000000000000000000000000000000000000000000000000000 DUP2 MSTORE PUSH1 0x4 ADD PUSH2 0x259A SWAP1 PUSH2 0x5973 JUMP JUMPDEST PUSH1 0x40 MLOAD DUP1 SWAP2 SUB SWAP1 REVERT JUMPDEST PUSH2 0x25AC DUP2 PUSH2 0x39C9 JUMP JUMPDEST POP JUMP JUMPDEST PUSH2 0x25B9 PUSH1 0x0 PUSH2 0x3365 JUMP JUMPDEST PUSH2 0x25C2 DUP3 PUSH2 0x33B8 JUMP JUMPDEST PUSH2 0x25CB DUP2 PUSH2 0x386E JUMP JUMPDEST PUSH1 0x0 DUP1 PUSH1 0xCB PUSH1 0x0 DUP7 PUSH1 0x2 DUP2 GT ISZERO PUSH2 0x25E5 JUMPI PUSH2 0x25E4 PUSH2 0x60DA JUMP JUMPDEST JUMPDEST PUSH1 0x2 DUP2 GT ISZERO PUSH2 0x25F7 JUMPI PUSH2 0x25F6 PUSH2 0x60DA JUMP JUMPDEST JUMPDEST DUP2 MSTORE PUSH1 0x20 ADD SWAP1 DUP2 MSTORE PUSH1 0x20 ADD PUSH1 0x0 KECCAK256 PUSH1 0x0 DUP6 PUSH20 0xFFFFFFFFFFFFFFFFFFFFFFFFFFFFFFFFFFFFFFFF AND PUSH20 0xFFFFFFFFFFFFFFFFFFFFFFFFFFFFFFFFFFFFFFFF AND DUP2 MSTORE PUSH1 0x20 ADD SWAP1 DUP2 MSTORE PUSH1 0x20 ADD PUSH1 0x0 KECCAK256 SLOAD SWAP1 POP PUSH1 0x0 DUP2 EQ ISZERO PUSH2 0x28E1 JUMPI PUSH1 0x0 PUSH1 0xCA PUSH1 0x0 DUP8 PUSH1 0x2 DUP2 GT ISZERO PUSH2 0x2667 JUMPI PUSH2 0x2666 PUSH2 0x60DA JUMP JUMPDEST JUMPDEST PUSH1 0x2 DUP2 GT ISZERO PUSH2 0x2679 JUMPI PUSH2 0x2678 PUSH2 0x60DA JUMP JUMPDEST JUMPDEST DUP2 MSTORE PUSH1 0x20 ADD SWAP1 DUP2 MSTORE PUSH1 0x20 ADD PUSH1 0x0 KECCAK256 DUP1 SLOAD SWAP1 POP SWAP1 POP PUSH1 0xCA PUSH1 0x0 DUP8 PUSH1 0x2 DUP2 GT ISZERO PUSH2 0x26A4 JUMPI PUSH2 0x26A3 PUSH2 0x60DA JUMP JUMPDEST JUMPDEST PUSH1 0x2 DUP2 GT ISZERO PUSH2 0x26B6 JUMPI PUSH2 0x26B5 PUSH2 0x60DA JUMP JUMPDEST JUMPDEST DUP2 MSTORE PUSH1 0x20 ADD SWAP1 DUP2 MSTORE PUSH1 0x20 ADD PUSH1 0x0 KECCAK256 PUSH1 0x1 DUP2 PUSH1 0x1 DUP2 SLOAD ADD DUP1 DUP3 SSTORE DUP1 SWAP2 POP POP SUB SWAP1 PUSH1 0x0 MSTORE PUSH1 0x20 PUSH1 0x0 KECCAK256 SWAP1 POP POP PUSH1 0xCA PUSH1 0x0 DUP8 PUSH1 0x2 DUP2 GT ISZERO PUSH2 0x26F7 JUMPI PUSH2 0x26F6 PUSH2 0x60DA JUMP JUMPDEST JUMPDEST PUSH1 0x2 DUP2 GT ISZERO PUSH2 0x2709 JUMPI PUSH2 0x2708 PUSH2 0x60DA JUMP JUMPDEST JUMPDEST DUP2 MSTORE PUSH1 0x20 ADD SWAP1 DUP2 MSTORE PUSH1 0x20 ADD PUSH1 0x0 KECCAK256 DUP2 DUP2 SLOAD DUP2 LT PUSH2 0x2729 JUMPI PUSH2 0x2728 PUSH2 0x6138 JUMP JUMPDEST JUMPDEST SWAP1 PUSH1 0x0 MSTORE PUSH1 0x20 PUSH1 0x0 KECCAK256 SWAP1 PUSH1 0x3 MUL ADD SWAP3 POP PUSH1 0xCA PUSH1 0x0 DUP8 PUSH1 0x2 DUP2 GT ISZERO PUSH2 0x2750 JUMPI PUSH2 0x274F PUSH2 0x60DA JUMP JUMPDEST JUMPDEST PUSH1 0x2 DUP2 GT ISZERO PUSH2 0x2762 JUMPI PUSH2 0x2761 PUSH2 0x60DA JUMP JUMPDEST JUMPDEST DUP2 MSTORE PUSH1 0x20 ADD SWAP1 DUP2 MSTORE PUSH1 0x20 ADD PUSH1 0x0 KECCAK256 DUP1 SLOAD SWAP1 POP PUSH1 0xCB PUSH1 0x0 DUP9 PUSH1 0x2 DUP2 GT ISZERO PUSH2 0x278B JUMPI PUSH2 0x278A PUSH2 0x60DA JUMP JUMPDEST JUMPDEST PUSH1 0x2 DUP2 GT ISZERO PUSH2 0x279D JUMPI PUSH2 0x279C PUSH2 0x60DA JUMP JUMPDEST JUMPDEST DUP2 MSTORE PUSH1 0x20 ADD SWAP1 DUP2 MSTORE PUSH1 0x20 ADD PUSH1 0x0 KECCAK256 PUSH1 0x0 DUP8 PUSH20 0xFFFFFFFFFFFFFFFFFFFFFFFFFFFFFFFFFFFFFFFF AND PUSH20 0xFFFFFFFFFFFFFFFFFFFFFFFFFFFFFFFFFFFFFFFF AND DUP2 MSTORE PUSH1 0x20 ADD SWAP1 DUP2 MSTORE PUSH1 0x20 ADD PUSH1 0x0 KECCAK256 DUP2 SWAP1 SSTORE POP DUP5 DUP4 PUSH1 0x0 ADD PUSH1 0x0 PUSH2 0x100 EXP DUP2 SLOAD DUP2 PUSH20 0xFFFFFFFFFFFFFFFFFFFFFFFFFFFFFFFFFFFFFFFF MUL NOT AND SWAP1 DUP4 PUSH20 0xFFFFFFFFFFFFFFFFFFFFFFFFFFFFFFFFFFFFFFFF AND MUL OR SWAP1 SSTORE POP DUP3 PUSH1 0x1 ADD DUP5 SWAP1 DUP1 PUSH1 0x1 DUP2 SLOAD ADD DUP1 DUP3 SSTORE DUP1 SWAP2 POP POP PUSH1 0x1 SWAP1 SUB SWAP1 PUSH1 0x0 MSTORE PUSH1 0x20 PUSH1 0x0 KECCAK256 SWAP1 PUSH1 0x8 SWAP2 DUP3 DUP3 DIV ADD SWAP2 SWAP1 MOD PUSH1 0x4 MUL SWAP1 SWAP2 SWAP1 SWAP2 SWAP1 SWAP2 PUSH2 0x100 EXP DUP2 SLOAD DUP2 PUSH4 0xFFFFFFFF MUL NOT AND SWAP1 DUP4 PUSH1 0xE0 SHR MUL OR SWAP1 SSTORE POP DUP3 PUSH1 0x1 ADD DUP1 SLOAD SWAP1 POP DUP4 PUSH1 0x2 ADD PUSH1 0x0 DUP7 PUSH28 0xFFFFFFFFFFFFFFFFFFFFFFFFFFFFFFFFFFFFFFFFFFFFFFFFFFFFFFFF NOT AND PUSH28 0xFFFFFFFFFFFFFFFFFFFFFFFFFFFFFFFFFFFFFFFFFFFFFFFFFFFFFFFF NOT AND DUP2 MSTORE PUSH1 0x20 ADD SWAP1 DUP2 MSTORE PUSH1 0x20 ADD PUSH1 0x0 KECCAK256 DUP2 SWAP1 SSTORE POP POP PUSH2 0x2A89 JUMP JUMPDEST PUSH1 0xCA PUSH1 0x0 DUP7 PUSH1 0x2 DUP2 GT ISZERO PUSH2 0x28F8 JUMPI PUSH2 0x28F7 PUSH2 0x60DA JUMP JUMPDEST JUMPDEST PUSH1 0x2 DUP2 GT ISZERO PUSH2 0x290A JUMPI PUSH2 0x2909 PUSH2 0x60DA JUMP JUMPDEST JUMPDEST DUP2 MSTORE PUSH1 0x20 ADD SWAP1 DUP2 MSTORE PUSH1 0x20 ADD PUSH1 0x0 KECCAK256 PUSH1 0x1 DUP3 PUSH2 0x2925 SWAP2 SWAP1 PUSH2 0x5ECB JUMP JUMPDEST DUP2 SLOAD DUP2 LT PUSH2 0x2936 JUMPI PUSH2 0x2935 PUSH2 0x6138 JUMP JUMPDEST JUMPDEST SWAP1 PUSH1 0x0 MSTORE PUSH1 0x20 PUSH1 0x0 KECCAK256 SWAP1 PUSH1 0x3 MUL ADD SWAP2 POP PUSH1 0x0 DUP3 PUSH1 0x2 ADD PUSH1 0x0 DUP6 PUSH28 0xFFFFFFFFFFFFFFFFFFFFFFFFFFFFFFFFFFFFFFFFFFFFFFFFFFFFFFFF NOT AND PUSH28 0xFFFFFFFFFFFFFFFFFFFFFFFFFFFFFFFFFFFFFFFFFFFFFFFFFFFFFFFF NOT AND DUP2 MSTORE PUSH1 0x20 ADD SWAP1 DUP2 MSTORE PUSH1 0x20 ADD PUSH1 0x0 KECCAK256 SLOAD EQ PUSH2 0x29DC JUMPI PUSH1 0x40 MLOAD PUSH32 0x8C379A000000000000000000000000000000000000000000000000000000000 DUP2 MSTORE PUSH1 0x4 ADD PUSH2 0x29D3 SWAP1 PUSH2 0x5C93 JUMP JUMPDEST PUSH1 0x40 MLOAD DUP1 SWAP2 SUB SWAP1 REVERT JUMPDEST DUP2 PUSH1 0x1 ADD DUP4 SWAP1 DUP1 PUSH1 0x1 DUP2 SLOAD ADD DUP1 DUP3 SSTORE DUP1 SWAP2 POP POP PUSH1 0x1 SWAP1 SUB SWAP1 PUSH1 0x0 MSTORE PUSH1 0x20 PUSH1 0x0 KECCAK256 SWAP1 PUSH1 0x8 SWAP2 DUP3 DUP3 DIV ADD SWAP2 SWAP1 MOD PUSH1 0x4 MUL SWAP1 SWAP2 SWAP1 SWAP2 SWAP1 SWAP2 PUSH2 0x100 EXP DUP2 SLOAD DUP2 PUSH4 0xFFFFFFFF MUL NOT AND SWAP1 DUP4 PUSH1 0xE0 SHR MUL OR SWAP1 SSTORE POP DUP2 PUSH1 0x1 ADD DUP1 SLOAD SWAP1 POP DUP3 PUSH1 0x2 ADD PUSH1 0x0 DUP6 PUSH28 0xFFFFFFFFFFFFFFFFFFFFFFFFFFFFFFFFFFFFFFFFFFFFFFFFFFFFFFFF NOT AND PUSH28 0xFFFFFFFFFFFFFFFFFFFFFFFFFFFFFFFFFFFFFFFFFFFFFFFFFFFFFFFF NOT AND DUP2 MSTORE PUSH1 0x20 ADD SWAP1 DUP2 MSTORE PUSH1 0x20 ADD PUSH1 0x0 KECCAK256 DUP2 SWAP1 SSTORE POP JUMPDEST DUP5 PUSH1 0x2 DUP2 GT ISZERO PUSH2 0x2A9C JUMPI PUSH2 0x2A9B PUSH2 0x60DA JUMP JUMPDEST JUMPDEST PUSH2 0x2AA4 PUSH2 0x3866 JUMP JUMPDEST PUSH20 0xFFFFFFFFFFFFFFFFFFFFFFFFFFFFFFFFFFFFFFFF AND PUSH32 0xD2925D5C000F95A189BE5C6C90C0DC14F33C077900241EB3E7C0A287D914E650 DUP7 DUP7 PUSH1 0x40 MLOAD PUSH2 0x2AEB SWAP3 SWAP2 SWAP1 PUSH2 0x5753 JUMP JUMPDEST PUSH1 0x40 MLOAD DUP1 SWAP2 SUB SWAP1 LOG3 POP POP POP POP POP JUMP JUMPDEST PUSH1 0x60 DUP1 PUSH1 0x0 PUSH1 0x60 PUSH1 0x0 DUP1 PUSH1 0x60 PUSH1 0x0 PUSH1 0xC9 PUSH1 0x0 DUP11 PUSH20 0xFFFFFFFFFFFFFFFFFFFFFFFFFFFFFFFFFFFFFFFF AND PUSH20 0xFFFFFFFFFFFFFFFFFFFFFFFFFFFFFFFFFFFFFFFF AND DUP2 MSTORE PUSH1 0x20 ADD SWAP1 DUP2 MSTORE PUSH1 0x20 ADD PUSH1 0x0 KECCAK256 PUSH1 0x40 MLOAD DUP1 PUSH1 0xE0 ADD PUSH1 0x40 MSTORE SWAP1 DUP2 PUSH1 0x0 DUP3 ADD DUP1 SLOAD PUSH2 0x2B62 SWAP1 PUSH2 0x5FFF JUMP JUMPDEST DUP1 PUSH1 0x1F ADD PUSH1 0x20 DUP1 SWAP2 DIV MUL PUSH1 0x20 ADD PUSH1 0x40 MLOAD SWAP1 DUP2 ADD PUSH1 0x40 MSTORE DUP1 SWAP3 SWAP2 SWAP1 DUP2 DUP2 MSTORE PUSH1 0x20 ADD DUP3 DUP1 SLOAD PUSH2 0x2B8E SWAP1 PUSH2 0x5FFF JUMP JUMPDEST DUP1 ISZERO PUSH2 0x2BDB JUMPI DUP1 PUSH1 0x1F LT PUSH2 0x2BB0 JUMPI PUSH2 0x100 DUP1 DUP4 SLOAD DIV MUL DUP4 MSTORE SWAP2 PUSH1 0x20 ADD SWAP2 PUSH2 0x2BDB JUMP JUMPDEST DUP3 ADD SWAP2 SWAP1 PUSH1 0x0 MSTORE PUSH1 0x20 PUSH1 0x0 KECCAK256 SWAP1 JUMPDEST DUP2 SLOAD DUP2 MSTORE SWAP1 PUSH1 0x1 ADD SWAP1 PUSH1 0x20 ADD DUP1 DUP4 GT PUSH2 0x2BBE JUMPI DUP3 SWAP1 SUB PUSH1 0x1F AND DUP3 ADD SWAP2 JUMPDEST POP POP POP POP POP DUP2 MSTORE PUSH1 0x20 ADD PUSH1 0x1 DUP3 ADD DUP1 SLOAD PUSH2 0x2BF4 SWAP1 PUSH2 0x5FFF JUMP JUMPDEST DUP1 PUSH1 0x1F ADD PUSH1 0x20 DUP1 SWAP2 DIV MUL PUSH1 0x20 ADD PUSH1 0x40 MLOAD SWAP1 DUP2 ADD PUSH1 0x40 MSTORE DUP1 SWAP3 SWAP2 SWAP1 DUP2 DUP2 MSTORE PUSH1 0x20 ADD DUP3 DUP1 SLOAD PUSH2 0x2C20 SWAP1 PUSH2 0x5FFF JUMP JUMPDEST DUP1 ISZERO PUSH2 0x2C6D JUMPI DUP1 PUSH1 0x1F LT PUSH2 0x2C42 JUMPI PUSH2 0x100 DUP1 DUP4 SLOAD DIV MUL DUP4 MSTORE SWAP2 PUSH1 0x20 ADD SWAP2 PUSH2 0x2C6D JUMP JUMPDEST DUP3 ADD SWAP2 SWAP1 PUSH1 0x0 MSTORE PUSH1 0x20 PUSH1 0x0 KECCAK256 SWAP1 JUMPDEST DUP2 SLOAD DUP2 MSTORE SWAP1 PUSH1 0x1 ADD SWAP1 PUSH1 0x20 ADD DUP1 DUP4 GT PUSH2 0x2C50 JUMPI DUP3 SWAP1 SUB PUSH1 0x1F AND DUP3 ADD SWAP2 JUMPDEST POP POP POP POP POP DUP2 MSTORE PUSH1 0x20 ADD PUSH1 0x2 DUP3 ADD PUSH1 0x0 SWAP1 SLOAD SWAP1 PUSH2 0x100 EXP SWAP1 DIV PUSH1 0xFF AND PUSH1 0x2 DUP2 GT ISZERO PUSH2 0x2C9B JUMPI PUSH2 0x2C9A PUSH2 0x60DA JUMP JUMPDEST JUMPDEST PUSH1 0x2 DUP2 GT ISZERO PUSH2 0x2CAD JUMPI PUSH2 0x2CAC PUSH2 0x60DA JUMP JUMPDEST JUMPDEST DUP2 MSTORE PUSH1 0x20 ADD PUSH1 0x3 DUP3 ADD DUP1 SLOAD PUSH2 0x2CC1 SWAP1 PUSH2 0x5FFF JUMP JUMPDEST DUP1 PUSH1 0x1F ADD PUSH1 0x20 DUP1 SWAP2 DIV MUL PUSH1 0x20 ADD PUSH1 0x40 MLOAD SWAP1 DUP2 ADD PUSH1 0x40 MSTORE DUP1 SWAP3 SWAP2 SWAP1 DUP2 DUP2 MSTORE PUSH1 0x20 ADD DUP3 DUP1 SLOAD PUSH2 0x2CED SWAP1 PUSH2 0x5FFF JUMP JUMPDEST DUP1 ISZERO PUSH2 0x2D3A JUMPI DUP1 PUSH1 0x1F LT PUSH2 0x2D0F JUMPI PUSH2 0x100 DUP1 DUP4 SLOAD DIV MUL DUP4 MSTORE SWAP2 PUSH1 0x20 ADD SWAP2 PUSH2 0x2D3A JUMP JUMPDEST DUP3 ADD SWAP2 SWAP1 PUSH1 0x0 MSTORE PUSH1 0x20 PUSH1 0x0 KECCAK256 SWAP1 JUMPDEST DUP2 SLOAD DUP2 MSTORE SWAP1 PUSH1 0x1 ADD SWAP1 PUSH1 0x20 ADD DUP1 DUP4 GT PUSH2 0x2D1D JUMPI DUP3 SWAP1 SUB PUSH1 0x1F AND DUP3 ADD SWAP2 JUMPDEST POP POP POP POP POP DUP2 MSTORE PUSH1 0x20 ADD PUSH1 0x4 DUP3 ADD PUSH1 0x0 SWAP1 SLOAD SWAP1 PUSH2 0x100 EXP SWAP1 DIV PUSH1 0xFF AND PUSH1 0x1 DUP2 GT ISZERO PUSH2 0x2D68 JUMPI PUSH2 0x2D67 PUSH2 0x60DA JUMP JUMPDEST JUMPDEST PUSH1 0x1 DUP2 GT ISZERO PUSH2 0x2D7A JUMPI PUSH2 0x2D79 PUSH2 0x60DA JUMP JUMPDEST JUMPDEST DUP2 MSTORE PUSH1 0x20 ADD PUSH1 0x4 DUP3 ADD PUSH1 0x1 SWAP1 SLOAD SWAP1 PUSH2 0x100 EXP SWAP1 DIV PUSH1 0xFF AND PUSH1 0x1 DUP2 GT ISZERO PUSH2 0x2DA3 JUMPI PUSH2 0x2DA2 PUSH2 0x60DA JUMP JUMPDEST JUMPDEST PUSH1 0x1 DUP2 GT ISZERO PUSH2 0x2DB5 JUMPI PUSH2 0x2DB4 PUSH2 0x60DA JUMP JUMPDEST JUMPDEST DUP2 MSTORE PUSH1 0x20 ADD PUSH1 0x5 DUP3 ADD DUP1 SLOAD PUSH2 0x2DC9 SWAP1 PUSH2 0x5FFF JUMP JUMPDEST DUP1 PUSH1 0x1F ADD PUSH1 0x20 DUP1 SWAP2 DIV MUL PUSH1 0x20 ADD PUSH1 0x40 MLOAD SWAP1 DUP2 ADD PUSH1 0x40 MSTORE DUP1 SWAP3 SWAP2 SWAP1 DUP2 DUP2 MSTORE PUSH1 0x20 ADD DUP3 DUP1 SLOAD PUSH2 0x2DF5 SWAP1 PUSH2 0x5FFF JUMP JUMPDEST DUP1 ISZERO PUSH2 0x2E42 JUMPI DUP1 PUSH1 0x1F LT PUSH2 0x2E17 JUMPI PUSH2 0x100 DUP1 DUP4 SLOAD DIV MUL DUP4 MSTORE SWAP2 PUSH1 0x20 ADD SWAP2 PUSH2 0x2E42 JUMP JUMPDEST DUP3 ADD SWAP2 SWAP1 PUSH1 0x0 MSTORE PUSH1 0x20 PUSH1 0x0 KECCAK256 SWAP1 JUMPDEST DUP2 SLOAD DUP2 MSTORE SWAP1 PUSH1 0x1 ADD SWAP1 PUSH1 0x20 ADD DUP1 DUP4 GT PUSH2 0x2E25 JUMPI DUP3 SWAP1 SUB PUSH1 0x1F AND DUP3 ADD SWAP2 JUMPDEST POP POP POP POP POP DUP2 MSTORE POP POP SWAP1 POP DUP1 PUSH1 0x0 ADD MLOAD DUP2 PUSH1 0x20 ADD MLOAD DUP3 PUSH1 0x40 ADD MLOAD DUP4 PUSH1 0x60 ADD MLOAD DUP5 PUSH1 0x80 ADD MLOAD DUP6 PUSH1 0xA0 ADD MLOAD DUP7 PUSH1 0xC0 ADD MLOAD SWAP8 POP SWAP8 POP SWAP8 POP SWAP8 POP SWAP8 POP SWAP8 POP SWAP8 POP POP SWAP2 SWAP4 SWAP6 SWAP8 SWAP1 SWAP3 SWAP5 SWAP7 POP JUMP JUMPDEST PUSH2 0x2E92 PUSH2 0x46D3 JUMP JUMPDEST PUSH2 0x2E9B DUP3 PUSH2 0x33B8 JUMP JUMPDEST PUSH1 0xC9 PUSH1 0x0 DUP4 PUSH20 0xFFFFFFFFFFFFFFFFFFFFFFFFFFFFFFFFFFFFFFFF AND PUSH20 0xFFFFFFFFFFFFFFFFFFFFFFFFFFFFFFFFFFFFFFFF AND DUP2 MSTORE PUSH1 0x20 ADD SWAP1 DUP2 MSTORE PUSH1 0x20 ADD PUSH1 0x0 KECCAK256 PUSH1 0x40 MLOAD DUP1 PUSH1 0xE0 ADD PUSH1 0x40 MSTORE SWAP1 DUP2 PUSH1 0x0 DUP3 ADD DUP1 SLOAD PUSH2 0x2EF5 SWAP1 PUSH2 0x5FFF JUMP JUMPDEST DUP1 PUSH1 0x1F ADD PUSH1 0x20 DUP1 SWAP2 DIV MUL PUSH1 0x20 ADD PUSH1 0x40 MLOAD SWAP1 DUP2 ADD PUSH1 0x40 MSTORE DUP1 SWAP3 SWAP2 SWAP1 DUP2 DUP2 MSTORE PUSH1 0x20 ADD DUP3 DUP1 SLOAD PUSH2 0x2F21 SWAP1 PUSH2 0x5FFF JUMP JUMPDEST DUP1 ISZERO PUSH2 0x2F6E JUMPI DUP1 PUSH1 0x1F LT PUSH2 0x2F43 JUMPI PUSH2 0x100 DUP1 DUP4 SLOAD DIV MUL DUP4 MSTORE SWAP2 PUSH1 0x20 ADD SWAP2 PUSH2 0x2F6E JUMP JUMPDEST DUP3 ADD SWAP2 SWAP1 PUSH1 0x0 MSTORE PUSH1 0x20 PUSH1 0x0 KECCAK256 SWAP1 JUMPDEST DUP2 SLOAD DUP2 MSTORE SWAP1 PUSH1 0x1 ADD SWAP1 PUSH1 0x20 ADD DUP1 DUP4 GT PUSH2 0x2F51 JUMPI DUP3 SWAP1 SUB PUSH1 0x1F AND DUP3 ADD SWAP2 JUMPDEST POP POP POP POP POP DUP2 MSTORE PUSH1 0x20 ADD PUSH1 0x1 DUP3 ADD DUP1 SLOAD PUSH2 0x2F87 SWAP1 PUSH2 0x5FFF JUMP JUMPDEST DUP1 PUSH1 0x1F ADD PUSH1 0x20 DUP1 SWAP2 DIV MUL PUSH1 0x20 ADD PUSH1 0x40 MLOAD SWAP1 DUP2 ADD PUSH1 0x40 MSTORE DUP1 SWAP3 SWAP2 SWAP1 DUP2 DUP2 MSTORE PUSH1 0x20 ADD DUP3 DUP1 SLOAD PUSH2 0x2FB3 SWAP1 PUSH2 0x5FFF JUMP JUMPDEST DUP1 ISZERO PUSH2 0x3000 JUMPI DUP1 PUSH1 0x1F LT PUSH2 0x2FD5 JUMPI PUSH2 0x100 DUP1 DUP4 SLOAD DIV MUL DUP4 MSTORE SWAP2 PUSH1 0x20 ADD SWAP2 PUSH2 0x3000 JUMP JUMPDEST DUP3 ADD SWAP2 SWAP1 PUSH1 0x0 MSTORE PUSH1 0x20 PUSH1 0x0 KECCAK256 SWAP1 JUMPDEST DUP2 SLOAD DUP2 MSTORE SWAP1 PUSH1 0x1 ADD SWAP1 PUSH1 0x20 ADD DUP1 DUP4 GT PUSH2 0x2FE3 JUMPI DUP3 SWAP1 SUB PUSH1 0x1F AND DUP3 ADD SWAP2 JUMPDEST POP POP POP POP POP DUP2 MSTORE PUSH1 0x20 ADD PUSH1 0x2 DUP3 ADD PUSH1 0x0 SWAP1 SLOAD SWAP1 PUSH2 0x100 EXP SWAP1 DIV PUSH1 0xFF AND PUSH1 0x2 DUP2 GT ISZERO PUSH2 0x302E JUMPI PUSH2 0x302D PUSH2 0x60DA JUMP JUMPDEST JUMPDEST PUSH1 0x2 DUP2 GT ISZERO PUSH2 0x3040 JUMPI PUSH2 0x303F PUSH2 0x60DA JUMP JUMPDEST JUMPDEST DUP2 MSTORE PUSH1 0x20 ADD PUSH1 0x3 DUP3 ADD DUP1 SLOAD PUSH2 0x3054 SWAP1 PUSH2 0x5FFF JUMP JUMPDEST DUP1 PUSH1 0x1F ADD PUSH1 0x20 DUP1 SWAP2 DIV MUL PUSH1 0x20 ADD PUSH1 0x40 MLOAD SWAP1 DUP2 ADD PUSH1 0x40 MSTORE DUP1 SWAP3 SWAP2 SWAP1 DUP2 DUP2 MSTORE PUSH1 0x20 ADD DUP3 DUP1 SLOAD PUSH2 0x3080 SWAP1 PUSH2 0x5FFF JUMP JUMPDEST DUP1 ISZERO PUSH2 0x30CD JUMPI DUP1 PUSH1 0x1F LT PUSH2 0x30A2 JUMPI PUSH2 0x100 DUP1 DUP4 SLOAD DIV MUL DUP4 MSTORE SWAP2 PUSH1 0x20 ADD SWAP2 PUSH2 0x30CD JUMP JUMPDEST DUP3 ADD SWAP2 SWAP1 PUSH1 0x0 MSTORE PUSH1 0x20 PUSH1 0x0 KECCAK256 SWAP1 JUMPDEST DUP2 SLOAD DUP2 MSTORE SWAP1 PUSH1 0x1 ADD SWAP1 PUSH1 0x20 ADD DUP1 DUP4 GT PUSH2 0x30B0 JUMPI DUP3 SWAP1 SUB PUSH1 0x1F AND DUP3 ADD SWAP2 JUMPDEST POP POP POP POP POP DUP2 MSTORE PUSH1 0x20 ADD PUSH1 0x4 DUP3 ADD PUSH1 0x0 SWAP1 SLOAD SWAP1 PUSH2 0x100 EXP SWAP1 DIV PUSH1 0xFF AND PUSH1 0x1 DUP2 GT ISZERO PUSH2 0x30FB JUMPI PUSH2 0x30FA PUSH2 0x60DA JUMP JUMPDEST JUMPDEST PUSH1 0x1 DUP2 GT ISZERO PUSH2 0x310D JUMPI PUSH2 0x310C PUSH2 0x60DA JUMP JUMPDEST JUMPDEST DUP2 MSTORE PUSH1 0x20 ADD PUSH1 0x4 DUP3 ADD PUSH1 0x1 SWAP1 SLOAD SWAP1 PUSH2 0x100 EXP SWAP1 DIV PUSH1 0xFF AND PUSH1 0x1 DUP2 GT ISZERO PUSH2 0x3136 JUMPI PUSH2 0x3135 PUSH2 0x60DA JUMP JUMPDEST JUMPDEST PUSH1 0x1 DUP2 GT ISZERO PUSH2 0x3148 JUMPI PUSH2 0x3147 PUSH2 0x60DA JUMP JUMPDEST JUMPDEST DUP2 MSTORE PUSH1 0x20 ADD PUSH1 0x5 DUP3 ADD DUP1 SLOAD PUSH2 0x315C SWAP1 PUSH2 0x5FFF JUMP JUMPDEST DUP1 PUSH1 0x1F ADD PUSH1 0x20 DUP1 SWAP2 DIV MUL PUSH1 0x20 ADD PUSH1 0x40 MLOAD SWAP1 DUP2 ADD PUSH1 0x40 MSTORE DUP1 SWAP3 SWAP2 SWAP1 DUP2 DUP2 MSTORE PUSH1 0x20 ADD DUP3 DUP1 SLOAD PUSH2 0x3188 SWAP1 PUSH2 0x5FFF JUMP JUMPDEST DUP1 ISZERO PUSH2 0x31D5 JUMPI DUP1 PUSH1 0x1F LT PUSH2 0x31AA JUMPI PUSH2 0x100 DUP1 DUP4 SLOAD DIV MUL DUP4 MSTORE SWAP2 PUSH1 0x20 ADD SWAP2 PUSH2 0x31D5 JUMP JUMPDEST DUP3 ADD SWAP2 SWAP1 PUSH1 0x0 MSTORE PUSH1 0x20 PUSH1 0x0 KECCAK256 SWAP1 JUMPDEST DUP2 SLOAD DUP2 MSTORE SWAP1 PUSH1 0x1 ADD SWAP1 PUSH1 0x20 ADD DUP1 DUP4 GT PUSH2 0x31B8 JUMPI DUP3 SWAP1 SUB PUSH1 0x1F AND DUP3 ADD SWAP2 JUMPDEST POP POP POP POP POP DUP2 MSTORE POP POP SWAP1 POP SWAP2 SWAP1 POP JUMP JUMPDEST PUSH1 0x0 DUP2 MLOAD EQ ISZERO PUSH2 0x322A JUMPI PUSH1 0x40 MLOAD PUSH32 0x8C379A000000000000000000000000000000000000000000000000000000000 DUP2 MSTORE PUSH1 0x4 ADD PUSH2 0x3221 SWAP1 PUSH2 0x5A73 JUMP JUMPDEST PUSH1 0x40 MLOAD DUP1 SWAP2 SUB SWAP1 REVERT JUMPDEST POP JUMP JUMPDEST PUSH2 0x323F DUP2 PUSH1 0xA0 ADD MLOAD DUP3 PUSH1 0x80 ADD MLOAD PUSH2 0x3FFF JUMP JUMPDEST PUSH2 0x327E JUMPI PUSH1 0x40 MLOAD PUSH32 0x8C379A000000000000000000000000000000000000000000000000000000000 DUP2 MSTORE PUSH1 0x4 ADD PUSH2 0x3275 SWAP1 PUSH2 0x5B73 JUMP JUMPDEST PUSH1 0x40 MLOAD DUP1 SWAP2 SUB SWAP1 REVERT JUMPDEST POP JUMP JUMPDEST PUSH1 0x0 DUP1 DUP4 SWAP1 POP PUSH1 0x0 DUP4 SWAP1 POP DUP1 MLOAD DUP3 MLOAD EQ PUSH2 0x32A0 JUMPI PUSH1 0x0 SWAP3 POP POP POP PUSH2 0x335F JUMP JUMPDEST PUSH1 0x0 DUP3 MLOAD SWAP1 POP PUSH1 0x0 JUMPDEST DUP2 DUP2 LT ISZERO PUSH2 0x3356 JUMPI DUP3 DUP2 DUP2 MLOAD DUP2 LT PUSH2 0x32C4 JUMPI PUSH2 0x32C3 PUSH2 0x6138 JUMP JUMPDEST JUMPDEST PUSH1 0x20 ADD ADD MLOAD PUSH1 0xF8 SHR PUSH1 0xF8 SHL PUSH31 0xFFFFFFFFFFFFFFFFFFFFFFFFFFFFFFFFFFFFFFFFFFFFFFFFFFFFFFFFFFFFFF NOT AND DUP5 DUP3 DUP2 MLOAD DUP2 LT PUSH2 0x3304 JUMPI PUSH2 0x3303 PUSH2 0x6138 JUMP JUMPDEST JUMPDEST PUSH1 0x20 ADD ADD MLOAD PUSH1 0xF8 SHR PUSH1 0xF8 SHL PUSH31 0xFFFFFFFFFFFFFFFFFFFFFFFFFFFFFFFFFFFFFFFFFFFFFFFFFFFFFFFFFFFFFF NOT AND EQ PUSH2 0x3343 JUMPI PUSH1 0x0 SWAP5 POP POP POP POP POP PUSH2 0x335F JUMP JUMPDEST DUP1 DUP1 PUSH2 0x334E SWAP1 PUSH2 0x6062 JUMP JUMPDEST SWAP2 POP POP PUSH2 0x32A9 JUMP JUMPDEST POP PUSH1 0x1 SWAP4 POP POP POP POP JUMPDEST SWAP3 SWAP2 POP POP JUMP JUMPDEST PUSH2 0x3376 PUSH2 0x3370 PUSH2 0x3866 JUMP JUMPDEST DUP3 PUSH2 0x2459 JUMP JUMPDEST PUSH2 0x33B5 JUMPI PUSH1 0x40 MLOAD PUSH32 0x8C379A000000000000000000000000000000000000000000000000000000000 DUP2 MSTORE PUSH1 0x4 ADD PUSH2 0x33AC SWAP1 PUSH2 0x5C33 JUMP JUMPDEST PUSH1 0x40 MLOAD DUP1 SWAP2 SUB SWAP1 REVERT JUMPDEST POP JUMP JUMPDEST PUSH1 0x0 PUSH20 0xFFFFFFFFFFFFFFFFFFFFFFFFFFFFFFFFFFFFFFFF AND DUP2 PUSH20 0xFFFFFFFFFFFFFFFFFFFFFFFFFFFFFFFFFFFFFFFF AND EQ ISZERO PUSH2 0x3428 JUMPI PUSH1 0x40 MLOAD PUSH32 0x8C379A000000000000000000000000000000000000000000000000000000000 DUP2 MSTORE PUSH1 0x4 ADD PUSH2 0x341F SWAP1 PUSH2 0x5C53 JUMP JUMPDEST PUSH1 0x40 MLOAD DUP1 SWAP2 SUB SWAP1 REVERT JUMPDEST POP JUMP JUMPDEST PUSH1 0x0 PUSH2 0x3459 PUSH32 0x360894A13BA1A3210667C828492DB98DCA3E2076CC3735A920A3CA505D382BBC PUSH1 0x0 SHL PUSH2 0x405F JUMP JUMPDEST PUSH1 0x0 ADD PUSH1 0x0 SWAP1 SLOAD SWAP1 PUSH2 0x100 EXP SWAP1 DIV PUSH20 0xFFFFFFFFFFFFFFFFFFFFFFFFFFFFFFFFFFFFFFFF AND SWAP1 POP SWAP1 JUMP JUMPDEST PUSH2 0x348A PUSH2 0x3866 JUMP JUMPDEST PUSH20 0xFFFFFFFFFFFFFFFFFFFFFFFFFFFFFFFFFFFFFFFF AND PUSH2 0x34A8 PUSH2 0x15B4 JUMP JUMPDEST PUSH20 0xFFFFFFFFFFFFFFFFFFFFFFFFFFFFFFFFFFFFFFFF AND EQ PUSH2 0x34FE JUMPI PUSH1 0x40 MLOAD PUSH32 0x8C379A000000000000000000000000000000000000000000000000000000000 DUP2 MSTORE PUSH1 0x4 ADD PUSH2 0x34F5 SWAP1 PUSH2 0x5BB3 JUMP JUMPDEST PUSH1 0x40 MLOAD DUP1 SWAP2 SUB SWAP1 REVERT JUMPDEST POP JUMP JUMPDEST PUSH1 0x0 PUSH2 0x350B PUSH2 0x342B JUMP JUMPDEST SWAP1 POP PUSH2 0x3516 DUP5 PUSH2 0x4069 JUMP JUMPDEST PUSH1 0x0 DUP4 MLOAD GT DUP1 PUSH2 0x3523 JUMPI POP DUP2 JUMPDEST ISZERO PUSH2 0x3534 JUMPI PUSH2 0x3532 DUP5 DUP5 PUSH2 0x4122 JUMP JUMPDEST POP JUMPDEST PUSH1 0x0 PUSH2 0x3562 PUSH32 0x4910FDFA16FED3260ED0E7147F7CC6DA11A60208B5B9406D12A635614FFD9143 PUSH1 0x0 SHL PUSH2 0x4206 JUMP JUMPDEST SWAP1 POP DUP1 PUSH1 0x0 ADD PUSH1 0x0 SWAP1 SLOAD SWAP1 PUSH2 0x100 EXP SWAP1 DIV PUSH1 0xFF AND PUSH2 0x36CB JUMPI PUSH1 0x1 DUP2 PUSH1 0x0 ADD PUSH1 0x0 PUSH2 0x100 EXP DUP2 SLOAD DUP2 PUSH1 0xFF MUL NOT AND SWAP1 DUP4 ISZERO ISZERO MUL OR SWAP1 SSTORE POP PUSH2 0x362E DUP6 DUP4 PUSH1 0x40 MLOAD PUSH1 0x24 ADD PUSH2 0x35AC SWAP2 SWAP1 PUSH2 0x5738 JUMP JUMPDEST PUSH1 0x40 MLOAD PUSH1 0x20 DUP2 DUP4 SUB SUB DUP2 MSTORE SWAP1 PUSH1 0x40 MSTORE PUSH32 0x3659CFE600000000000000000000000000000000000000000000000000000000 PUSH28 0xFFFFFFFFFFFFFFFFFFFFFFFFFFFFFFFFFFFFFFFFFFFFFFFFFFFFFFFF NOT AND PUSH1 0x20 DUP3 ADD DUP1 MLOAD PUSH28 0xFFFFFFFFFFFFFFFFFFFFFFFFFFFFFFFFFFFFFFFFFFFFFFFFFFFFFFFF DUP4 DUP2 DUP4 AND OR DUP4 MSTORE POP POP POP POP PUSH2 0x4122 JUMP JUMPDEST POP PUSH1 0x0 DUP2 PUSH1 0x0 ADD PUSH1 0x0 PUSH2 0x100 EXP DUP2 SLOAD DUP2 PUSH1 0xFF MUL NOT AND SWAP1 DUP4 ISZERO ISZERO MUL OR SWAP1 SSTORE POP PUSH2 0x3654 PUSH2 0x342B JUMP JUMPDEST PUSH20 0xFFFFFFFFFFFFFFFFFFFFFFFFFFFFFFFFFFFFFFFF AND DUP3 PUSH20 0xFFFFFFFFFFFFFFFFFFFFFFFFFFFFFFFFFFFFFFFF AND EQ PUSH2 0x36C1 JUMPI PUSH1 0x40 MLOAD PUSH32 0x8C379A000000000000000000000000000000000000000000000000000000000 DUP2 MSTORE PUSH1 0x4 ADD PUSH2 0x36B8 SWAP1 PUSH2 0x5953 JUMP JUMPDEST PUSH1 0x40 MLOAD DUP1 SWAP2 SUB SWAP1 REVERT JUMPDEST PUSH2 0x36CA DUP6 PUSH2 0x4210 JUMP JUMPDEST JUMPDEST POP POP POP POP POP JUMP JUMPDEST PUSH1 0xCE PUSH1 0x1 SWAP1 SLOAD SWAP1 PUSH2 0x100 EXP SWAP1 DIV PUSH1 0xFF AND PUSH2 0x3721 JUMPI PUSH1 0x40 MLOAD PUSH32 0x8C379A000000000000000000000000000000000000000000000000000000000 DUP2 MSTORE PUSH1 0x4 ADD PUSH2 0x3718 SWAP1 PUSH2 0x5C13 JUMP JUMPDEST PUSH1 0x40 MLOAD DUP1 SWAP2 SUB SWAP1 REVERT JUMPDEST JUMP JUMPDEST PUSH2 0x372C DUP4 PUSH2 0x3D9F JUMP JUMPDEST PUSH2 0x3735 DUP5 PUSH2 0x3DE7 JUMP JUMPDEST PUSH1 0x0 PUSH1 0x2 SWAP1 POP PUSH1 0x0 DUP3 MLOAD EQ ISZERO PUSH2 0x37E6 JUMPI PUSH1 0x0 DUP4 MLOAD EQ ISZERO PUSH2 0x378A JUMPI PUSH1 0x40 MLOAD PUSH32 0x8C379A000000000000000000000000000000000000000000000000000000000 DUP2 MSTORE PUSH1 0x4 ADD PUSH2 0x3781 SWAP1 PUSH2 0x58D3 JUMP JUMPDEST PUSH1 0x40 MLOAD DUP1 SWAP2 SUB SWAP1 REVERT JUMPDEST PUSH1 0x0 PUSH2 0x379C PUSH2 0x3797 PUSH2 0x3866 JUMP JUMPDEST PUSH2 0x2E8A JUMP JUMPDEST SWAP1 POP DUP1 PUSH1 0x0 ADD MLOAD SWAP3 POP PUSH1 0x1 SWAP2 POP PUSH1 0x1 PUSH1 0xCD DUP6 PUSH1 0x40 MLOAD PUSH2 0x37BB SWAP2 SWAP1 PUSH2 0x5721 JUMP JUMPDEST SWAP1 DUP2 MSTORE PUSH1 0x20 ADD PUSH1 0x40 MLOAD DUP1 SWAP2 SUB SWAP1 KECCAK256 PUSH1 0x0 PUSH2 0x100 EXP DUP2 SLOAD DUP2 PUSH1 0xFF MUL NOT AND SWAP1 DUP4 ISZERO ISZERO MUL OR SWAP1 SSTORE POP POP PUSH2 0x3852 JUMP JUMPDEST PUSH1 0xCD DUP3 PUSH1 0x40 MLOAD PUSH2 0x37F6 SWAP2 SWAP1 PUSH2 0x5721 JUMP JUMPDEST SWAP1 DUP2 MSTORE PUSH1 0x20 ADD PUSH1 0x40 MLOAD DUP1 SWAP2 SUB SWAP1 KECCAK256 PUSH1 0x0 SWAP1 SLOAD SWAP1 PUSH2 0x100 EXP SWAP1 DIV PUSH1 0xFF AND PUSH2 0x3851 JUMPI PUSH1 0x40 MLOAD PUSH32 0x8C379A000000000000000000000000000000000000000000000000000000000 DUP2 MSTORE PUSH1 0x4 ADD PUSH2 0x3848 SWAP1 PUSH2 0x5B33 JUMP JUMPDEST PUSH1 0x40 MLOAD DUP1 SWAP2 SUB SWAP1 REVERT JUMPDEST JUMPDEST PUSH2 0x385F DUP6 DUP5 DUP5 DUP8 DUP6 PUSH2 0x3E3A JUMP JUMPDEST POP POP POP POP POP JUMP JUMPDEST PUSH1 0x0 CALLER SWAP1 POP SWAP1 JUMP JUMPDEST PUSH1 0x0 PUSH1 0xE0 SHL PUSH28 0xFFFFFFFFFFFFFFFFFFFFFFFFFFFFFFFFFFFFFFFFFFFFFFFFFFFFFFFF NOT AND DUP2 PUSH28 0xFFFFFFFFFFFFFFFFFFFFFFFFFFFFFFFFFFFFFFFFFFFFFFFFFFFFFFFF NOT AND EQ ISZERO PUSH2 0x38F3 JUMPI PUSH1 0x40 MLOAD PUSH32 0x8C379A000000000000000000000000000000000000000000000000000000000 DUP2 MSTORE PUSH1 0x4 ADD PUSH2 0x38EA SWAP1 PUSH2 0x5A53 JUMP JUMPDEST PUSH1 0x40 MLOAD DUP1 SWAP2 SUB SWAP1 REVERT JUMPDEST POP JUMP JUMPDEST PUSH1 0x0 DUP1 PUSH1 0xCB PUSH1 0x0 DUP6 PUSH1 0x2 DUP2 GT ISZERO PUSH2 0x3910 JUMPI PUSH2 0x390F PUSH2 0x60DA JUMP JUMPDEST JUMPDEST PUSH1 0x2 DUP2 GT ISZERO PUSH2 0x3922 JUMPI PUSH2 0x3921 PUSH2 0x60DA JUMP JUMPDEST JUMPDEST DUP2 MSTORE PUSH1 0x20 ADD SWAP1 DUP2 MSTORE PUSH1 0x20 ADD PUSH1 0x0 KECCAK256 PUSH1 0x0 DUP5 PUSH20 0xFFFFFFFFFFFFFFFFFFFFFFFFFFFFFFFFFFFFFFFF AND PUSH20 0xFFFFFFFFFFFFFFFFFFFFFFFFFFFFFFFFFFFFFFFF AND DUP2 MSTORE PUSH1 0x20 ADD SWAP1 DUP2 MSTORE PUSH1 0x20 ADD PUSH1 0x0 KECCAK256 SLOAD SWAP1 POP PUSH1 0x0 DUP2 GT PUSH2 0x39B3 JUMPI PUSH1 0x40 MLOAD PUSH32 0x8C379A000000000000000000000000000000000000000000000000000000000 DUP2 MSTORE PUSH1 0x4 ADD PUSH2 0x39AA SWAP1 PUSH2 0x5CB3 JUMP JUMPDEST PUSH1 0x40 MLOAD DUP1 SWAP2 SUB SWAP1 REVERT JUMPDEST PUSH1 0x1 DUP2 PUSH2 0x39C0 SWAP2 SWAP1 PUSH2 0x5ECB JUMP JUMPDEST SWAP2 POP POP SWAP3 SWAP2 POP POP JUMP JUMPDEST PUSH1 0x0 PUSH1 0x33 PUSH1 0x0 SWAP1 SLOAD SWAP1 PUSH2 0x100 EXP SWAP1 DIV PUSH20 0xFFFFFFFFFFFFFFFFFFFFFFFFFFFFFFFFFFFFFFFF AND SWAP1 POP DUP2 PUSH1 0x33 PUSH1 0x0 PUSH2 0x100 EXP DUP2 SLOAD DUP2 PUSH20 0xFFFFFFFFFFFFFFFFFFFFFFFFFFFFFFFFFFFFFFFF MUL NOT AND SWAP1 DUP4 PUSH20 0xFFFFFFFFFFFFFFFFFFFFFFFFFFFFFFFFFFFFFFFF AND MUL OR SWAP1 SSTORE POP DUP2 PUSH20 0xFFFFFFFFFFFFFFFFFFFFFFFFFFFFFFFFFFFFFFFF AND DUP2 PUSH20 0xFFFFFFFFFFFFFFFFFFFFFFFFFFFFFFFFFFFFFFFF AND PUSH32 0x8BE0079C531659141344CD1FD0A4F28419497F9722A3DAAFE3B4186F6B6457E0 PUSH1 0x40 MLOAD PUSH1 0x40 MLOAD DUP1 SWAP2 SUB SWAP1 LOG3 POP POP JUMP JUMPDEST PUSH1 0x0 PUSH1 0x1 SWAP1 SLOAD SWAP1 PUSH2 0x100 EXP SWAP1 DIV PUSH1 0xFF AND DUP1 PUSH2 0x3AB5 JUMPI POP PUSH1 0x0 DUP1 SLOAD SWAP1 PUSH2 0x100 EXP SWAP1 DIV PUSH1 0xFF AND ISZERO JUMPDEST PUSH2 0x3AF4 JUMPI PUSH1 0x40 MLOAD PUSH32 0x8C379A000000000000000000000000000000000000000000000000000000000 DUP2 MSTORE PUSH1 0x4 ADD PUSH2 0x3AEB SWAP1 PUSH2 0x5B53 JUMP JUMPDEST PUSH1 0x40 MLOAD DUP1 SWAP2 SUB SWAP1 REVERT JUMPDEST PUSH1 0x0 DUP1 PUSH1 0x1 SWAP1 SLOAD SWAP1 PUSH2 0x100 EXP SWAP1 DIV PUSH1 0xFF AND ISZERO SWAP1 POP DUP1 ISZERO PUSH2 0x3B44 JUMPI PUSH1 0x1 PUSH1 0x0 PUSH1 0x1 PUSH2 0x100 EXP DUP2 SLOAD DUP2 PUSH1 0xFF MUL NOT AND SWAP1 DUP4 ISZERO ISZERO MUL OR SWAP1 SSTORE POP PUSH1 0x1 PUSH1 0x0 DUP1 PUSH2 0x100 EXP DUP2 SLOAD DUP2 PUSH1 0xFF MUL NOT AND SWAP1 DUP4 ISZERO ISZERO MUL OR SWAP1 SSTORE POP JUMPDEST PUSH2 0x3B4C PUSH2 0x425F JUMP JUMPDEST PUSH2 0x3B54 PUSH2 0x4338 JUMP JUMPDEST DUP1 ISZERO PUSH2 0x3B75 JUMPI PUSH1 0x0 DUP1 PUSH1 0x1 PUSH2 0x100 EXP DUP2 SLOAD DUP2 PUSH1 0xFF MUL NOT AND SWAP1 DUP4 ISZERO ISZERO MUL OR SWAP1 SSTORE POP JUMPDEST POP JUMP JUMPDEST PUSH1 0x0 PUSH1 0x1 SWAP1 SLOAD SWAP1 PUSH2 0x100 EXP SWAP1 DIV PUSH1 0xFF AND DUP1 PUSH2 0x3B9E JUMPI POP PUSH1 0x0 DUP1 SLOAD SWAP1 PUSH2 0x100 EXP SWAP1 DIV PUSH1 0xFF AND ISZERO JUMPDEST PUSH2 0x3BDD JUMPI PUSH1 0x40 MLOAD PUSH32 0x8C379A000000000000000000000000000000000000000000000000000000000 DUP2 MSTORE PUSH1 0x4 ADD PUSH2 0x3BD4 SWAP1 PUSH2 0x5B53 JUMP JUMPDEST PUSH1 0x40 MLOAD DUP1 SWAP2 SUB SWAP1 REVERT JUMPDEST PUSH1 0x0 DUP1 PUSH1 0x1 SWAP1 SLOAD SWAP1 PUSH2 0x100 EXP SWAP1 DIV PUSH1 0xFF AND ISZERO SWAP1 POP DUP1 ISZERO PUSH2 0x3C2D JUMPI PUSH1 0x1 PUSH1 0x0 PUSH1 0x1 PUSH2 0x100 EXP DUP2 SLOAD DUP2 PUSH1 0xFF MUL NOT AND SWAP1 DUP4 ISZERO ISZERO MUL OR SWAP1 SSTORE POP PUSH1 0x1 PUSH1 0x0 DUP1 PUSH2 0x100 EXP DUP2 SLOAD DUP2 PUSH1 0xFF MUL NOT AND SWAP1 DUP4 ISZERO ISZERO MUL OR SWAP1 SSTORE POP JUMPDEST PUSH2 0x3C35 PUSH2 0x4421 JUMP JUMPDEST PUSH2 0x3C3D PUSH2 0x44FA JUMP JUMPDEST DUP1 ISZERO PUSH2 0x3C5E JUMPI PUSH1 0x0 DUP1 PUSH1 0x1 PUSH2 0x100 EXP DUP2 SLOAD DUP2 PUSH1 0xFF MUL NOT AND SWAP1 DUP4 ISZERO ISZERO MUL OR SWAP1 SSTORE POP JUMPDEST POP JUMP JUMPDEST PUSH2 0x3C69 PUSH2 0x46D3 JUMP JUMPDEST PUSH2 0x3C71 PUSH2 0x46D3 JUMP JUMPDEST PUSH1 0x0 PUSH2 0x3C7C DUP5 PUSH2 0x2E8A JUMP JUMPDEST SWAP1 POP PUSH1 0x0 DUP2 PUSH1 0x20 ADD MLOAD MLOAD EQ ISZERO PUSH2 0x3CC7 JUMPI PUSH1 0x40 MLOAD PUSH32 0x8C379A000000000000000000000000000000000000000000000000000000000 DUP2 MSTORE PUSH1 0x4 ADD PUSH2 0x3CBE SWAP1 PUSH2 0x5A73 JUMP JUMPDEST PUSH1 0x40 MLOAD DUP1 SWAP2 SUB SWAP1 REVERT JUMPDEST PUSH1 0x0 PUSH2 0x3CD9 PUSH2 0x3CD4 PUSH2 0x3866 JUMP JUMPDEST PUSH2 0x2E8A JUMP JUMPDEST SWAP1 POP PUSH1 0x0 DUP2 PUSH1 0x20 ADD MLOAD MLOAD EQ ISZERO PUSH2 0x3D24 JUMPI PUSH1 0x40 MLOAD PUSH32 0x8C379A000000000000000000000000000000000000000000000000000000000 DUP2 MSTORE PUSH1 0x4 ADD PUSH2 0x3D1B SWAP1 PUSH2 0x5AD3 JUMP JUMPDEST PUSH1 0x40 MLOAD DUP1 SWAP2 SUB SWAP1 REVERT JUMPDEST DUP2 DUP2 SWAP4 POP SWAP4 POP POP POP SWAP2 POP SWAP2 JUMP JUMPDEST PUSH1 0x0 PUSH2 0x3D4E DUP3 PUSH1 0x0 ADD MLOAD DUP5 PUSH1 0x60 ADD MLOAD PUSH2 0x3281 SWAP1 SWAP2 SWAP1 PUSH4 0xFFFFFFFF AND JUMP JUMPDEST SWAP1 POP SWAP3 SWAP2 POP POP JUMP JUMPDEST PUSH2 0x3D5E PUSH2 0x227E JUMP JUMPDEST PUSH2 0x3D9D JUMPI PUSH1 0x40 MLOAD PUSH32 0x8C379A000000000000000000000000000000000000000000000000000000000 DUP2 MSTORE PUSH1 0x4 ADD PUSH2 0x3D94 SWAP1 PUSH2 0x5A33 JUMP JUMPDEST PUSH1 0x40 MLOAD DUP1 SWAP2 SUB SWAP1 REVERT JUMPDEST JUMP JUMPDEST PUSH1 0x0 DUP2 MLOAD EQ ISZERO PUSH2 0x3DE4 JUMPI PUSH1 0x40 MLOAD PUSH32 0x8C379A000000000000000000000000000000000000000000000000000000000 DUP2 MSTORE PUSH1 0x4 ADD PUSH2 0x3DDB SWAP1 PUSH2 0x58F3 JUMP JUMPDEST PUSH1 0x40 MLOAD DUP1 SWAP2 SUB SWAP1 REVERT JUMPDEST POP JUMP JUMPDEST PUSH1 0x0 PUSH2 0x3DF2 DUP3 PUSH2 0x2E8A JUMP JUMPDEST PUSH1 0x20 ADD MLOAD MLOAD EQ PUSH2 0x3E37 JUMPI PUSH1 0x40 MLOAD PUSH32 0x8C379A000000000000000000000000000000000000000000000000000000000 DUP2 MSTORE PUSH1 0x4 ADD PUSH2 0x3E2E SWAP1 PUSH2 0x5993 JUMP JUMPDEST PUSH1 0x40 MLOAD DUP1 SWAP2 SUB SWAP1 REVERT JUMPDEST POP JUMP JUMPDEST PUSH1 0x40 MLOAD DUP1 PUSH1 0xE0 ADD PUSH1 0x40 MSTORE DUP1 DUP6 DUP2 MSTORE PUSH1 0x20 ADD DUP4 DUP2 MSTORE PUSH1 0x20 ADD DUP3 PUSH1 0x2 DUP2 GT ISZERO PUSH2 0x3E64 JUMPI PUSH2 0x3E63 PUSH2 0x60DA JUMP JUMPDEST JUMPDEST DUP2 MSTORE PUSH1 0x20 ADD DUP5 DUP2 MSTORE PUSH1 0x20 ADD PUSH1 0x1 DUP1 DUP2 GT ISZERO PUSH2 0x3E82 JUMPI PUSH2 0x3E81 PUSH2 0x60DA JUMP JUMPDEST JUMPDEST DUP2 MSTORE PUSH1 0x20 ADD PUSH1 0x1 DUP1 DUP2 GT ISZERO PUSH2 0x3E9A JUMPI PUSH2 0x3E99 PUSH2 0x60DA JUMP JUMPDEST JUMPDEST DUP2 MSTORE PUSH1 0x20 ADD PUSH1 0x40 MLOAD DUP1 PUSH1 0x20 ADD PUSH1 0x40 MSTORE DUP1 PUSH1 0x0 DUP2 MSTORE POP DUP2 MSTORE POP PUSH1 0xC9 PUSH1 0x0 DUP8 PUSH20 0xFFFFFFFFFFFFFFFFFFFFFFFFFFFFFFFFFFFFFFFF AND PUSH20 0xFFFFFFFFFFFFFFFFFFFFFFFFFFFFFFFFFFFFFFFF AND DUP2 MSTORE PUSH1 0x20 ADD SWAP1 DUP2 MSTORE PUSH1 0x20 ADD PUSH1 0x0 KECCAK256 PUSH1 0x0 DUP3 ADD MLOAD DUP2 PUSH1 0x0 ADD SWAP1 DUP1 MLOAD SWAP1 PUSH1 0x20 ADD SWAP1 PUSH2 0x3F0D SWAP3 SWAP2 SWAP1 PUSH2 0x464D JUMP JUMPDEST POP PUSH1 0x20 DUP3 ADD MLOAD DUP2 PUSH1 0x1 ADD SWAP1 DUP1 MLOAD SWAP1 PUSH1 0x20 ADD SWAP1 PUSH2 0x3F2A SWAP3 SWAP2 SWAP1 PUSH2 0x464D JUMP JUMPDEST POP PUSH1 0x40 DUP3 ADD MLOAD DUP2 PUSH1 0x2 ADD PUSH1 0x0 PUSH2 0x100 EXP DUP2 SLOAD DUP2 PUSH1 0xFF MUL NOT AND SWAP1 DUP4 PUSH1 0x2 DUP2 GT ISZERO PUSH2 0x3F56 JUMPI PUSH2 0x3F55 PUSH2 0x60DA JUMP JUMPDEST JUMPDEST MUL OR SWAP1 SSTORE POP PUSH1 0x60 DUP3 ADD MLOAD DUP2 PUSH1 0x3 ADD SWAP1 DUP1 MLOAD SWAP1 PUSH1 0x20 ADD SWAP1 PUSH2 0x3F77 SWAP3 SWAP2 SWAP1 PUSH2 0x464D JUMP JUMPDEST POP PUSH1 0x80 DUP3 ADD MLOAD DUP2 PUSH1 0x4 ADD PUSH1 0x0 PUSH2 0x100 EXP DUP2 SLOAD DUP2 PUSH1 0xFF MUL NOT AND SWAP1 DUP4 PUSH1 0x1 DUP2 GT ISZERO PUSH2 0x3FA3 JUMPI PUSH2 0x3FA2 PUSH2 0x60DA JUMP JUMPDEST JUMPDEST MUL OR SWAP1 SSTORE POP PUSH1 0xA0 DUP3 ADD MLOAD DUP2 PUSH1 0x4 ADD PUSH1 0x1 PUSH2 0x100 EXP DUP2 SLOAD DUP2 PUSH1 0xFF MUL NOT AND SWAP1 DUP4 PUSH1 0x1 DUP2 GT ISZERO PUSH2 0x3FD3 JUMPI PUSH2 0x3FD2 PUSH2 0x60DA JUMP JUMPDEST JUMPDEST MUL OR SWAP1 SSTORE POP PUSH1 0xC0 DUP3 ADD MLOAD DUP2 PUSH1 0x5 ADD SWAP1 DUP1 MLOAD SWAP1 PUSH1 0x20 ADD SWAP1 PUSH2 0x3FF4 SWAP3 SWAP2 SWAP1 PUSH2 0x464D JUMP JUMPDEST POP SWAP1 POP POP POP POP POP POP POP JUMP JUMPDEST PUSH1 0x0 PUSH1 0x1 DUP1 DUP2 GT ISZERO PUSH2 0x4014 JUMPI PUSH2 0x4013 PUSH2 0x60DA JUMP JUMPDEST JUMPDEST DUP4 PUSH1 0x1 DUP2 GT ISZERO PUSH2 0x4027 JUMPI PUSH2 0x4026 PUSH2 0x60DA JUMP JUMPDEST JUMPDEST EQ DUP1 ISZERO PUSH2 0x4057 JUMPI POP PUSH1 0x1 DUP1 DUP2 GT ISZERO PUSH2 0x4042 JUMPI PUSH2 0x4041 PUSH2 0x60DA JUMP JUMPDEST JUMPDEST DUP3 PUSH1 0x1 DUP2 GT ISZERO PUSH2 0x4055 JUMPI PUSH2 0x4054 PUSH2 0x60DA JUMP JUMPDEST JUMPDEST EQ JUMPDEST SWAP1 POP SWAP3 SWAP2 POP POP JUMP JUMPDEST PUSH1 0x0 DUP2 SWAP1 POP SWAP2 SWAP1 POP JUMP JUMPDEST PUSH2 0x4072 DUP2 PUSH2 0x45D3 JUMP JUMPDEST PUSH2 0x40B1 JUMPI PUSH1 0x40 MLOAD PUSH32 0x8C379A000000000000000000000000000000000000000000000000000000000 DUP2 MSTORE PUSH1 0x4 ADD PUSH2 0x40A8 SWAP1 PUSH2 0x5B93 JUMP JUMPDEST PUSH1 0x40 MLOAD DUP1 SWAP2 SUB SWAP1 REVERT JUMPDEST DUP1 PUSH2 0x40DE PUSH32 0x360894A13BA1A3210667C828492DB98DCA3E2076CC3735A920A3CA505D382BBC PUSH1 0x0 SHL PUSH2 0x405F JUMP JUMPDEST PUSH1 0x0 ADD PUSH1 0x0 PUSH2 0x100 EXP DUP2 SLOAD DUP2 PUSH20 0xFFFFFFFFFFFFFFFFFFFFFFFFFFFFFFFFFFFFFFFF MUL NOT AND SWAP1 DUP4 PUSH20 0xFFFFFFFFFFFFFFFFFFFFFFFFFFFFFFFFFFFFFFFF AND MUL OR SWAP1 SSTORE POP POP JUMP JUMPDEST PUSH1 0x60 PUSH2 0x412D DUP4 PUSH2 0x45D3 JUMP JUMPDEST PUSH2 0x416C JUMPI PUSH1 0x40 MLOAD PUSH32 0x8C379A000000000000000000000000000000000000000000000000000000000 DUP2 MSTORE PUSH1 0x4 ADD PUSH2 0x4163 SWAP1 PUSH2 0x5BF3 JUMP JUMPDEST PUSH1 0x40 MLOAD DUP1 SWAP2 SUB SWAP1 REVERT JUMPDEST PUSH1 0x0 DUP1 DUP5 PUSH20 0xFFFFFFFFFFFFFFFFFFFFFFFFFFFFFFFFFFFFFFFF AND DUP5 PUSH1 0x40 MLOAD PUSH2 0x4194 SWAP2 SWAP1 PUSH2 0x570A JUMP JUMPDEST PUSH1 0x0 PUSH1 0x40 MLOAD DUP1 DUP4 SUB DUP2 DUP6 GAS DELEGATECALL SWAP2 POP POP RETURNDATASIZE DUP1 PUSH1 0x0 DUP2 EQ PUSH2 0x41CF JUMPI PUSH1 0x40 MLOAD SWAP2 POP PUSH1 0x1F NOT PUSH1 0x3F RETURNDATASIZE ADD AND DUP3 ADD PUSH1 0x40 MSTORE RETURNDATASIZE DUP3 MSTORE RETURNDATASIZE PUSH1 0x0 PUSH1 0x20 DUP5 ADD RETURNDATACOPY PUSH2 0x41D4 JUMP JUMPDEST PUSH1 0x60 SWAP2 POP JUMPDEST POP SWAP2 POP SWAP2 POP PUSH2 0x41FC DUP3 DUP3 PUSH1 0x40 MLOAD DUP1 PUSH1 0x60 ADD PUSH1 0x40 MSTORE DUP1 PUSH1 0x27 DUP2 MSTORE PUSH1 0x20 ADD PUSH2 0x6ADB PUSH1 0x27 SWAP2 CODECOPY PUSH2 0x45E6 JUMP JUMPDEST SWAP3 POP POP POP SWAP3 SWAP2 POP POP JUMP JUMPDEST PUSH1 0x0 DUP2 SWAP1 POP SWAP2 SWAP1 POP JUMP JUMPDEST PUSH2 0x4219 DUP2 PUSH2 0x4069 JUMP JUMPDEST DUP1 PUSH20 0xFFFFFFFFFFFFFFFFFFFFFFFFFFFFFFFFFFFFFFFF AND PUSH32 0xBC7CD75A20EE27FD9ADEBAB32041F755214DBC6BFFA90CC0225B39DA2E5C2D3B PUSH1 0x40 MLOAD PUSH1 0x40 MLOAD DUP1 SWAP2 SUB SWAP1 LOG2 POP JUMP JUMPDEST PUSH1 0x0 PUSH1 0x1 SWAP1 SLOAD SWAP1 PUSH2 0x100 EXP SWAP1 DIV PUSH1 0xFF AND DUP1 PUSH2 0x4285 JUMPI POP PUSH1 0x0 DUP1 SLOAD SWAP1 PUSH2 0x100 EXP SWAP1 DIV PUSH1 0xFF AND ISZERO JUMPDEST PUSH2 0x42C4 JUMPI PUSH1 0x40 MLOAD PUSH32 0x8C379A000000000000000000000000000000000000000000000000000000000 DUP2 MSTORE PUSH1 0x4 ADD PUSH2 0x42BB SWAP1 PUSH2 0x5B53 JUMP JUMPDEST PUSH1 0x40 MLOAD DUP1 SWAP2 SUB SWAP1 REVERT JUMPDEST PUSH1 0x0 DUP1 PUSH1 0x1 SWAP1 SLOAD SWAP1 PUSH2 0x100 EXP SWAP1 DIV PUSH1 0xFF AND ISZERO SWAP1 POP DUP1 ISZERO PUSH2 0x4314 JUMPI PUSH1 0x1 PUSH1 0x0 PUSH1 0x1 PUSH2 0x100 EXP DUP2 SLOAD DUP2 PUSH1 0xFF MUL NOT AND SWAP1 DUP4 ISZERO ISZERO MUL OR SWAP1 SSTORE POP PUSH1 0x1 PUSH1 0x0 DUP1 PUSH2 0x100 EXP DUP2 SLOAD DUP2 PUSH1 0xFF MUL NOT AND SWAP1 DUP4 ISZERO ISZERO MUL OR SWAP1 SSTORE POP JUMPDEST DUP1 ISZERO PUSH2 0x4335 JUMPI PUSH1 0x0 DUP1 PUSH1 0x1 PUSH2 0x100 EXP DUP2 SLOAD DUP2 PUSH1 0xFF MUL NOT AND SWAP1 DUP4 ISZERO ISZERO MUL OR SWAP1 SSTORE POP JUMPDEST POP JUMP JUMPDEST PUSH1 0x0 PUSH1 0x1 SWAP1 SLOAD SWAP1 PUSH2 0x100 EXP SWAP1 DIV PUSH1 0xFF AND DUP1 PUSH2 0x435E JUMPI POP PUSH1 0x0 DUP1 SLOAD SWAP1 PUSH2 0x100 EXP SWAP1 DIV PUSH1 0xFF AND ISZERO JUMPDEST PUSH2 0x439D JUMPI PUSH1 0x40 MLOAD PUSH32 0x8C379A000000000000000000000000000000000000000000000000000000000 DUP2 MSTORE PUSH1 0x4 ADD PUSH2 0x4394 SWAP1 PUSH2 0x5B53 JUMP JUMPDEST PUSH1 0x40 MLOAD DUP1 SWAP2 SUB SWAP1 REVERT JUMPDEST PUSH1 0x0 DUP1 PUSH1 0x1 SWAP1 SLOAD SWAP1 PUSH2 0x100 EXP SWAP1 DIV PUSH1 0xFF AND ISZERO SWAP1 POP DUP1 ISZERO PUSH2 0x43ED JUMPI PUSH1 0x1 PUSH1 0x0 PUSH1 0x1 PUSH2 0x100 EXP DUP2 SLOAD DUP2 PUSH1 0xFF MUL NOT AND SWAP1 DUP4 ISZERO ISZERO MUL OR SWAP1 SSTORE POP PUSH1 0x1 PUSH1 0x0 DUP1 PUSH2 0x100 EXP DUP2 SLOAD DUP2 PUSH1 0xFF MUL NOT AND SWAP1 DUP4 ISZERO ISZERO MUL OR SWAP1 SSTORE POP JUMPDEST PUSH2 0x43FD PUSH2 0x43F8 PUSH2 0x3866 JUMP JUMPDEST PUSH2 0x39C9 JUMP JUMPDEST DUP1 ISZERO PUSH2 0x441E JUMPI PUSH1 0x0 DUP1 PUSH1 0x1 PUSH2 0x100 EXP DUP2 SLOAD DUP2 PUSH1 0xFF MUL NOT AND SWAP1 DUP4 ISZERO ISZERO MUL OR SWAP1 SSTORE POP JUMPDEST POP JUMP JUMPDEST PUSH1 0x0 PUSH1 0x1 SWAP1 SLOAD SWAP1 PUSH2 0x100 EXP SWAP1 DIV PUSH1 0xFF AND DUP1 PUSH2 0x4447 JUMPI POP PUSH1 0x0 DUP1 SLOAD SWAP1 PUSH2 0x100 EXP SWAP1 DIV PUSH1 0xFF AND ISZERO JUMPDEST PUSH2 0x4486 JUMPI PUSH1 0x40 MLOAD PUSH32 0x8C379A000000000000000000000000000000000000000000000000000000000 DUP2 MSTORE PUSH1 0x4 ADD PUSH2 0x447D SWAP1 PUSH2 0x5B53 JUMP JUMPDEST PUSH1 0x40 MLOAD DUP1 SWAP2 SUB SWAP1 REVERT JUMPDEST PUSH1 0x0 DUP1 PUSH1 0x1 SWAP1 SLOAD SWAP1 PUSH2 0x100 EXP SWAP1 DIV PUSH1 0xFF AND ISZERO SWAP1 POP DUP1 ISZERO PUSH2 0x44D6 JUMPI PUSH1 0x1 PUSH1 0x0 PUSH1 0x1 PUSH2 0x100 EXP DUP2 SLOAD DUP2 PUSH1 0xFF MUL NOT AND SWAP1 DUP4 ISZERO ISZERO MUL OR SWAP1 SSTORE POP PUSH1 0x1 PUSH1 0x0 DUP1 PUSH2 0x100 EXP DUP2 SLOAD DUP2 PUSH1 0xFF MUL NOT AND SWAP1 DUP4 ISZERO ISZERO MUL OR SWAP1 SSTORE POP JUMPDEST DUP1 ISZERO PUSH2 0x44F7 JUMPI PUSH1 0x0 DUP1 PUSH1 0x1 PUSH2 0x100 EXP DUP2 SLOAD DUP2 PUSH1 0xFF MUL NOT AND SWAP1 DUP4 ISZERO ISZERO MUL OR SWAP1 SSTORE POP JUMPDEST POP JUMP JUMPDEST PUSH1 0x0 PUSH1 0x1 SWAP1 SLOAD SWAP1 PUSH2 0x100 EXP SWAP1 DIV PUSH1 0xFF AND DUP1 PUSH2 0x4520 JUMPI POP PUSH1 0x0 DUP1 SLOAD SWAP1 PUSH2 0x100 EXP SWAP1 DIV PUSH1 0xFF AND ISZERO JUMPDEST PUSH2 0x455F JUMPI PUSH1 0x40 MLOAD PUSH32 0x8C379A000000000000000000000000000000000000000000000000000000000 DUP2 MSTORE PUSH1 0x4 ADD PUSH2 0x4556 SWAP1 PUSH2 0x5B53 JUMP JUMPDEST PUSH1 0x40 MLOAD DUP1 SWAP2 SUB SWAP1 REVERT JUMPDEST PUSH1 0x0 DUP1 PUSH1 0x1 SWAP1 SLOAD SWAP1 PUSH2 0x100 EXP SWAP1 DIV PUSH1 0xFF AND ISZERO SWAP1 POP DUP1 ISZERO PUSH2 0x45AF JUMPI PUSH1 0x1 PUSH1 0x0 PUSH1 0x1 PUSH2 0x100 EXP DUP2 SLOAD DUP2 PUSH1 0xFF MUL NOT AND SWAP1 DUP4 ISZERO ISZERO MUL OR SWAP1 SSTORE POP PUSH1 0x1 PUSH1 0x0 DUP1 PUSH2 0x100 EXP DUP2 SLOAD DUP2 PUSH1 0xFF MUL NOT AND SWAP1 DUP4 ISZERO ISZERO MUL OR SWAP1 SSTORE POP JUMPDEST DUP1 ISZERO PUSH2 0x45D0 JUMPI PUSH1 0x0 DUP1 PUSH1 0x1 PUSH2 0x100 EXP DUP2 SLOAD DUP2 PUSH1 0xFF MUL NOT AND SWAP1 DUP4 ISZERO ISZERO MUL OR SWAP1 SSTORE POP JUMPDEST POP JUMP JUMPDEST PUSH1 0x0 DUP1 DUP3 EXTCODESIZE SWAP1 POP PUSH1 0x0 DUP2 GT SWAP2 POP POP SWAP2 SWAP1 POP JUMP JUMPDEST PUSH1 0x60 DUP4 ISZERO PUSH2 0x45F6 JUMPI DUP3 SWAP1 POP PUSH2 0x4646 JUMP JUMPDEST PUSH1 0x0 DUP4 MLOAD GT ISZERO PUSH2 0x4609 JUMPI DUP3 MLOAD DUP1 DUP5 PUSH1 0x20 ADD REVERT JUMPDEST DUP2 PUSH1 0x40 MLOAD PUSH32 0x8C379A000000000000000000000000000000000000000000000000000000000 DUP2 MSTORE PUSH1 0x4 ADD PUSH2 0x463D SWAP2 SWAP1 PUSH2 0x5826 JUMP JUMPDEST PUSH1 0x40 MLOAD DUP1 SWAP2 SUB SWAP1 REVERT JUMPDEST SWAP4 SWAP3 POP POP POP JUMP JUMPDEST DUP3 DUP1 SLOAD PUSH2 0x4659 SWAP1 PUSH2 0x5FFF JUMP JUMPDEST SWAP1 PUSH1 0x0 MSTORE PUSH1 0x20 PUSH1 0x0 KECCAK256 SWAP1 PUSH1 0x1F ADD PUSH1 0x20 SWAP1 DIV DUP2 ADD SWAP3 DUP3 PUSH2 0x467B JUMPI PUSH1 0x0 DUP6 SSTORE PUSH2 0x46C2 JUMP JUMPDEST DUP3 PUSH1 0x1F LT PUSH2 0x4694 JUMPI DUP1 MLOAD PUSH1 0xFF NOT AND DUP4 DUP1 ADD OR DUP6 SSTORE PUSH2 0x46C2 JUMP JUMPDEST DUP3 DUP1 ADD PUSH1 0x1 ADD DUP6 SSTORE DUP3 ISZERO PUSH2 0x46C2 JUMPI SWAP2 DUP3 ADD JUMPDEST DUP3 DUP2 GT ISZERO PUSH2 0x46C1 JUMPI DUP3 MLOAD DUP3 SSTORE SWAP2 PUSH1 0x20 ADD SWAP2 SWAP1 PUSH1 0x1 ADD SWAP1 PUSH2 0x46A6 JUMP JUMPDEST JUMPDEST POP SWAP1 POP PUSH2 0x46CF SWAP2 SWAP1 PUSH2 0x4746 JUMP JUMPDEST POP SWAP1 JUMP JUMPDEST PUSH1 0x40 MLOAD DUP1 PUSH1 0xE0 ADD PUSH1 0x40 MSTORE DUP1 PUSH1 0x60 DUP2 MSTORE PUSH1 0x20 ADD PUSH1 0x60 DUP2 MSTORE PUSH1 0x20 ADD PUSH1 0x0 PUSH1 0x2 DUP2 GT ISZERO PUSH2 0x4700 JUMPI PUSH2 0x46FF PUSH2 0x60DA JUMP JUMPDEST JUMPDEST DUP2 MSTORE PUSH1 0x20 ADD PUSH1 0x60 DUP2 MSTORE PUSH1 0x20 ADD PUSH1 0x0 PUSH1 0x1 DUP2 GT ISZERO PUSH2 0x4720 JUMPI PUSH2 0x471F PUSH2 0x60DA JUMP JUMPDEST JUMPDEST DUP2 MSTORE PUSH1 0x20 ADD PUSH1 0x0 PUSH1 0x1 DUP2 GT ISZERO PUSH2 0x4739 JUMPI PUSH2 0x4738 PUSH2 0x60DA JUMP JUMPDEST JUMPDEST DUP2 MSTORE PUSH1 0x20 ADD PUSH1 0x60 DUP2 MSTORE POP SWAP1 JUMP JUMPDEST JUMPDEST DUP1 DUP3 GT ISZERO PUSH2 0x475F JUMPI PUSH1 0x0 DUP2 PUSH1 0x0 SWAP1 SSTORE POP PUSH1 0x1 ADD PUSH2 0x4747 JUMP JUMPDEST POP SWAP1 JUMP JUMPDEST PUSH1 0x0 PUSH2 0x4776 PUSH2 0x4771 DUP5 PUSH2 0x5D18 JUMP JUMPDEST PUSH2 0x5CF3 JUMP JUMPDEST SWAP1 POP DUP1 DUP4 DUP3 MSTORE PUSH1 0x20 DUP3 ADD SWAP1 POP DUP3 DUP6 PUSH1 0x20 DUP7 MUL DUP3 ADD GT ISZERO PUSH2 0x4799 JUMPI PUSH2 0x4798 PUSH2 0x619B JUMP JUMPDEST JUMPDEST PUSH1 0x0 JUMPDEST DUP6 DUP2 LT ISZERO PUSH2 0x47C9 JUMPI DUP2 PUSH2 0x47AF DUP9 DUP3 PUSH2 0x48E5 JUMP JUMPDEST DUP5 MSTORE PUSH1 0x20 DUP5 ADD SWAP4 POP PUSH1 0x20 DUP4 ADD SWAP3 POP POP PUSH1 0x1 DUP2 ADD SWAP1 POP PUSH2 0x479C JUMP JUMPDEST POP POP POP SWAP4 SWAP3 POP POP POP JUMP JUMPDEST PUSH1 0x0 PUSH2 0x47E6 PUSH2 0x47E1 DUP5 PUSH2 0x5D44 JUMP JUMPDEST PUSH2 0x5CF3 JUMP JUMPDEST SWAP1 POP DUP1 DUP4 DUP3 MSTORE PUSH1 0x20 DUP3 ADD SWAP1 POP DUP3 DUP6 PUSH1 0x20 DUP7 MUL DUP3 ADD GT ISZERO PUSH2 0x4809 JUMPI PUSH2 0x4808 PUSH2 0x619B JUMP JUMPDEST JUMPDEST PUSH1 0x0 JUMPDEST DUP6 DUP2 LT ISZERO PUSH2 0x4857 JUMPI DUP2 CALLDATALOAD PUSH8 0xFFFFFFFFFFFFFFFF DUP2 GT ISZERO PUSH2 0x482F JUMPI PUSH2 0x482E PUSH2 0x6196 JUMP JUMPDEST JUMPDEST DUP1 DUP7 ADD PUSH2 0x483C DUP10 DUP3 PUSH2 0x49D8 JUMP JUMPDEST DUP6 MSTORE PUSH1 0x20 DUP6 ADD SWAP5 POP PUSH1 0x20 DUP5 ADD SWAP4 POP POP POP PUSH1 0x1 DUP2 ADD SWAP1 POP PUSH2 0x480C JUMP JUMPDEST POP POP POP SWAP4 SWAP3 POP POP POP JUMP JUMPDEST PUSH1 0x0 PUSH2 0x4874 PUSH2 0x486F DUP5 PUSH2 0x5D70 JUMP JUMPDEST PUSH2 0x5CF3 JUMP JUMPDEST SWAP1 POP DUP3 DUP2 MSTORE PUSH1 0x20 DUP2 ADD DUP5 DUP5 DUP5 ADD GT ISZERO PUSH2 0x4890 JUMPI PUSH2 0x488F PUSH2 0x61A0 JUMP JUMPDEST JUMPDEST PUSH2 0x489B DUP5 DUP3 DUP6 PUSH2 0x5FBD JUMP JUMPDEST POP SWAP4 SWAP3 POP POP POP JUMP JUMPDEST PUSH1 0x0 PUSH2 0x48B6 PUSH2 0x48B1 DUP5 PUSH2 0x5DA1 JUMP JUMPDEST PUSH2 0x5CF3 JUMP JUMPDEST SWAP1 POP DUP3 DUP2 MSTORE PUSH1 0x20 DUP2 ADD DUP5 DUP5 DUP5 ADD GT ISZERO PUSH2 0x48D2 JUMPI PUSH2 0x48D1 PUSH2 0x61A0 JUMP JUMPDEST JUMPDEST PUSH2 0x48DD DUP5 DUP3 DUP6 PUSH2 0x5FBD JUMP JUMPDEST POP SWAP4 SWAP3 POP POP POP JUMP JUMPDEST PUSH1 0x0 DUP2 CALLDATALOAD SWAP1 POP PUSH2 0x48F4 DUP2 PUSH2 0x6A75 JUMP JUMPDEST SWAP3 SWAP2 POP POP JUMP JUMPDEST PUSH1 0x0 DUP3 PUSH1 0x1F DUP4 ADD SLT PUSH2 0x490F JUMPI PUSH2 0x490E PUSH2 0x6196 JUMP JUMPDEST JUMPDEST DUP2 CALLDATALOAD PUSH2 0x491F DUP5 DUP3 PUSH1 0x20 DUP7 ADD PUSH2 0x4763 JUMP JUMPDEST SWAP2 POP POP SWAP3 SWAP2 POP POP JUMP JUMPDEST PUSH1 0x0 DUP3 PUSH1 0x1F DUP4 ADD SLT PUSH2 0x493D JUMPI PUSH2 0x493C PUSH2 0x6196 JUMP JUMPDEST JUMPDEST DUP2 CALLDATALOAD PUSH2 0x494D DUP5 DUP3 PUSH1 0x20 DUP7 ADD PUSH2 0x47D3 JUMP JUMPDEST SWAP2 POP POP SWAP3 SWAP2 POP POP JUMP JUMPDEST PUSH1 0x0 DUP2 CALLDATALOAD SWAP1 POP PUSH2 0x4965 DUP2 PUSH2 0x6A8C JUMP JUMPDEST SWAP3 SWAP2 POP POP JUMP JUMPDEST PUSH1 0x0 DUP2 CALLDATALOAD SWAP1 POP PUSH2 0x497A DUP2 PUSH2 0x6AA3 JUMP JUMPDEST SWAP3 SWAP2 POP POP JUMP JUMPDEST PUSH1 0x0 DUP3 PUSH1 0x1F DUP4 ADD SLT PUSH2 0x4995 JUMPI PUSH2 0x4994 PUSH2 0x6196 JUMP JUMPDEST JUMPDEST DUP2 CALLDATALOAD PUSH2 0x49A5 DUP5 DUP3 PUSH1 0x20 DUP7 ADD PUSH2 0x4861 JUMP JUMPDEST SWAP2 POP POP SWAP3 SWAP2 POP POP JUMP JUMPDEST PUSH1 0x0 DUP2 CALLDATALOAD SWAP1 POP PUSH2 0x49BD DUP2 PUSH2 0x6ABA JUMP JUMPDEST SWAP3 SWAP2 POP POP JUMP JUMPDEST PUSH1 0x0 DUP2 CALLDATALOAD SWAP1 POP PUSH2 0x49D2 DUP2 PUSH2 0x6ACA JUMP JUMPDEST SWAP3 SWAP2 POP POP JUMP JUMPDEST PUSH1 0x0 DUP3 PUSH1 0x1F DUP4 ADD SLT PUSH2 0x49ED JUMPI PUSH2 0x49EC PUSH2 0x6196 JUMP JUMPDEST JUMPDEST DUP2 CALLDATALOAD PUSH2 0x49FD DUP5 DUP3 PUSH1 0x20 DUP7 ADD PUSH2 0x48A3 JUMP JUMPDEST SWAP2 POP POP SWAP3 SWAP2 POP POP JUMP JUMPDEST PUSH1 0x0 PUSH1 0x20 DUP3 DUP5 SUB SLT ISZERO PUSH2 0x4A1C JUMPI PUSH2 0x4A1B PUSH2 0x61AA JUMP JUMPDEST JUMPDEST PUSH1 0x0 PUSH2 0x4A2A DUP5 DUP3 DUP6 ADD PUSH2 0x48E5 JUMP JUMPDEST SWAP2 POP POP SWAP3 SWAP2 POP POP JUMP JUMPDEST PUSH1 0x0 DUP1 PUSH1 0x40 DUP4 DUP6 SUB SLT ISZERO PUSH2 0x4A4A JUMPI PUSH2 0x4A49 PUSH2 0x61AA JUMP JUMPDEST JUMPDEST PUSH1 0x0 PUSH2 0x4A58 DUP6 DUP3 DUP7 ADD PUSH2 0x48E5 JUMP JUMPDEST SWAP3 POP POP PUSH1 0x20 PUSH2 0x4A69 DUP6 DUP3 DUP7 ADD PUSH2 0x48E5 JUMP JUMPDEST SWAP2 POP POP SWAP3 POP SWAP3 SWAP1 POP JUMP JUMPDEST PUSH1 0x0 DUP1 PUSH1 0x0 PUSH1 0x60 DUP5 DUP7 SUB SLT ISZERO PUSH2 0x4A8C JUMPI PUSH2 0x4A8B PUSH2 0x61AA JUMP JUMPDEST JUMPDEST PUSH1 0x0 PUSH2 0x4A9A DUP7 DUP3 DUP8 ADD PUSH2 0x48E5 JUMP JUMPDEST SWAP4 POP POP PUSH1 0x20 PUSH2 0x4AAB DUP7 DUP3 DUP8 ADD PUSH2 0x48E5 JUMP JUMPDEST SWAP3 POP POP PUSH1 0x40 PUSH2 0x4ABC DUP7 DUP3 DUP8 ADD PUSH2 0x4956 JUMP JUMPDEST SWAP2 POP POP SWAP3 POP SWAP3 POP SWAP3 JUMP JUMPDEST PUSH1 0x0 DUP1 PUSH1 0x0 PUSH1 0x60 DUP5 DUP7 SUB SLT ISZERO PUSH2 0x4ADF JUMPI PUSH2 0x4ADE PUSH2 0x61AA JUMP JUMPDEST JUMPDEST PUSH1 0x0 PUSH2 0x4AED DUP7 DUP3 DUP8 ADD PUSH2 0x48E5 JUMP JUMPDEST SWAP4 POP POP PUSH1 0x20 PUSH2 0x4AFE DUP7 DUP3 DUP8 ADD PUSH2 0x48E5 JUMP JUMPDEST SWAP3 POP POP PUSH1 0x40 PUSH2 0x4B0F DUP7 DUP3 DUP8 ADD PUSH2 0x496B JUMP JUMPDEST SWAP2 POP POP SWAP3 POP SWAP3 POP SWAP3 JUMP JUMPDEST PUSH1 0x0 DUP1 PUSH1 0x40 DUP4 DUP6 SUB SLT ISZERO PUSH2 0x4B30 JUMPI PUSH2 0x4B2F PUSH2 0x61AA JUMP JUMPDEST JUMPDEST PUSH1 0x0 PUSH2 0x4B3E DUP6 DUP3 DUP7 ADD PUSH2 0x48E5 JUMP JUMPDEST SWAP3 POP POP PUSH1 0x20 DUP4 ADD CALLDATALOAD PUSH8 0xFFFFFFFFFFFFFFFF DUP2 GT ISZERO PUSH2 0x4B5F JUMPI PUSH2 0x4B5E PUSH2 0x61A5 JUMP JUMPDEST JUMPDEST PUSH2 0x4B6B DUP6 DUP3 DUP7 ADD PUSH2 0x4980 JUMP JUMPDEST SWAP2 POP POP SWAP3 POP SWAP3 SWAP1 POP JUMP JUMPDEST PUSH1 0x0 DUP1 PUSH1 0x40 DUP4 DUP6 SUB SLT ISZERO PUSH2 0x4B8C JUMPI PUSH2 0x4B8B PUSH2 0x61AA JUMP JUMPDEST JUMPDEST PUSH1 0x0 PUSH2 0x4B9A DUP6 DUP3 DUP7 ADD PUSH2 0x48E5 JUMP JUMPDEST SWAP3 POP POP PUSH1 0x20 PUSH2 0x4BAB DUP6 DUP3 DUP7 ADD PUSH2 0x49AE JUMP JUMPDEST SWAP2 POP POP SWAP3 POP SWAP3 SWAP1 POP JUMP JUMPDEST PUSH1 0x0 DUP1 PUSH1 0x0 PUSH1 0x60 DUP5 DUP7 SUB SLT ISZERO PUSH2 0x4BCE JUMPI PUSH2 0x4BCD PUSH2 0x61AA JUMP JUMPDEST JUMPDEST PUSH1 0x0 PUSH2 0x4BDC DUP7 DUP3 DUP8 ADD PUSH2 0x48E5 JUMP JUMPDEST SWAP4 POP POP PUSH1 0x20 PUSH2 0x4BED DUP7 DUP3 DUP8 ADD PUSH2 0x49C3 JUMP JUMPDEST SWAP3 POP POP PUSH1 0x40 PUSH2 0x4BFE DUP7 DUP3 DUP8 ADD PUSH2 0x4956 JUMP JUMPDEST SWAP2 POP POP SWAP3 POP SWAP3 POP SWAP3 JUMP JUMPDEST PUSH1 0x0 DUP1 PUSH1 0x0 PUSH1 0x60 DUP5 DUP7 SUB SLT ISZERO PUSH2 0x4C21 JUMPI PUSH2 0x4C20 PUSH2 0x61AA JUMP JUMPDEST JUMPDEST PUSH1 0x0 PUSH2 0x4C2F DUP7 DUP3 DUP8 ADD PUSH2 0x48E5 JUMP JUMPDEST SWAP4 POP POP PUSH1 0x20 DUP5 ADD CALLDATALOAD PUSH8 0xFFFFFFFFFFFFFFFF DUP2 GT ISZERO PUSH2 0x4C50 JUMPI PUSH2 0x4C4F PUSH2 0x61A5 JUMP JUMPDEST JUMPDEST PUSH2 0x4C5C DUP7 DUP3 DUP8 ADD PUSH2 0x49D8 JUMP JUMPDEST SWAP3 POP POP PUSH1 0x40 DUP5 ADD CALLDATALOAD PUSH8 0xFFFFFFFFFFFFFFFF DUP2 GT ISZERO PUSH2 0x4C7D JUMPI PUSH2 0x4C7C PUSH2 0x61A5 JUMP JUMPDEST JUMPDEST PUSH2 0x4C89 DUP7 DUP3 DUP8 ADD PUSH2 0x49D8 JUMP JUMPDEST SWAP2 POP POP SWAP3 POP SWAP3 POP SWAP3 JUMP JUMPDEST PUSH1 0x0 DUP1 PUSH1 0x0 DUP1 PUSH1 0x80 DUP6 DUP8 SUB SLT ISZERO PUSH2 0x4CAD JUMPI PUSH2 0x4CAC PUSH2 0x61AA JUMP JUMPDEST JUMPDEST PUSH1 0x0 PUSH2 0x4CBB DUP8 DUP3 DUP9 ADD PUSH2 0x48E5 JUMP JUMPDEST SWAP5 POP POP PUSH1 0x20 DUP6 ADD CALLDATALOAD PUSH8 0xFFFFFFFFFFFFFFFF DUP2 GT ISZERO PUSH2 0x4CDC JUMPI PUSH2 0x4CDB PUSH2 0x61A5 JUMP JUMPDEST JUMPDEST PUSH2 0x4CE8 DUP8 DUP3 DUP9 ADD PUSH2 0x49D8 JUMP JUMPDEST SWAP4 POP POP PUSH1 0x40 DUP6 ADD CALLDATALOAD PUSH8 0xFFFFFFFFFFFFFFFF DUP2 GT ISZERO PUSH2 0x4D09 JUMPI PUSH2 0x4D08 PUSH2 0x61A5 JUMP JUMPDEST JUMPDEST PUSH2 0x4D15 DUP8 DUP3 DUP9 ADD PUSH2 0x49D8 JUMP JUMPDEST SWAP3 POP POP PUSH1 0x60 DUP6 ADD CALLDATALOAD PUSH8 0xFFFFFFFFFFFFFFFF DUP2 GT ISZERO PUSH2 0x4D36 JUMPI PUSH2 0x4D35 PUSH2 0x61A5 JUMP JUMPDEST JUMPDEST PUSH2 0x4D42 DUP8 DUP3 DUP9 ADD PUSH2 0x49D8 JUMP JUMPDEST SWAP2 POP POP SWAP3 SWAP6 SWAP2 SWAP5 POP SWAP3 POP JUMP JUMPDEST PUSH1 0x0 DUP1 PUSH1 0x0 PUSH1 0x60 DUP5 DUP7 SUB SLT ISZERO PUSH2 0x4D67 JUMPI PUSH2 0x4D66 PUSH2 0x61AA JUMP JUMPDEST JUMPDEST PUSH1 0x0 DUP5 ADD CALLDATALOAD PUSH8 0xFFFFFFFFFFFFFFFF DUP2 GT ISZERO PUSH2 0x4D85 JUMPI PUSH2 0x4D84 PUSH2 0x61A5 JUMP JUMPDEST JUMPDEST PUSH2 0x4D91 DUP7 DUP3 DUP8 ADD PUSH2 0x48FA JUMP JUMPDEST SWAP4 POP POP PUSH1 0x20 DUP5 ADD CALLDATALOAD PUSH8 0xFFFFFFFFFFFFFFFF DUP2 GT ISZERO PUSH2 0x4DB2 JUMPI PUSH2 0x4DB1 PUSH2 0x61A5 JUMP JUMPDEST JUMPDEST PUSH2 0x4DBE DUP7 DUP3 DUP8 ADD PUSH2 0x4928 JUMP JUMPDEST SWAP3 POP POP PUSH1 0x40 DUP5 ADD CALLDATALOAD PUSH8 0xFFFFFFFFFFFFFFFF DUP2 GT ISZERO PUSH2 0x4DDF JUMPI PUSH2 0x4DDE PUSH2 0x61A5 JUMP JUMPDEST JUMPDEST PUSH2 0x4DEB DUP7 DUP3 DUP8 ADD PUSH2 0x4928 JUMP JUMPDEST SWAP2 POP POP SWAP3 POP SWAP3 POP SWAP3 JUMP JUMPDEST PUSH1 0x0 DUP1 PUSH1 0x0 DUP1 PUSH1 0x80 DUP6 DUP8 SUB SLT ISZERO PUSH2 0x4E0F JUMPI PUSH2 0x4E0E PUSH2 0x61AA JUMP JUMPDEST JUMPDEST PUSH1 0x0 DUP6 ADD CALLDATALOAD PUSH8 0xFFFFFFFFFFFFFFFF DUP2 GT ISZERO PUSH2 0x4E2D JUMPI PUSH2 0x4E2C PUSH2 0x61A5 JUMP JUMPDEST JUMPDEST PUSH2 0x4E39 DUP8 DUP3 DUP9 ADD PUSH2 0x48FA JUMP JUMPDEST SWAP5 POP POP PUSH1 0x20 DUP6 ADD CALLDATALOAD PUSH8 0xFFFFFFFFFFFFFFFF DUP2 GT ISZERO PUSH2 0x4E5A JUMPI PUSH2 0x4E59 PUSH2 0x61A5 JUMP JUMPDEST JUMPDEST PUSH2 0x4E66 DUP8 DUP3 DUP9 ADD PUSH2 0x4928 JUMP JUMPDEST SWAP4 POP POP PUSH1 0x40 DUP6 ADD CALLDATALOAD PUSH8 0xFFFFFFFFFFFFFFFF DUP2 GT ISZERO PUSH2 0x4E87 JUMPI PUSH2 0x4E86 PUSH2 0x61A5 JUMP JUMPDEST JUMPDEST PUSH2 0x4E93 DUP8 DUP3 DUP9 ADD PUSH2 0x4928 JUMP JUMPDEST SWAP3 POP POP PUSH1 0x60 DUP6 ADD CALLDATALOAD PUSH8 0xFFFFFFFFFFFFFFFF DUP2 GT ISZERO PUSH2 0x4EB4 JUMPI PUSH2 0x4EB3 PUSH2 0x61A5 JUMP JUMPDEST JUMPDEST PUSH2 0x4EC0 DUP8 DUP3 DUP9 ADD PUSH2 0x4928 JUMP JUMPDEST SWAP2 POP POP SWAP3 SWAP6 SWAP2 SWAP5 POP SWAP3 POP JUMP JUMPDEST PUSH1 0x0 PUSH1 0x20 DUP3 DUP5 SUB SLT ISZERO PUSH2 0x4EE2 JUMPI PUSH2 0x4EE1 PUSH2 0x61AA JUMP JUMPDEST JUMPDEST PUSH1 0x0 DUP3 ADD CALLDATALOAD PUSH8 0xFFFFFFFFFFFFFFFF DUP2 GT ISZERO PUSH2 0x4F00 JUMPI PUSH2 0x4EFF PUSH2 0x61A5 JUMP JUMPDEST JUMPDEST PUSH2 0x4F0C DUP5 DUP3 DUP6 ADD PUSH2 0x4928 JUMP JUMPDEST SWAP2 POP POP SWAP3 SWAP2 POP POP JUMP JUMPDEST PUSH1 0x0 PUSH1 0x20 DUP3 DUP5 SUB SLT ISZERO PUSH2 0x4F2B JUMPI PUSH2 0x4F2A PUSH2 0x61AA JUMP JUMPDEST JUMPDEST PUSH1 0x0 PUSH2 0x4F39 DUP5 DUP3 DUP6 ADD PUSH2 0x4956 JUMP JUMPDEST SWAP2 POP POP SWAP3 SWAP2 POP POP JUMP JUMPDEST PUSH1 0x0 DUP1 PUSH1 0x40 DUP4 DUP6 SUB SLT ISZERO PUSH2 0x4F59 JUMPI PUSH2 0x4F58 PUSH2 0x61AA JUMP JUMPDEST JUMPDEST PUSH1 0x0 PUSH2 0x4F67 DUP6 DUP3 DUP7 ADD PUSH2 0x49AE JUMP JUMPDEST SWAP3 POP POP PUSH1 0x20 PUSH2 0x4F78 DUP6 DUP3 DUP7 ADD PUSH2 0x48E5 JUMP JUMPDEST SWAP2 POP POP SWAP3 POP SWAP3 SWAP1 POP JUMP JUMPDEST PUSH1 0x0 DUP1 PUSH1 0x0 PUSH1 0x60 DUP5 DUP7 SUB SLT ISZERO PUSH2 0x4F9B JUMPI PUSH2 0x4F9A PUSH2 0x61AA JUMP JUMPDEST JUMPDEST PUSH1 0x0 PUSH2 0x4FA9 DUP7 DUP3 DUP8 ADD PUSH2 0x49AE JUMP JUMPDEST SWAP4 POP POP PUSH1 0x20 PUSH2 0x4FBA DUP7 DUP3 DUP8 ADD PUSH2 0x48E5 JUMP JUMPDEST SWAP3 POP POP PUSH1 0x40 PUSH2 0x4FCB DUP7 DUP3 DUP8 ADD PUSH2 0x496B JUMP JUMPDEST SWAP2 POP POP SWAP3 POP SWAP3 POP SWAP3 JUMP JUMPDEST PUSH1 0x0 PUSH2 0x4FE1 DUP4 DUP4 PUSH2 0x5019 JUMP JUMPDEST PUSH1 0x20 DUP4 ADD SWAP1 POP SWAP3 SWAP2 POP POP JUMP JUMPDEST PUSH1 0x0 PUSH2 0x4FF9 DUP4 DUP4 PUSH2 0x5177 JUMP JUMPDEST PUSH1 0x20 DUP4 ADD SWAP1 POP SWAP3 SWAP2 POP POP JUMP JUMPDEST PUSH1 0x0 PUSH2 0x5011 DUP4 DUP4 PUSH2 0x51E4 JUMP JUMPDEST SWAP1 POP SWAP3 SWAP2 POP POP JUMP JUMPDEST PUSH2 0x5022 DUP2 PUSH2 0x5EFF JUMP JUMPDEST DUP3 MSTORE POP POP JUMP JUMPDEST PUSH2 0x5031 DUP2 PUSH2 0x5EFF JUMP JUMPDEST DUP3 MSTORE POP POP JUMP JUMPDEST PUSH1 0x0 PUSH2 0x5042 DUP3 PUSH2 0x5E02 JUMP JUMPDEST PUSH2 0x504C DUP2 DUP6 PUSH2 0x5E60 JUMP JUMPDEST SWAP4 POP PUSH2 0x5057 DUP4 PUSH2 0x5DD2 JUMP JUMPDEST DUP1 PUSH1 0x0 JUMPDEST DUP4 DUP2 LT ISZERO PUSH2 0x5088 JUMPI DUP2 MLOAD PUSH2 0x506F DUP9 DUP3 PUSH2 0x4FD5 JUMP JUMPDEST SWAP8 POP PUSH2 0x507A DUP4 PUSH2 0x5E39 JUMP JUMPDEST SWAP3 POP POP PUSH1 0x1 DUP2 ADD SWAP1 POP PUSH2 0x505B JUMP JUMPDEST POP DUP6 SWAP4 POP POP POP POP SWAP3 SWAP2 POP POP JUMP JUMPDEST PUSH1 0x0 PUSH2 0x50A0 DUP3 PUSH2 0x5E0D JUMP JUMPDEST PUSH2 0x50AA DUP2 DUP6 PUSH2 0x5E71 JUMP JUMPDEST SWAP4 POP PUSH2 0x50B5 DUP4 PUSH2 0x5DE2 JUMP JUMPDEST DUP1 PUSH1 0x0 JUMPDEST DUP4 DUP2 LT ISZERO PUSH2 0x50E6 JUMPI DUP2 MLOAD PUSH2 0x50CD DUP9 DUP3 PUSH2 0x4FED JUMP JUMPDEST SWAP8 POP PUSH2 0x50D8 DUP4 PUSH2 0x5E46 JUMP JUMPDEST SWAP3 POP POP PUSH1 0x1 DUP2 ADD SWAP1 POP PUSH2 0x50B9 JUMP JUMPDEST POP DUP6 SWAP4 POP POP POP POP SWAP3 SWAP2 POP POP JUMP JUMPDEST PUSH1 0x0 PUSH2 0x50FE DUP3 PUSH2 0x5E18 JUMP JUMPDEST PUSH2 0x5108 DUP2 DUP6 PUSH2 0x5E82 JUMP JUMPDEST SWAP4 POP DUP4 PUSH1 0x20 DUP3 MUL DUP6 ADD PUSH2 0x511A DUP6 PUSH2 0x5DF2 JUMP JUMPDEST DUP1 PUSH1 0x0 JUMPDEST DUP6 DUP2 LT ISZERO PUSH2 0x5156 JUMPI DUP5 DUP5 SUB DUP10 MSTORE DUP2 MLOAD PUSH2 0x5137 DUP6 DUP3 PUSH2 0x5005 JUMP JUMPDEST SWAP5 POP PUSH2 0x5142 DUP4 PUSH2 0x5E53 JUMP JUMPDEST SWAP3 POP PUSH1 0x20 DUP11 ADD SWAP10 POP POP PUSH1 0x1 DUP2 ADD SWAP1 POP PUSH2 0x511E JUMP JUMPDEST POP DUP3 SWAP8 POP DUP8 SWAP6 POP POP POP POP POP POP SWAP3 SWAP2 POP POP JUMP JUMPDEST PUSH2 0x5171 DUP2 PUSH2 0x5F11 JUMP JUMPDEST DUP3 MSTORE POP POP JUMP JUMPDEST PUSH2 0x5180 DUP2 PUSH2 0x5F1D JUMP JUMPDEST DUP3 MSTORE POP POP JUMP JUMPDEST PUSH2 0x518F DUP2 PUSH2 0x5F1D JUMP JUMPDEST DUP3 MSTORE POP POP JUMP JUMPDEST PUSH1 0x0 PUSH2 0x51A0 DUP3 PUSH2 0x5E23 JUMP JUMPDEST PUSH2 0x51AA DUP2 DUP6 PUSH2 0x5E93 JUMP JUMPDEST SWAP4 POP PUSH2 0x51BA DUP2 DUP6 PUSH1 0x20 DUP7 ADD PUSH2 0x5FCC JUMP JUMPDEST DUP1 DUP5 ADD SWAP2 POP POP SWAP3 SWAP2 POP POP JUMP JUMPDEST PUSH2 0x51CF DUP2 PUSH2 0x5F99 JUMP JUMPDEST DUP3 MSTORE POP POP JUMP JUMPDEST PUSH2 0x51DE DUP2 PUSH2 0x5FAB JUMP JUMPDEST DUP3 MSTORE POP POP JUMP JUMPDEST PUSH1 0x0 PUSH2 0x51EF DUP3 PUSH2 0x5E2E JUMP JUMPDEST PUSH2 0x51F9 DUP2 DUP6 PUSH2 0x5E9E JUMP JUMPDEST SWAP4 POP PUSH2 0x5209 DUP2 DUP6 PUSH1 0x20 DUP7 ADD PUSH2 0x5FCC JUMP JUMPDEST PUSH2 0x5212 DUP2 PUSH2 0x61AF JUMP JUMPDEST DUP5 ADD SWAP2 POP POP SWAP3 SWAP2 POP POP JUMP JUMPDEST PUSH1 0x0 PUSH2 0x5228 DUP3 PUSH2 0x5E2E JUMP JUMPDEST PUSH2 0x5232 DUP2 DUP6 PUSH2 0x5EAF JUMP JUMPDEST SWAP4 POP PUSH2 0x5242 DUP2 DUP6 PUSH1 0x20 DUP7 ADD PUSH2 0x5FCC JUMP JUMPDEST PUSH2 0x524B DUP2 PUSH2 0x61AF JUMP JUMPDEST DUP5 ADD SWAP2 POP POP SWAP3 SWAP2 POP POP JUMP JUMPDEST PUSH1 0x0 PUSH2 0x5261 DUP3 PUSH2 0x5E2E JUMP JUMPDEST PUSH2 0x526B DUP2 DUP6 PUSH2 0x5EC0 JUMP JUMPDEST SWAP4 POP PUSH2 0x527B DUP2 DUP6 PUSH1 0x20 DUP7 ADD PUSH2 0x5FCC JUMP JUMPDEST DUP1 DUP5 ADD SWAP2 POP POP SWAP3 SWAP2 POP POP JUMP JUMPDEST PUSH1 0x0 PUSH2 0x5294 PUSH1 0x25 DUP4 PUSH2 0x5EAF JUMP JUMPDEST SWAP2 POP PUSH2 0x529F DUP3 PUSH2 0x61C0 JUMP JUMPDEST PUSH1 0x40 DUP3 ADD SWAP1 POP SWAP2 SWAP1 POP JUMP JUMPDEST PUSH1 0x0 PUSH2 0x52B7 PUSH1 0x27 DUP4 PUSH2 0x5EAF JUMP JUMPDEST SWAP2 POP PUSH2 0x52C2 DUP3 PUSH2 0x620F JUMP JUMPDEST PUSH1 0x40 DUP3 ADD SWAP1 POP SWAP2 SWAP1 POP JUMP JUMPDEST PUSH1 0x0 PUSH2 0x52DA PUSH1 0x1B DUP4 PUSH2 0x5EAF JUMP JUMPDEST SWAP2 POP PUSH2 0x52E5 DUP3 PUSH2 0x625E JUMP JUMPDEST PUSH1 0x20 DUP3 ADD SWAP1 POP SWAP2 SWAP1 POP JUMP JUMPDEST PUSH1 0x0 PUSH2 0x52FD PUSH1 0x2F DUP4 PUSH2 0x5EAF JUMP JUMPDEST SWAP2 POP PUSH2 0x5308 DUP3 PUSH2 0x6287 JUMP JUMPDEST PUSH1 0x40 DUP3 ADD SWAP1 POP SWAP2 SWAP1 POP JUMP JUMPDEST PUSH1 0x0 PUSH2 0x5320 PUSH1 0x2F DUP4 PUSH2 0x5EAF JUMP JUMPDEST SWAP2 POP PUSH2 0x532B DUP3 PUSH2 0x62D6 JUMP JUMPDEST PUSH1 0x40 DUP3 ADD SWAP1 POP SWAP2 SWAP1 POP JUMP JUMPDEST PUSH1 0x0 PUSH2 0x5343 PUSH1 0x26 DUP4 PUSH2 0x5EAF JUMP JUMPDEST SWAP2 POP PUSH2 0x534E DUP3 PUSH2 0x6325 JUMP JUMPDEST PUSH1 0x40 DUP3 ADD SWAP1 POP SWAP2 SWAP1 POP JUMP JUMPDEST PUSH1 0x0 PUSH2 0x5366 PUSH1 0x22 DUP4 PUSH2 0x5EAF JUMP JUMPDEST SWAP2 POP PUSH2 0x5371 DUP3 PUSH2 0x6374 JUMP JUMPDEST PUSH1 0x40 DUP3 ADD SWAP1 POP SWAP2 SWAP1 POP JUMP JUMPDEST PUSH1 0x0 PUSH2 0x5389 PUSH1 0x2C DUP4 PUSH2 0x5EAF JUMP JUMPDEST SWAP2 POP PUSH2 0x5394 DUP3 PUSH2 0x63C3 JUMP JUMPDEST PUSH1 0x40 DUP3 ADD SWAP1 POP SWAP2 SWAP1 POP JUMP JUMPDEST PUSH1 0x0 PUSH2 0x53AC PUSH1 0x2C DUP4 PUSH2 0x5EAF JUMP JUMPDEST SWAP2 POP PUSH2 0x53B7 DUP3 PUSH2 0x6412 JUMP JUMPDEST PUSH1 0x40 DUP3 ADD SWAP1 POP SWAP2 SWAP1 POP JUMP JUMPDEST PUSH1 0x0 PUSH2 0x53CF PUSH1 0x2F DUP4 PUSH2 0x5EAF JUMP JUMPDEST SWAP2 POP PUSH2 0x53DA DUP3 PUSH2 0x6461 JUMP JUMPDEST PUSH1 0x40 DUP3 ADD SWAP1 POP SWAP2 SWAP1 POP JUMP JUMPDEST PUSH1 0x0 PUSH2 0x53F2 PUSH1 0x1A DUP4 PUSH2 0x5EAF JUMP JUMPDEST SWAP2 POP PUSH2 0x53FD DUP3 PUSH2 0x64B0 JUMP JUMPDEST PUSH1 0x20 DUP3 ADD SWAP1 POP SWAP2 SWAP1 POP JUMP JUMPDEST PUSH1 0x0 PUSH2 0x5415 PUSH1 0x28 DUP4 PUSH2 0x5EAF JUMP JUMPDEST SWAP2 POP PUSH2 0x5420 DUP3 PUSH2 0x64D9 JUMP JUMPDEST PUSH1 0x40 DUP3 ADD SWAP1 POP SWAP2 SWAP1 POP JUMP JUMPDEST PUSH1 0x0 PUSH2 0x5438 PUSH1 0x15 DUP4 PUSH2 0x5EAF JUMP JUMPDEST SWAP2 POP PUSH2 0x5443 DUP3 PUSH2 0x6528 JUMP JUMPDEST PUSH1 0x20 DUP3 ADD SWAP1 POP SWAP2 SWAP1 POP JUMP JUMPDEST PUSH1 0x0 PUSH2 0x545B PUSH1 0x22 DUP4 PUSH2 0x5EAF JUMP JUMPDEST SWAP2 POP PUSH2 0x5466 DUP3 PUSH2 0x6551 JUMP JUMPDEST PUSH1 0x40 DUP3 ADD SWAP1 POP SWAP2 SWAP1 POP JUMP JUMPDEST PUSH1 0x0 PUSH2 0x547E PUSH1 0x2C DUP4 PUSH2 0x5EAF JUMP JUMPDEST SWAP2 POP PUSH2 0x5489 DUP3 PUSH2 0x65A0 JUMP JUMPDEST PUSH1 0x40 DUP3 ADD SWAP1 POP SWAP2 SWAP1 POP JUMP JUMPDEST PUSH1 0x0 PUSH2 0x54A1 PUSH1 0x15 DUP4 PUSH2 0x5EAF JUMP JUMPDEST SWAP2 POP PUSH2 0x54AC DUP3 PUSH2 0x65EF JUMP JUMPDEST PUSH1 0x20 DUP3 ADD SWAP1 POP SWAP2 SWAP1 POP JUMP JUMPDEST PUSH1 0x0 PUSH2 0x54C4 PUSH1 0x2C DUP4 PUSH2 0x5EAF JUMP JUMPDEST SWAP2 POP PUSH2 0x54CF DUP3 PUSH2 0x6618 JUMP JUMPDEST PUSH1 0x40 DUP3 ADD SWAP1 POP SWAP2 SWAP1 POP JUMP JUMPDEST PUSH1 0x0 PUSH2 0x54E7 PUSH1 0x1E DUP4 PUSH2 0x5EAF JUMP JUMPDEST SWAP2 POP PUSH2 0x54F2 DUP3 PUSH2 0x6667 JUMP JUMPDEST PUSH1 0x20 DUP3 ADD SWAP1 POP SWAP2 SWAP1 POP JUMP JUMPDEST PUSH1 0x0 PUSH2 0x550A PUSH1 0x27 DUP4 PUSH2 0x5EAF JUMP JUMPDEST SWAP2 POP PUSH2 0x5515 DUP3 PUSH2 0x6690 JUMP JUMPDEST PUSH1 0x40 DUP3 ADD SWAP1 POP SWAP2 SWAP1 POP JUMP JUMPDEST PUSH1 0x0 PUSH2 0x552D PUSH1 0x1B DUP4 PUSH2 0x5EAF JUMP JUMPDEST SWAP2 POP PUSH2 0x5538 DUP3 PUSH2 0x66DF JUMP JUMPDEST PUSH1 0x20 DUP3 ADD SWAP1 POP SWAP2 SWAP1 POP JUMP JUMPDEST PUSH1 0x0 PUSH2 0x5550 PUSH1 0x2E DUP4 PUSH2 0x5EAF JUMP JUMPDEST SWAP2 POP PUSH2 0x555B DUP3 PUSH2 0x6708 JUMP JUMPDEST PUSH1 0x40 DUP3 ADD SWAP1 POP SWAP2 SWAP1 POP JUMP JUMPDEST PUSH1 0x0 PUSH2 0x5573 PUSH1 0x23 DUP4 PUSH2 0x5EAF JUMP JUMPDEST SWAP2 POP PUSH2 0x557E DUP3 PUSH2 0x6757 JUMP JUMPDEST PUSH1 0x40 DUP3 ADD SWAP1 POP SWAP2 SWAP1 POP JUMP JUMPDEST PUSH1 0x0 PUSH2 0x5596 PUSH1 0x2D DUP4 PUSH2 0x5EAF JUMP JUMPDEST SWAP2 POP PUSH2 0x55A1 DUP3 PUSH2 0x67A6 JUMP JUMPDEST PUSH1 0x40 DUP3 ADD SWAP1 POP SWAP2 SWAP1 POP JUMP JUMPDEST PUSH1 0x0 PUSH2 0x55B9 PUSH1 0x20 DUP4 PUSH2 0x5EAF JUMP JUMPDEST SWAP2 POP PUSH2 0x55C4 DUP3 PUSH2 0x67F5 JUMP JUMPDEST PUSH1 0x20 DUP3 ADD SWAP1 POP SWAP2 SWAP1 POP JUMP JUMPDEST PUSH1 0x0 PUSH2 0x55DC PUSH1 0x1F DUP4 PUSH2 0x5EAF JUMP JUMPDEST SWAP2 POP PUSH2 0x55E7 DUP3 PUSH2 0x681E JUMP JUMPDEST PUSH1 0x20 DUP3 ADD SWAP1 POP SWAP2 SWAP1 POP JUMP JUMPDEST PUSH1 0x0 PUSH2 0x55FF PUSH1 0x26 DUP4 PUSH2 0x5EAF JUMP JUMPDEST SWAP2 POP PUSH2 0x560A DUP3 PUSH2 0x6847 JUMP JUMPDEST PUSH1 0x40 DUP3 ADD SWAP1 POP SWAP2 SWAP1 POP JUMP JUMPDEST PUSH1 0x0 PUSH2 0x5622 PUSH1 0x29 DUP4 PUSH2 0x5EAF JUMP JUMPDEST SWAP2 POP PUSH2 0x562D DUP3 PUSH2 0x6896 JUMP JUMPDEST PUSH1 0x40 DUP3 ADD SWAP1 POP SWAP2 SWAP1 POP JUMP JUMPDEST PUSH1 0x0 PUSH2 0x5645 PUSH1 0x25 DUP4 PUSH2 0x5EAF JUMP JUMPDEST SWAP2 POP PUSH2 0x5650 DUP3 PUSH2 0x68E5 JUMP JUMPDEST PUSH1 0x40 DUP3 ADD SWAP1 POP SWAP2 SWAP1 POP JUMP JUMPDEST PUSH1 0x0 PUSH2 0x5668 PUSH1 0x16 DUP4 PUSH2 0x5EAF JUMP JUMPDEST SWAP2 POP PUSH2 0x5673 DUP3 PUSH2 0x6934 JUMP JUMPDEST PUSH1 0x20 DUP3 ADD SWAP1 POP SWAP2 SWAP1 POP JUMP JUMPDEST PUSH1 0x0 PUSH2 0x568B PUSH1 0x28 DUP4 PUSH2 0x5EAF JUMP JUMPDEST SWAP2 POP PUSH2 0x5696 DUP3 PUSH2 0x695D JUMP JUMPDEST PUSH1 0x40 DUP3 ADD SWAP1 POP SWAP2 SWAP1 POP JUMP JUMPDEST PUSH1 0x0 PUSH2 0x56AE PUSH1 0x1E DUP4 PUSH2 0x5EAF JUMP JUMPDEST SWAP2 POP PUSH2 0x56B9 DUP3 PUSH2 0x69AC JUMP JUMPDEST PUSH1 0x20 DUP3 ADD SWAP1 POP SWAP2 SWAP1 POP JUMP JUMPDEST PUSH1 0x0 PUSH2 0x56D1 PUSH1 0x33 DUP4 PUSH2 0x5EAF JUMP JUMPDEST SWAP2 POP PUSH2 0x56DC DUP3 PUSH2 0x69D5 JUMP JUMPDEST PUSH1 0x40 DUP3 ADD SWAP1 POP SWAP2 SWAP1 POP JUMP JUMPDEST PUSH1 0x0 PUSH2 0x56F4 PUSH1 0x15 DUP4 PUSH2 0x5EAF JUMP JUMPDEST SWAP2 POP PUSH2 0x56FF DUP3 PUSH2 0x6A24 JUMP JUMPDEST PUSH1 0x20 DUP3 ADD SWAP1 POP SWAP2 SWAP1 POP JUMP JUMPDEST PUSH1 0x0 PUSH2 0x5716 DUP3 DUP5 PUSH2 0x5195 JUMP JUMPDEST SWAP2 POP DUP2 SWAP1 POP SWAP3 SWAP2 POP POP JUMP JUMPDEST PUSH1 0x0 PUSH2 0x572D DUP3 DUP5 PUSH2 0x5256 JUMP JUMPDEST SWAP2 POP DUP2 SWAP1 POP SWAP3 SWAP2 POP POP JUMP JUMPDEST PUSH1 0x0 PUSH1 0x20 DUP3 ADD SWAP1 POP PUSH2 0x574D PUSH1 0x0 DUP4 ADD DUP5 PUSH2 0x5028 JUMP JUMPDEST SWAP3 SWAP2 POP POP JUMP JUMPDEST PUSH1 0x0 PUSH1 0x40 DUP3 ADD SWAP1 POP PUSH2 0x5768 PUSH1 0x0 DUP4 ADD DUP6 PUSH2 0x5028 JUMP JUMPDEST PUSH2 0x5775 PUSH1 0x20 DUP4 ADD DUP5 PUSH2 0x5186 JUMP JUMPDEST SWAP4 SWAP3 POP POP POP JUMP JUMPDEST PUSH1 0x0 PUSH1 0x20 DUP3 ADD SWAP1 POP DUP2 DUP2 SUB PUSH1 0x0 DUP4 ADD MSTORE PUSH2 0x5796 DUP2 DUP5 PUSH2 0x5037 JUMP JUMPDEST SWAP1 POP SWAP3 SWAP2 POP POP JUMP JUMPDEST PUSH1 0x0 PUSH1 0x20 DUP3 ADD SWAP1 POP DUP2 DUP2 SUB PUSH1 0x0 DUP4 ADD MSTORE PUSH2 0x57B8 DUP2 DUP5 PUSH2 0x5095 JUMP JUMPDEST SWAP1 POP SWAP3 SWAP2 POP POP JUMP JUMPDEST PUSH1 0x0 PUSH1 0x20 DUP3 ADD SWAP1 POP DUP2 DUP2 SUB PUSH1 0x0 DUP4 ADD MSTORE PUSH2 0x57DA DUP2 DUP5 PUSH2 0x50F3 JUMP JUMPDEST SWAP1 POP SWAP3 SWAP2 POP POP JUMP JUMPDEST PUSH1 0x0 PUSH1 0x20 DUP3 ADD SWAP1 POP PUSH2 0x57F7 PUSH1 0x0 DUP4 ADD DUP5 PUSH2 0x5168 JUMP JUMPDEST SWAP3 SWAP2 POP POP JUMP JUMPDEST PUSH1 0x0 PUSH1 0x40 DUP3 ADD SWAP1 POP PUSH2 0x5812 PUSH1 0x0 DUP4 ADD DUP6 PUSH2 0x51D5 JUMP JUMPDEST PUSH2 0x581F PUSH1 0x20 DUP4 ADD DUP5 PUSH2 0x51D5 JUMP JUMPDEST SWAP4 SWAP3 POP POP POP JUMP JUMPDEST PUSH1 0x0 PUSH1 0x20 DUP3 ADD SWAP1 POP DUP2 DUP2 SUB PUSH1 0x0 DUP4 ADD MSTORE PUSH2 0x5840 DUP2 DUP5 PUSH2 0x521D JUMP JUMPDEST SWAP1 POP SWAP3 SWAP2 POP POP JUMP JUMPDEST PUSH1 0x0 PUSH1 0xE0 DUP3 ADD SWAP1 POP DUP2 DUP2 SUB PUSH1 0x0 DUP4 ADD MSTORE PUSH2 0x5862 DUP2 DUP11 PUSH2 0x521D JUMP JUMPDEST SWAP1 POP DUP2 DUP2 SUB PUSH1 0x20 DUP4 ADD MSTORE PUSH2 0x5876 DUP2 DUP10 PUSH2 0x521D JUMP JUMPDEST SWAP1 POP PUSH2 0x5885 PUSH1 0x40 DUP4 ADD DUP9 PUSH2 0x51C6 JUMP JUMPDEST DUP2 DUP2 SUB PUSH1 0x60 DUP4 ADD MSTORE PUSH2 0x5897 DUP2 DUP8 PUSH2 0x521D JUMP JUMPDEST SWAP1 POP PUSH2 0x58A6 PUSH1 0x80 DUP4 ADD DUP7 PUSH2 0x51D5 JUMP JUMPDEST PUSH2 0x58B3 PUSH1 0xA0 DUP4 ADD DUP6 PUSH2 0x51D5 JUMP JUMPDEST DUP2 DUP2 SUB PUSH1 0xC0 DUP4 ADD MSTORE PUSH2 0x58C5 DUP2 DUP5 PUSH2 0x521D JUMP JUMPDEST SWAP1 POP SWAP9 SWAP8 POP POP POP POP POP POP POP POP JUMP JUMPDEST PUSH1 0x0 PUSH1 0x20 DUP3 ADD SWAP1 POP DUP2 DUP2 SUB PUSH1 0x0 DUP4 ADD MSTORE PUSH2 0x58EC DUP2 PUSH2 0x5287 JUMP JUMPDEST SWAP1 POP SWAP2 SWAP1 POP JUMP JUMPDEST PUSH1 0x0 PUSH1 0x20 DUP3 ADD SWAP1 POP DUP2 DUP2 SUB PUSH1 0x0 DUP4 ADD MSTORE PUSH2 0x590C DUP2 PUSH2 0x52AA JUMP JUMPDEST SWAP1 POP SWAP2 SWAP1 POP JUMP JUMPDEST PUSH1 0x0 PUSH1 0x20 DUP3 ADD SWAP1 POP DUP2 DUP2 SUB PUSH1 0x0 DUP4 ADD MSTORE PUSH2 0x592C DUP2 PUSH2 0x52CD JUMP JUMPDEST SWAP1 POP SWAP2 SWAP1 POP JUMP JUMPDEST PUSH1 0x0 PUSH1 0x20 DUP3 ADD SWAP1 POP DUP2 DUP2 SUB PUSH1 0x0 DUP4 ADD MSTORE PUSH2 0x594C DUP2 PUSH2 0x52F0 JUMP JUMPDEST SWAP1 POP SWAP2 SWAP1 POP JUMP JUMPDEST PUSH1 0x0 PUSH1 0x20 DUP3 ADD SWAP1 POP DUP2 DUP2 SUB PUSH1 0x0 DUP4 ADD MSTORE PUSH2 0x596C DUP2 PUSH2 0x5313 JUMP JUMPDEST SWAP1 POP SWAP2 SWAP1 POP JUMP JUMPDEST PUSH1 0x0 PUSH1 0x20 DUP3 ADD SWAP1 POP DUP2 DUP2 SUB PUSH1 0x0 DUP4 ADD MSTORE PUSH2 0x598C DUP2 PUSH2 0x5336 JUMP JUMPDEST SWAP1 POP SWAP2 SWAP1 POP JUMP JUMPDEST PUSH1 0x0 PUSH1 0x20 DUP3 ADD SWAP1 POP DUP2 DUP2 SUB PUSH1 0x0 DUP4 ADD MSTORE PUSH2 0x59AC DUP2 PUSH2 0x5359 JUMP JUMPDEST SWAP1 POP SWAP2 SWAP1 POP JUMP JUMPDEST PUSH1 0x0 PUSH1 0x20 DUP3 ADD SWAP1 POP DUP2 DUP2 SUB PUSH1 0x0 DUP4 ADD MSTORE PUSH2 0x59CC DUP2 PUSH2 0x537C JUMP JUMPDEST SWAP1 POP SWAP2 SWAP1 POP JUMP JUMPDEST PUSH1 0x0 PUSH1 0x20 DUP3 ADD SWAP1 POP DUP2 DUP2 SUB PUSH1 0x0 DUP4 ADD MSTORE PUSH2 0x59EC DUP2 PUSH2 0x539F JUMP JUMPDEST SWAP1 POP SWAP2 SWAP1 POP JUMP JUMPDEST PUSH1 0x0 PUSH1 0x20 DUP3 ADD SWAP1 POP DUP2 DUP2 SUB PUSH1 0x0 DUP4 ADD MSTORE PUSH2 0x5A0C DUP2 PUSH2 0x53C2 JUMP JUMPDEST SWAP1 POP SWAP2 SWAP1 POP JUMP JUMPDEST PUSH1 0x0 PUSH1 0x20 DUP3 ADD SWAP1 POP DUP2 DUP2 SUB PUSH1 0x0 DUP4 ADD MSTORE PUSH2 0x5A2C DUP2 PUSH2 0x53E5 JUMP JUMPDEST SWAP1 POP SWAP2 SWAP1 POP JUMP JUMPDEST PUSH1 0x0 PUSH1 0x20 DUP3 ADD SWAP1 POP DUP2 DUP2 SUB PUSH1 0x0 DUP4 ADD MSTORE PUSH2 0x5A4C DUP2 PUSH2 0x5408 JUMP JUMPDEST SWAP1 POP SWAP2 SWAP1 POP JUMP JUMPDEST PUSH1 0x0 PUSH1 0x20 DUP3 ADD SWAP1 POP DUP2 DUP2 SUB PUSH1 0x0 DUP4 ADD MSTORE PUSH2 0x5A6C DUP2 PUSH2 0x542B JUMP JUMPDEST SWAP1 POP SWAP2 SWAP1 POP JUMP JUMPDEST PUSH1 0x0 PUSH1 0x20 DUP3 ADD SWAP1 POP DUP2 DUP2 SUB PUSH1 0x0 DUP4 ADD MSTORE PUSH2 0x5A8C DUP2 PUSH2 0x544E JUMP JUMPDEST SWAP1 POP SWAP2 SWAP1 POP JUMP JUMPDEST PUSH1 0x0 PUSH1 0x20 DUP3 ADD SWAP1 POP DUP2 DUP2 SUB PUSH1 0x0 DUP4 ADD MSTORE PUSH2 0x5AAC DUP2 PUSH2 0x5471 JUMP JUMPDEST SWAP1 POP SWAP2 SWAP1 POP JUMP JUMPDEST PUSH1 0x0 PUSH1 0x20 DUP3 ADD SWAP1 POP DUP2 DUP2 SUB PUSH1 0x0 DUP4 ADD MSTORE PUSH2 0x5ACC DUP2 PUSH2 0x5494 JUMP JUMPDEST SWAP1 POP SWAP2 SWAP1 POP JUMP JUMPDEST PUSH1 0x0 PUSH1 0x20 DUP3 ADD SWAP1 POP DUP2 DUP2 SUB PUSH1 0x0 DUP4 ADD MSTORE PUSH2 0x5AEC DUP2 PUSH2 0x54B7 JUMP JUMPDEST SWAP1 POP SWAP2 SWAP1 POP JUMP JUMPDEST PUSH1 0x0 PUSH1 0x20 DUP3 ADD SWAP1 POP DUP2 DUP2 SUB PUSH1 0x0 DUP4 ADD MSTORE PUSH2 0x5B0C DUP2 PUSH2 0x54DA JUMP JUMPDEST SWAP1 POP SWAP2 SWAP1 POP JUMP JUMPDEST PUSH1 0x0 PUSH1 0x20 DUP3 ADD SWAP1 POP DUP2 DUP2 SUB PUSH1 0x0 DUP4 ADD MSTORE PUSH2 0x5B2C DUP2 PUSH2 0x54FD JUMP JUMPDEST SWAP1 POP SWAP2 SWAP1 POP JUMP JUMPDEST PUSH1 0x0 PUSH1 0x20 DUP3 ADD SWAP1 POP DUP2 DUP2 SUB PUSH1 0x0 DUP4 ADD MSTORE PUSH2 0x5B4C DUP2 PUSH2 0x5520 JUMP JUMPDEST SWAP1 POP SWAP2 SWAP1 POP JUMP JUMPDEST PUSH1 0x0 PUSH1 0x20 DUP3 ADD SWAP1 POP DUP2 DUP2 SUB PUSH1 0x0 DUP4 ADD MSTORE PUSH2 0x5B6C DUP2 PUSH2 0x5543 JUMP JUMPDEST SWAP1 POP SWAP2 SWAP1 POP JUMP JUMPDEST PUSH1 0x0 PUSH1 0x20 DUP3 ADD SWAP1 POP DUP2 DUP2 SUB PUSH1 0x0 DUP4 ADD MSTORE PUSH2 0x5B8C DUP2 PUSH2 0x5566 JUMP JUMPDEST SWAP1 POP SWAP2 SWAP1 POP JUMP JUMPDEST PUSH1 0x0 PUSH1 0x20 DUP3 ADD SWAP1 POP DUP2 DUP2 SUB PUSH1 0x0 DUP4 ADD MSTORE PUSH2 0x5BAC DUP2 PUSH2 0x5589 JUMP JUMPDEST SWAP1 POP SWAP2 SWAP1 POP JUMP JUMPDEST PUSH1 0x0 PUSH1 0x20 DUP3 ADD SWAP1 POP DUP2 DUP2 SUB PUSH1 0x0 DUP4 ADD MSTORE PUSH2 0x5BCC DUP2 PUSH2 0x55AC JUMP JUMPDEST SWAP1 POP SWAP2 SWAP1 POP JUMP JUMPDEST PUSH1 0x0 PUSH1 0x20 DUP3 ADD SWAP1 POP DUP2 DUP2 SUB PUSH1 0x0 DUP4 ADD MSTORE PUSH2 0x5BEC DUP2 PUSH2 0x55CF JUMP JUMPDEST SWAP1 POP SWAP2 SWAP1 POP JUMP JUMPDEST PUSH1 0x0 PUSH1 0x20 DUP3 ADD SWAP1 POP DUP2 DUP2 SUB PUSH1 0x0 DUP4 ADD MSTORE PUSH2 0x5C0C DUP2 PUSH2 0x55F2 JUMP JUMPDEST SWAP1 POP SWAP2 SWAP1 POP JUMP JUMPDEST PUSH1 0x0 PUSH1 0x20 DUP3 ADD SWAP1 POP DUP2 DUP2 SUB PUSH1 0x0 DUP4 ADD MSTORE PUSH2 0x5C2C DUP2 PUSH2 0x5615 JUMP JUMPDEST SWAP1 POP SWAP2 SWAP1 POP JUMP JUMPDEST PUSH1 0x0 PUSH1 0x20 DUP3 ADD SWAP1 POP DUP2 DUP2 SUB PUSH1 0x0 DUP4 ADD MSTORE PUSH2 0x5C4C DUP2 PUSH2 0x5638 JUMP JUMPDEST SWAP1 POP SWAP2 SWAP1 POP JUMP JUMPDEST PUSH1 0x0 PUSH1 0x20 DUP3 ADD SWAP1 POP DUP2 DUP2 SUB PUSH1 0x0 DUP4 ADD MSTORE PUSH2 0x5C6C DUP2 PUSH2 0x565B JUMP JUMPDEST SWAP1 POP SWAP2 SWAP1 POP JUMP JUMPDEST PUSH1 0x0 PUSH1 0x20 DUP3 ADD SWAP1 POP DUP2 DUP2 SUB PUSH1 0x0 DUP4 ADD MSTORE PUSH2 0x5C8C DUP2 PUSH2 0x567E JUMP JUMPDEST SWAP1 POP SWAP2 SWAP1 POP JUMP JUMPDEST PUSH1 0x0 PUSH1 0x20 DUP3 ADD SWAP1 POP DUP2 DUP2 SUB PUSH1 0x0 DUP4 ADD MSTORE PUSH2 0x5CAC DUP2 PUSH2 0x56A1 JUMP JUMPDEST SWAP1 POP SWAP2 SWAP1 POP JUMP JUMPDEST PUSH1 0x0 PUSH1 0x20 DUP3 ADD SWAP1 POP DUP2 DUP2 SUB PUSH1 0x0 DUP4 ADD MSTORE PUSH2 0x5CCC DUP2 PUSH2 0x56C4 JUMP JUMPDEST SWAP1 POP SWAP2 SWAP1 POP JUMP JUMPDEST PUSH1 0x0 PUSH1 0x20 DUP3 ADD SWAP1 POP DUP2 DUP2 SUB PUSH1 0x0 DUP4 ADD MSTORE PUSH2 0x5CEC DUP2 PUSH2 0x56E7 JUMP JUMPDEST SWAP1 POP SWAP2 SWAP1 POP JUMP JUMPDEST PUSH1 0x0 PUSH2 0x5CFD PUSH2 0x5D0E JUMP JUMPDEST SWAP1 POP PUSH2 0x5D09 DUP3 DUP3 PUSH2 0x6031 JUMP JUMPDEST SWAP2 SWAP1 POP JUMP JUMPDEST PUSH1 0x0 PUSH1 0x40 MLOAD SWAP1 POP SWAP1 JUMP JUMPDEST PUSH1 0x0 PUSH8 0xFFFFFFFFFFFFFFFF DUP3 GT ISZERO PUSH2 0x5D33 JUMPI PUSH2 0x5D32 PUSH2 0x6167 JUMP JUMPDEST JUMPDEST PUSH1 0x20 DUP3 MUL SWAP1 POP PUSH1 0x20 DUP2 ADD SWAP1 POP SWAP2 SWAP1 POP JUMP JUMPDEST PUSH1 0x0 PUSH8 0xFFFFFFFFFFFFFFFF DUP3 GT ISZERO PUSH2 0x5D5F JUMPI PUSH2 0x5D5E PUSH2 0x6167 JUMP JUMPDEST JUMPDEST PUSH1 0x20 DUP3 MUL SWAP1 POP PUSH1 0x20 DUP2 ADD SWAP1 POP SWAP2 SWAP1 POP JUMP JUMPDEST PUSH1 0x0 PUSH8 0xFFFFFFFFFFFFFFFF DUP3 GT ISZERO PUSH2 0x5D8B JUMPI PUSH2 0x5D8A PUSH2 0x6167 JUMP JUMPDEST JUMPDEST PUSH2 0x5D94 DUP3 PUSH2 0x61AF JUMP JUMPDEST SWAP1 POP PUSH1 0x20 DUP2 ADD SWAP1 POP SWAP2 SWAP1 POP JUMP JUMPDEST PUSH1 0x0 PUSH8 0xFFFFFFFFFFFFFFFF DUP3 GT ISZERO PUSH2 0x5DBC JUMPI PUSH2 0x5DBB PUSH2 0x6167 JUMP JUMPDEST JUMPDEST PUSH2 0x5DC5 DUP3 PUSH2 0x61AF JUMP JUMPDEST SWAP1 POP PUSH1 0x20 DUP2 ADD SWAP1 POP SWAP2 SWAP1 POP JUMP JUMPDEST PUSH1 0x0 DUP2 SWAP1 POP PUSH1 0x20 DUP3 ADD SWAP1 POP SWAP2 SWAP1 POP JUMP JUMPDEST PUSH1 0x0 DUP2 SWAP1 POP PUSH1 0x20 DUP3 ADD SWAP1 POP SWAP2 SWAP1 POP JUMP JUMPDEST PUSH1 0x0 DUP2 SWAP1 POP PUSH1 0x20 DUP3 ADD SWAP1 POP SWAP2 SWAP1 POP JUMP JUMPDEST PUSH1 0x0 DUP2 MLOAD SWAP1 POP SWAP2 SWAP1 POP JUMP JUMPDEST PUSH1 0x0 DUP2 MLOAD SWAP1 POP SWAP2 SWAP1 POP JUMP JUMPDEST PUSH1 0x0 DUP2 MLOAD SWAP1 POP SWAP2 SWAP1 POP JUMP JUMPDEST PUSH1 0x0 DUP2 MLOAD SWAP1 POP SWAP2 SWAP1 POP JUMP JUMPDEST PUSH1 0x0 DUP2 MLOAD SWAP1 POP SWAP2 SWAP1 POP JUMP JUMPDEST PUSH1 0x0 PUSH1 0x20 DUP3 ADD SWAP1 POP SWAP2 SWAP1 POP JUMP JUMPDEST PUSH1 0x0 PUSH1 0x20 DUP3 ADD SWAP1 POP SWAP2 SWAP1 POP JUMP JUMPDEST PUSH1 0x0 PUSH1 0x20 DUP3 ADD SWAP1 POP SWAP2 SWAP1 POP JUMP JUMPDEST PUSH1 0x0 DUP3 DUP3 MSTORE PUSH1 0x20 DUP3 ADD SWAP1 POP SWAP3 SWAP2 POP POP JUMP JUMPDEST PUSH1 0x0 DUP3 DUP3 MSTORE PUSH1 0x20 DUP3 ADD SWAP1 POP SWAP3 SWAP2 POP POP JUMP JUMPDEST PUSH1 0x0 DUP3 DUP3 MSTORE PUSH1 0x20 DUP3 ADD SWAP1 POP SWAP3 SWAP2 POP POP JUMP JUMPDEST PUSH1 0x0 DUP2 SWAP1 POP SWAP3 SWAP2 POP POP JUMP JUMPDEST PUSH1 0x0 DUP3 DUP3 MSTORE PUSH1 0x20 DUP3 ADD SWAP1 POP SWAP3 SWAP2 POP POP JUMP JUMPDEST PUSH1 0x0 DUP3 DUP3 MSTORE PUSH1 0x20 DUP3 ADD SWAP1 POP SWAP3 SWAP2 POP POP JUMP JUMPDEST PUSH1 0x0 DUP2 SWAP1 POP SWAP3 SWAP2 POP POP JUMP JUMPDEST PUSH1 0x0 PUSH2 0x5ED6 DUP3 PUSH2 0x5F8F JUMP JUMPDEST SWAP2 POP PUSH2 0x5EE1 DUP4 PUSH2 0x5F8F JUMP JUMPDEST SWAP3 POP DUP3 DUP3 LT ISZERO PUSH2 0x5EF4 JUMPI PUSH2 0x5EF3 PUSH2 0x60AB JUMP JUMPDEST JUMPDEST DUP3 DUP3 SUB SWAP1 POP SWAP3 SWAP2 POP POP JUMP JUMPDEST PUSH1 0x0 PUSH2 0x5F0A DUP3 PUSH2 0x5F6F JUMP JUMPDEST SWAP1 POP SWAP2 SWAP1 POP JUMP JUMPDEST PUSH1 0x0 DUP2 ISZERO ISZERO SWAP1 POP SWAP2 SWAP1 POP JUMP JUMPDEST PUSH1 0x0 PUSH32 0xFFFFFFFF00000000000000000000000000000000000000000000000000000000 DUP3 AND SWAP1 POP SWAP2 SWAP1 POP JUMP JUMPDEST PUSH1 0x0 DUP2 SWAP1 POP PUSH2 0x5F57 DUP3 PUSH2 0x6A4D JUMP JUMPDEST SWAP2 SWAP1 POP JUMP JUMPDEST PUSH1 0x0 DUP2 SWAP1 POP PUSH2 0x5F6A DUP3 PUSH2 0x6A61 JUMP JUMPDEST SWAP2 SWAP1 POP JUMP JUMPDEST PUSH1 0x0 PUSH20 0xFFFFFFFFFFFFFFFFFFFFFFFFFFFFFFFFFFFFFFFF DUP3 AND SWAP1 POP SWAP2 SWAP1 POP JUMP JUMPDEST PUSH1 0x0 DUP2 SWAP1 POP SWAP2 SWAP1 POP JUMP JUMPDEST PUSH1 0x0 PUSH2 0x5FA4 DUP3 PUSH2 0x5F49 JUMP JUMPDEST SWAP1 POP SWAP2 SWAP1 POP JUMP JUMPDEST PUSH1 0x0 PUSH2 0x5FB6 DUP3 PUSH2 0x5F5C JUMP JUMPDEST SWAP1 POP SWAP2 SWAP1 POP JUMP JUMPDEST DUP3 DUP2 DUP4 CALLDATACOPY PUSH1 0x0 DUP4 DUP4 ADD MSTORE POP POP POP JUMP JUMPDEST PUSH1 0x0 JUMPDEST DUP4 DUP2 LT ISZERO PUSH2 0x5FEA JUMPI DUP1 DUP3 ADD MLOAD DUP2 DUP5 ADD MSTORE PUSH1 0x20 DUP2 ADD SWAP1 POP PUSH2 0x5FCF JUMP JUMPDEST DUP4 DUP2 GT ISZERO PUSH2 0x5FF9 JUMPI PUSH1 0x0 DUP5 DUP5 ADD MSTORE JUMPDEST POP POP POP POP JUMP JUMPDEST PUSH1 0x0 PUSH1 0x2 DUP3 DIV SWAP1 POP PUSH1 0x1 DUP3 AND DUP1 PUSH2 0x6017 JUMPI PUSH1 0x7F DUP3 AND SWAP2 POP JUMPDEST PUSH1 0x20 DUP3 LT DUP2 EQ ISZERO PUSH2 0x602B JUMPI PUSH2 0x602A PUSH2 0x6109 JUMP JUMPDEST JUMPDEST POP SWAP2 SWAP1 POP JUMP JUMPDEST PUSH2 0x603A DUP3 PUSH2 0x61AF JUMP JUMPDEST DUP2 ADD DUP2 DUP2 LT PUSH8 0xFFFFFFFFFFFFFFFF DUP3 GT OR ISZERO PUSH2 0x6059 JUMPI PUSH2 0x6058 PUSH2 0x6167 JUMP JUMPDEST JUMPDEST DUP1 PUSH1 0x40 MSTORE POP POP POP JUMP JUMPDEST PUSH1 0x0 PUSH2 0x606D DUP3 PUSH2 0x5F8F JUMP JUMPDEST SWAP2 POP PUSH32 0xFFFFFFFFFFFFFFFFFFFFFFFFFFFFFFFFFFFFFFFFFFFFFFFFFFFFFFFFFFFFFFFF DUP3 EQ ISZERO PUSH2 0x60A0 JUMPI PUSH2 0x609F PUSH2 0x60AB JUMP JUMPDEST JUMPDEST PUSH1 0x1 DUP3 ADD SWAP1 POP SWAP2 SWAP1 POP JUMP JUMPDEST PUSH32 0x4E487B7100000000000000000000000000000000000000000000000000000000 PUSH1 0x0 MSTORE PUSH1 0x11 PUSH1 0x4 MSTORE PUSH1 0x24 PUSH1 0x0 REVERT JUMPDEST PUSH32 0x4E487B7100000000000000000000000000000000000000000000000000000000 PUSH1 0x0 MSTORE PUSH1 0x21 PUSH1 0x4 MSTORE PUSH1 0x24 PUSH1 0x0 REVERT JUMPDEST PUSH32 0x4E487B7100000000000000000000000000000000000000000000000000000000 PUSH1 0x0 MSTORE PUSH1 0x22 PUSH1 0x4 MSTORE PUSH1 0x24 PUSH1 0x0 REVERT JUMPDEST PUSH32 0x4E487B7100000000000000000000000000000000000000000000000000000000 PUSH1 0x0 MSTORE PUSH1 0x32 PUSH1 0x4 MSTORE PUSH1 0x24 PUSH1 0x0 REVERT JUMPDEST PUSH32 0x4E487B7100000000000000000000000000000000000000000000000000000000 PUSH1 0x0 MSTORE PUSH1 0x41 PUSH1 0x4 MSTORE PUSH1 0x24 PUSH1 0x0 REVERT JUMPDEST PUSH1 0x0 DUP1 REVERT JUMPDEST PUSH1 0x0 DUP1 REVERT JUMPDEST PUSH1 0x0 DUP1 REVERT JUMPDEST PUSH1 0x0 DUP1 REVERT JUMPDEST PUSH1 0x0 DUP1 REVERT JUMPDEST PUSH1 0x0 PUSH1 0x1F NOT PUSH1 0x1F DUP4 ADD AND SWAP1 POP SWAP2 SWAP1 POP JUMP JUMPDEST PUSH32 0x417574686F726974793A206163636F756E744449442063616E6E6F7420626520 PUSH1 0x0 DUP3 ADD MSTORE PUSH32 0x656D707479000000000000000000000000000000000000000000000000000000 PUSH1 0x20 DUP3 ADD MSTORE POP JUMP JUMPDEST PUSH32 0x417574686F726974793A204163636F756E744E616D652063616E6E6F74206265 PUSH1 0x0 DUP3 ADD MSTORE PUSH32 0x20656D7074792100000000000000000000000000000000000000000000000000 PUSH1 0x20 DUP3 ADD MSTORE POP JUMP JUMPDEST PUSH32 0x417574686F726974793A696E76616C6964206F7065726174696F6E0000000000 PUSH1 0x0 DUP3 ADD MSTORE POP JUMP JUMPDEST PUSH32 0x417574686F726974793A20506C6174666F726D537461746520646F65736E2774 PUSH1 0x0 DUP3 ADD MSTORE PUSH32 0x206E65656420746F206368616E67650000000000000000000000000000000000 PUSH1 0x20 DUP3 ADD MSTORE POP JUMP JUMPDEST PUSH32 0x45524331393637557067726164653A207570677261646520627265616B732066 PUSH1 0x0 DUP3 ADD MSTORE PUSH32 0x7572746865722075706772616465730000000000000000000000000000000000 PUSH1 0x20 DUP3 ADD MSTORE POP JUMP JUMPDEST PUSH32 0x4F776E61626C653A206E6577206F776E657220697320746865207A65726F2061 PUSH1 0x0 DUP3 ADD MSTORE PUSH32 0x6464726573730000000000000000000000000000000000000000000000000000 PUSH1 0x20 DUP3 ADD MSTORE POP JUMP JUMPDEST PUSH32 0x417574686F726974793A204163636F756E7420616C7265616479206578697374 PUSH1 0x0 DUP3 ADD MSTORE PUSH32 0x7321000000000000000000000000000000000000000000000000000000000000 PUSH1 0x20 DUP3 ADD MSTORE POP JUMP JUMPDEST PUSH32 0x417574686F726974793A426F746820617265207468652073616D6520706C6174 PUSH1 0x0 DUP3 ADD MSTORE PUSH32 0x666F726D206163636F756E740000000000000000000000000000000000000000 PUSH1 0x20 DUP3 ADD MSTORE POP JUMP JUMPDEST PUSH32 0x46756E6374696F6E206D7573742062652063616C6C6564207468726F75676820 PUSH1 0x0 DUP3 ADD MSTORE PUSH32 0x64656C656761746563616C6C0000000000000000000000000000000000000000 PUSH1 0x20 DUP3 ADD MSTORE POP JUMP JUMPDEST PUSH32 0x417574686F726974793A204F70657261746F72537461746520646F65736E2774 PUSH1 0x0 DUP3 ADD MSTORE PUSH32 0x206E65656420746F206368616E67650000000000000000000000000000000000 PUSH1 0x20 DUP3 ADD MSTORE POP JUMP JUMPDEST PUSH32 0x417574686F726974793A206C656E677468206D69736D61746368000000000000 PUSH1 0x0 DUP3 ADD MSTORE POP JUMP JUMPDEST PUSH32 0x417574686F726974793A7377697463686572206F6620706C6174666F726D2069 PUSH1 0x0 DUP3 ADD MSTORE PUSH32 0x7320636C6F736564000000000000000000000000000000000000000000000000 PUSH1 0x20 DUP3 ADD MSTORE POP JUMP JUMPDEST PUSH32 0x417574686F726974793A696E76616C6964207369670000000000000000000000 PUSH1 0x0 DUP3 ADD MSTORE POP JUMP JUMPDEST PUSH32 0x417574686F726974793A204163636F756E7420646F6573206E6F742065786973 PUSH1 0x0 DUP3 ADD MSTORE PUSH32 0x7421000000000000000000000000000000000000000000000000000000000000 PUSH1 0x20 DUP3 ADD MSTORE POP JUMP JUMPDEST PUSH32 0x46756E6374696F6E206D7573742062652063616C6C6564207468726F75676820 PUSH1 0x0 DUP3 ADD MSTORE PUSH32 0x6163746976652070726F78790000000000000000000000000000000000000000 PUSH1 0x20 DUP3 ADD MSTORE POP JUMP JUMPDEST PUSH32 0x417574686F726974793A696E76616C6964206469640000000000000000000000 PUSH1 0x0 DUP3 ADD MSTORE POP JUMP JUMPDEST PUSH32 0x417574686F726974793A204C65616465724163636F756E74496E666F20646F65 PUSH1 0x0 DUP3 ADD MSTORE PUSH32 0x73206E6F74206578697374210000000000000000000000000000000000000000 PUSH1 0x20 DUP3 ADD MSTORE POP JUMP JUMPDEST PUSH32 0x417574686F726974793A66756E6320646F6573206E6F74206578697374730000 PUSH1 0x0 DUP3 ADD MSTORE POP JUMP JUMPDEST PUSH32 0x417574686F726974793A426F7468206D7573742062652060706C6174666F726D PUSH1 0x0 DUP3 ADD MSTORE PUSH32 0x6020726F6C657300000000000000000000000000000000000000000000000000 PUSH1 0x20 DUP3 ADD MSTORE POP JUMP JUMPDEST PUSH32 0x417574686F726974793A696E76616C6964206C65616465724449440000000000 PUSH1 0x0 DUP3 ADD MSTORE POP JUMP JUMPDEST PUSH32 0x496E697469616C697A61626C653A20636F6E747261637420697320616C726561 PUSH1 0x0 DUP3 ADD MSTORE PUSH32 0x647920696E697469616C697A6564000000000000000000000000000000000000 PUSH1 0x20 DUP3 ADD MSTORE POP JUMP JUMPDEST PUSH32 0x417574686F726974793A204163636F756E7420686173206265656E2066726F7A PUSH1 0x0 DUP3 ADD MSTORE PUSH32 0x656E210000000000000000000000000000000000000000000000000000000000 PUSH1 0x20 DUP3 ADD MSTORE POP JUMP JUMPDEST PUSH32 0x455243313936373A206E657720696D706C656D656E746174696F6E206973206E PUSH1 0x0 DUP3 ADD MSTORE PUSH32 0x6F74206120636F6E747261637400000000000000000000000000000000000000 PUSH1 0x20 DUP3 ADD MSTORE POP JUMP JUMPDEST PUSH32 0x4F776E61626C653A2063616C6C6572206973206E6F7420746865206F776E6572 PUSH1 0x0 DUP3 ADD MSTORE POP JUMP JUMPDEST PUSH32 0x417574686F726974793A204449442063616E6E6F7420626520656D7074792100 PUSH1 0x0 DUP3 ADD MSTORE POP JUMP JUMPDEST PUSH32 0x416464726573733A2064656C65676174652063616C6C20746F206E6F6E2D636F PUSH1 0x0 DUP3 ADD MSTORE PUSH32 0x6E74726163740000000000000000000000000000000000000000000000000000 PUSH1 0x20 DUP3 ADD MSTORE POP JUMP JUMPDEST PUSH32 0x417574686F726974793A7377697463686572206F6620706C6174666F726D2069 PUSH1 0x0 DUP3 ADD MSTORE PUSH32 0x7320636C6F7365642E0000000000000000000000000000000000000000000000 PUSH1 0x20 DUP3 ADD MSTORE POP JUMP JUMPDEST PUSH32 0x417574686F726974793A20696E636F727265637420726F6C65206F7220646973 PUSH1 0x0 DUP3 ADD MSTORE PUSH32 0x61626C6564000000000000000000000000000000000000000000000000000000 PUSH1 0x20 DUP3 ADD MSTORE POP JUMP JUMPDEST PUSH32 0x417574686F726974793A7A65726F206164647265737300000000000000000000 PUSH1 0x0 DUP3 ADD MSTORE POP JUMP JUMPDEST PUSH32 0x417574686F726974793A204163636F756E74277320726F6C6520646F6573206E PUSH1 0x0 DUP3 ADD MSTORE PUSH32 0x6F74206D61746368000000000000000000000000000000000000000000000000 PUSH1 0x20 DUP3 ADD MSTORE POP JUMP JUMPDEST PUSH32 0x417574686F726974793A2066756E6320616C7265616479206578697374730000 PUSH1 0x0 DUP3 ADD MSTORE POP JUMP JUMPDEST PUSH32 0x417574686F726974793A60726F6C6560206F722060636F6E7472616374416464 PUSH1 0x0 DUP3 ADD MSTORE PUSH32 0x726573736020646F65736E277420657869737400000000000000000000000000 PUSH1 0x20 DUP3 ADD MSTORE POP JUMP JUMPDEST PUSH32 0x417574686F726974793A2077726F6E6720726F6C650000000000000000000000 PUSH1 0x0 DUP3 ADD MSTORE POP JUMP JUMPDEST PUSH1 0x3 DUP2 LT PUSH2 0x6A5E JUMPI PUSH2 0x6A5D PUSH2 0x60DA JUMP JUMPDEST JUMPDEST POP JUMP JUMPDEST PUSH1 0x2 DUP2 LT PUSH2 0x6A72 JUMPI PUSH2 0x6A71 PUSH2 0x60DA JUMP JUMPDEST JUMPDEST POP JUMP JUMPDEST PUSH2 0x6A7E DUP2 PUSH2 0x5EFF JUMP JUMPDEST DUP2 EQ PUSH2 0x6A89 JUMPI PUSH1 0x0 DUP1 REVERT JUMPDEST POP JUMP JUMPDEST PUSH2 0x6A95 DUP2 PUSH2 0x5F11 JUMP JUMPDEST DUP2 EQ PUSH2 0x6AA0 JUMPI PUSH1 0x0 DUP1 REVERT JUMPDEST POP JUMP JUMPDEST PUSH2 0x6AAC DUP2 PUSH2 0x5F1D JUMP JUMPDEST DUP2 EQ PUSH2 0x6AB7 JUMPI PUSH1 0x0 DUP1 REVERT JUMPDEST POP JUMP JUMPDEST PUSH1 0x3 DUP2 LT PUSH2 0x6AC7 JUMPI PUSH1 0x0 DUP1 REVERT JUMPDEST POP JUMP JUMPDEST PUSH1 0x2 DUP2 LT PUSH2 0x6AD7 JUMPI PUSH1 0x0 DUP1 REVERT JUMPDEST POP JUMP INVALID COINBASE PUSH5 0x6472657373 GASPRICE KECCAK256 PUSH13 0x6F772D6C6576656C2064656C65 PUSH8 0x6174652063616C6C KECCAK256 PUSH7 0x61696C6564A264 PUSH10 0x70667358221220F21651 0xC7 PUSH10 0xCD20271E4024FBEC392D 0xDA 0xEA DUP1 0xCD TIMESTAMP 0xC7 0xC 0x24 CALLDATASIZE 0xD4 EXP SWAP5 DUP12 0x24 EXP PUSH29 0xBF64736F6C634300080700330000000000000000000000000000000000 "
		},
		"gasEstimates": {
			"creation": {
				"codeDepositCost": "5489400",
				"executionCost": "infinite",
				"totalCost": "infinite"
			},
			"external": {
				"accountAvailable(address)": "infinite",
				"addAccountByOperator(address,string,string,string)": "infinite",
				"addAccountByPlatform(address,string,string)": "infinite",
				"addBatchAccountByOperator(address[],string[],string[],string[])": "infinite",
				"addBatchAccountByPlatform(address[],string[],string[])": "infinite",
				"addFunction(uint8,address,bytes4)": "infinite",
				"addOperator(address,string,string)": "infinite",
				"checkAvailableAndRole(address,uint8)": "infinite",
				"crossPlatformApproval(address,address,bool)": "infinite",
				"crossPlatformCheck(address,address)": "infinite",
				"delFunction(uint8,address,bytes4)": "infinite",
				"getAccount(address)": "infinite",
				"getFunctions(uint8,address)": "infinite",
				"hasFunctionPermission(address,address,bytes4)": "infinite",
				"initialize()": "572039",
				"onePlatformCheck(address,address)": "infinite",
				"owner()": "2589",
				"renounceOwnership()": "30464",
				"setSwitcherStateOfBatch(bool)": "infinite",
				"setSwitcherStateOfPlatform(bool)": "infinite",
				"switcherStateOfPlatform()": "2524",
				"syncPlatformDID(string[])": "infinite",
				"transferOwnership(address)": "30789",
				"updateAccountState(address,uint8,bool)": "infinite",
				"upgradeTo(address)": "infinite",
				"upgradeToAndCall(address,bytes)": "infinite"
			},
			"internal": {
				"_addAccount(address,string memory,string memory,string memory,enum IAuthority.Role)": "infinite",
				"_addAccountByOperator(address,string memory,string memory,string memory)": "infinite",
				"_authorizeUpgrade(address)": "infinite",
				"_getAccount(address)": "infinite",
				"_getContractIndexOfRole(enum IAuthority.Role,address)": "infinite",
				"_isActive(enum IAuthority.State,enum IAuthority.State)": "188",
				"_leaderCheckByAccountInfo(struct IAuthority.AccountInfo memory,struct IAuthority.AccountInfo memory)": "infinite",
				"_requireAccountActive(struct IAuthority.AccountInfo memory)": "infinite",
				"_requireAccountExists(string memory)": "infinite",
				"_requireAccountName(string memory)": "infinite",
				"_requireNotExist(address)": "infinite",
				"_requireNotZeroAddress(address)": "infinite",
				"_requireOpenedSwitcherOfPlatform()": "infinite",
				"_requireOpenedSwitcherStateOfBatch()": "infinite",
				"_requireRole(enum IAuthority.Role)": "infinite",
				"_requireValidSig(bytes4)": "infinite",
				"_updateAccountCheck(address)": "infinite"
			}
		},
		"methodIdentifiers": {
			"accountAvailable(address)": "95c2a8d9",
			"addAccountByOperator(address,string,string,string)": "e3f00c3a",
			"addAccountByPlatform(address,string,string)": "bea24f20",
			"addBatchAccountByOperator(address[],string[],string[],string[])": "40208950",
			"addBatchAccountByPlatform(address[],string[],string[])": "cf149c6d",
			"addFunction(uint8,address,bytes4)": "faf3c53f",
			"addOperator(address,string,string)": "e1576897",
			"checkAvailableAndRole(address,uint8)": "ed5cad64",
			"crossPlatformApproval(address,address,bool)": "05e847fb",
			"crossPlatformCheck(address,address)": "01843caa",
			"delFunction(uint8,address,bytes4)": "a6ff8f0c",
			"getAccount(address)": "fbcbc0f1",
			"getFunctions(uint8,address)": "b50f1a5e",
			"hasFunctionPermission(address,address,bytes4)": "470cf0e0",
			"initialize()": "8129fc1c",
			"onePlatformCheck(address,address)": "3a723d17",
			"owner()": "8da5cb5b",
			"renounceOwnership()": "715018a6",
			"setSwitcherStateOfBatch(bool)": "59dac585",
			"setSwitcherStateOfPlatform(bool)": "a8dd7ce8",
			"switcherStateOfPlatform()": "d3d65ddb",
			"syncPlatformDID(string[])": "b9b89dca",
			"transferOwnership(address)": "f2fde38b",
			"updateAccountState(address,uint8,bool)": "bac7ad52",
			"upgradeTo(address)": "3659cfe6",
			"upgradeToAndCall(address,bytes)": "4f1ef286"
		}
	},
	"abi": [
		{
			"inputs": [],
			"stateMutability": "nonpayable",
			"type": "constructor"
		},
		{
			"anonymous": false,
			"inputs": [
				{
					"indexed": true,
					"internalType": "address",
					"name": "caller",
					"type": "address"
				},
				{
					"indexed": true,
					"internalType": "address",
					"name": "account",
					"type": "address"
				}
			],
			"name": "AddAccount",
			"type": "event"
		},
		{
			"anonymous": false,
			"inputs": [
				{
					"indexed": true,
					"internalType": "address",
					"name": "caller",
					"type": "address"
				},
				{
					"indexed": false,
					"internalType": "address[]",
					"name": "accounts",
					"type": "address[]"
				}
			],
			"name": "AddBatchAccount",
			"type": "event"
		},
		{
			"anonymous": false,
			"inputs": [
				{
					"indexed": true,
					"internalType": "address",
					"name": "operator",
					"type": "address"
				},
				{
					"indexed": true,
					"internalType": "enum IAuthority.Role",
					"name": "role",
					"type": "uint8"
				},
				{
					"indexed": false,
					"internalType": "address",
					"name": "contractAddress",
					"type": "address"
				},
				{
					"indexed": false,
					"internalType": "bytes4",
					"name": "sig",
					"type": "bytes4"
				}
			],
			"name": "AddFunction",
			"type": "event"
		},
		{
			"anonymous": false,
			"inputs": [
				{
					"indexed": false,
					"internalType": "address",
					"name": "previousAdmin",
					"type": "address"
				},
				{
					"indexed": false,
					"internalType": "address",
					"name": "newAdmin",
					"type": "address"
				}
			],
			"name": "AdminChanged",
			"type": "event"
		},
		{
			"anonymous": false,
			"inputs": [
				{
					"indexed": true,
					"internalType": "address",
					"name": "beacon",
					"type": "address"
				}
			],
			"name": "BeaconUpgraded",
			"type": "event"
		},
		{
			"anonymous": false,
			"inputs": [
				{
					"indexed": true,
					"internalType": "address",
					"name": "from",
					"type": "address"
				},
				{
					"indexed": true,
					"internalType": "address",
					"name": "to",
					"type": "address"
				},
				{
					"indexed": false,
					"internalType": "bool",
					"name": "approved",
					"type": "bool"
				}
			],
			"name": "CrossPlatformApproval",
			"type": "event"
		},
		{
			"anonymous": false,
			"inputs": [
				{
					"indexed": true,
					"internalType": "address",
					"name": "operator",
					"type": "address"
				},
				{
					"indexed": true,
					"internalType": "enum IAuthority.Role",
					"name": "role",
					"type": "uint8"
				},
				{
					"indexed": false,
					"internalType": "address",
					"name": "contractAddress",
					"type": "address"
				},
				{
					"indexed": false,
					"internalType": "bytes4",
					"name": "sig",
					"type": "bytes4"
				}
			],
			"name": "DelFunction",
			"type": "event"
		},
		{
			"anonymous": false,
			"inputs": [
				{
					"indexed": true,
					"internalType": "address",
					"name": "previousOwner",
					"type": "address"
				},
				{
					"indexed": true,
					"internalType": "address",
					"name": "newOwner",
					"type": "address"
				}
			],
			"name": "OwnershipTransferred",
			"type": "event"
		},
		{
			"anonymous": false,
			"inputs": [
				{
					"indexed": true,
					"internalType": "address",
					"name": "operator",
					"type": "address"
				},
				{
					"indexed": false,
					"internalType": "bool",
					"name": "isOpen",
					"type": "bool"
				}
			],
			"name": "SetSwitcherStateOfBatch",
			"type": "event"
		},
		{
			"anonymous": false,
			"inputs": [
				{
					"indexed": true,
					"internalType": "address",
					"name": "operator",
					"type": "address"
				},
				{
					"indexed": false,
					"internalType": "bool",
					"name": "isOpen",
					"type": "bool"
				}
			],
			"name": "SetSwitcherStateOfPlatform",
			"type": "event"
		},
		{
			"anonymous": false,
			"inputs": [
				{
					"indexed": true,
					"internalType": "address",
					"name": "operator",
					"type": "address"
				},
				{
					"indexed": false,
					"internalType": "string[]",
					"name": "dids",
					"type": "string[]"
				}
			],
			"name": "SyncPlatformDID",
			"type": "event"
		},
		{
			"anonymous": false,
			"inputs": [
				{
					"indexed": true,
					"internalType": "address",
					"name": "account",
					"type": "address"
				},
				{
					"indexed": false,
					"internalType": "enum IAuthority.State",
					"name": "platformState",
					"type": "uint8"
				},
				{
					"indexed": false,
					"internalType": "enum IAuthority.State",
					"name": "operatorState",
					"type": "uint8"
				}
			],
			"name": "UpdateAccountState",
			"type": "event"
		},
		{
			"anonymous": false,
			"inputs": [
				{
					"indexed": true,
					"internalType": "address",
					"name": "implementation",
					"type": "address"
				}
			],
			"name": "Upgraded",
			"type": "event"
		},
		{
			"inputs": [
				{
					"internalType": "address",
					"name": "account",
					"type": "address"
				}
			],
			"name": "accountAvailable",
			"outputs": [
				{
					"internalType": "bool",
					"name": "",
					"type": "bool"
				}
			],
			"stateMutability": "view",
			"type": "function"
		},
		{
			"inputs": [
				{
					"internalType": "address",
					"name": "account",
					"type": "address"
				},
				{
					"internalType": "string",
					"name": "accountName",
					"type": "string"
				},
				{
					"internalType": "string",
					"name": "accountDID",
					"type": "string"
				},
				{
					"internalType": "string",
					"name": "leaderDID",
					"type": "string"
				}
			],
			"name": "addAccountByOperator",
			"outputs": [],
			"stateMutability": "nonpayable",
			"type": "function"
		},
		{
			"inputs": [
				{
					"internalType": "address",
					"name": "account",
					"type": "address"
				},
				{
					"internalType": "string",
					"name": "accountName",
					"type": "string"
				},
				{
					"internalType": "string",
					"name": "accountDID",
					"type": "string"
				}
			],
			"name": "addAccountByPlatform",
			"outputs": [],
			"stateMutability": "nonpayable",
			"type": "function"
		},
		{
			"inputs": [
				{
					"internalType": "address[]",
					"name": "accounts",
					"type": "address[]"
				},
				{
					"internalType": "string[]",
					"name": "accountNames",
					"type": "string[]"
				},
				{
					"internalType": "string[]",
					"name": "accountDIDs",
					"type": "string[]"
				},
				{
					"internalType": "string[]",
					"name": "leaderDIDs",
					"type": "string[]"
				}
			],
			"name": "addBatchAccountByOperator",
			"outputs": [],
			"stateMutability": "nonpayable",
			"type": "function"
		},
		{
			"inputs": [
				{
					"internalType": "address[]",
					"name": "accounts",
					"type": "address[]"
				},
				{
					"internalType": "string[]",
					"name": "accountNames",
					"type": "string[]"
				},
				{
					"internalType": "string[]",
					"name": "accountDIDs",
					"type": "string[]"
				}
			],
			"name": "addBatchAccountByPlatform",
			"outputs": [],
			"stateMutability": "nonpayable",
			"type": "function"
		},
		{
			"inputs": [
				{
					"internalType": "enum IAuthority.Role",
					"name": "role",
					"type": "uint8"
				},
				{
					"internalType": "address",
					"name": "contractAddress",
					"type": "address"
				},
				{
					"internalType": "bytes4",
					"name": "sig",
					"type": "bytes4"
				}
			],
			"name": "addFunction",
			"outputs": [],
			"stateMutability": "nonpayable",
			"type": "function"
		},
		{
			"inputs": [
				{
					"internalType": "address",
					"name": "operator",
					"type": "address"
				},
				{
					"internalType": "string",
					"name": "accountName",
					"type": "string"
				},
				{
					"internalType": "string",
					"name": "accountDID",
					"type": "string"
				}
			],
			"name": "addOperator",
			"outputs": [],
			"stateMutability": "nonpayable",
			"type": "function"
		},
		{
			"inputs": [
				{
					"internalType": "address",
					"name": "account",
					"type": "address"
				},
				{
					"internalType": "enum IAuthority.Role",
					"name": "role",
					"type": "uint8"
				}
			],
			"name": "checkAvailableAndRole",
			"outputs": [
				{
					"internalType": "bool",
					"name": "",
					"type": "bool"
				}
			],
			"stateMutability": "view",
			"type": "function"
		},
		{
			"inputs": [
				{
					"internalType": "address",
					"name": "from",
					"type": "address"
				},
				{
					"internalType": "address",
					"name": "to",
					"type": "address"
				},
				{
					"internalType": "bool",
					"name": "approved",
					"type": "bool"
				}
			],
			"name": "crossPlatformApproval",
			"outputs": [],
			"stateMutability": "nonpayable",
			"type": "function"
		},
		{
			"inputs": [
				{
					"internalType": "address",
					"name": "from",
					"type": "address"
				},
				{
					"internalType": "address",
					"name": "to",
					"type": "address"
				}
			],
			"name": "crossPlatformCheck",
			"outputs": [
				{
					"internalType": "bool",
					"name": "",
					"type": "bool"
				}
			],
			"stateMutability": "view",
			"type": "function"
		},
		{
			"inputs": [
				{
					"internalType": "enum IAuthority.Role",
					"name": "role",
					"type": "uint8"
				},
				{
					"internalType": "address",
					"name": "contractAddress",
					"type": "address"
				},
				{
					"internalType": "bytes4",
					"name": "sig",
					"type": "bytes4"
				}
			],
			"name": "delFunction",
			"outputs": [],
			"stateMutability": "nonpayable",
			"type": "function"
		},
		{
			"inputs": [
				{
					"internalType": "address",
					"name": "account",
					"type": "address"
				}
			],
			"name": "getAccount",
			"outputs": [
				{
					"internalType": "string",
					"name": "",
					"type": "string"
				},
				{
					"internalType": "string",
					"name": "",
					"type": "string"
				},
				{
					"internalType": "enum IAuthority.Role",
					"name": "",
					"type": "uint8"
				},
				{
					"internalType": "string",
					"name": "",
					"type": "string"
				},
				{
					"internalType": "enum IAuthority.State",
					"name": "",
					"type": "uint8"
				},
				{
					"internalType": "enum IAuthority.State",
					"name": "",
					"type": "uint8"
				},
				{
					"internalType": "string",
					"name": "",
					"type": "string"
				}
			],
			"stateMutability": "view",
			"type": "function"
		},
		{
			"inputs": [
				{
					"internalType": "enum IAuthority.Role",
					"name": "role",
					"type": "uint8"
				},
				{
					"internalType": "address",
					"name": "contractAddress",
					"type": "address"
				}
			],
			"name": "getFunctions",
			"outputs": [
				{
					"internalType": "bytes4[]",
					"name": "",
					"type": "bytes4[]"
				}
			],
			"stateMutability": "view",
			"type": "function"
		},
		{
			"inputs": [
				{
					"internalType": "address",
					"name": "account",
					"type": "address"
				},
				{
					"internalType": "address",
					"name": "contractAddress",
					"type": "address"
				},
				{
					"internalType": "bytes4",
					"name": "sig",
					"type": "bytes4"
				}
			],
			"name": "hasFunctionPermission",
			"outputs": [
				{
					"internalType": "bool",
					"name": "",
					"type": "bool"
				}
			],
			"stateMutability": "view",
			"type": "function"
		},
		{
			"inputs": [],
			"name": "initialize",
			"outputs": [],
			"stateMutability": "nonpayable",
			"type": "function"
		},
		{
			"inputs": [
				{
					"internalType": "address",
					"name": "acc1",
					"type": "address"
				},
				{
					"internalType": "address",
					"name": "acc2",
					"type": "address"
				}
			],
			"name": "onePlatformCheck",
			"outputs": [
				{
					"internalType": "bool",
					"name": "",
					"type": "bool"
				}
			],
			"stateMutability": "view",
			"type": "function"
		},
		{
			"inputs": [],
			"name": "owner",
			"outputs": [
				{
					"internalType": "address",
					"name": "",
					"type": "address"
				}
			],
			"stateMutability": "view",
			"type": "function"
		},
		{
			"inputs": [],
			"name": "renounceOwnership",
			"outputs": [],
			"stateMutability": "nonpayable",
			"type": "function"
		},
		{
			"inputs": [
				{
					"internalType": "bool",
					"name": "isOpen",
					"type": "bool"
				}
			],
			"name": "setSwitcherStateOfBatch",
			"outputs": [],
			"stateMutability": "nonpayable",
			"type": "function"
		},
		{
			"inputs": [
				{
					"internalType": "bool",
					"name": "isOpen",
					"type": "bool"
				}
			],
			"name": "setSwitcherStateOfPlatform",
			"outputs": [],
			"stateMutability": "nonpayable",
			"type": "function"
		},
		{
			"inputs": [],
			"name": "switcherStateOfPlatform",
			"outputs": [
				{
					"internalType": "bool",
					"name": "",
					"type": "bool"
				}
			],
			"stateMutability": "view",
			"type": "function"
		},
		{
			"inputs": [
				{
					"internalType": "string[]",
					"name": "dids",
					"type": "string[]"
				}
			],
			"name": "syncPlatformDID",
			"outputs": [],
			"stateMutability": "nonpayable",
			"type": "function"
		},
		{
			"inputs": [
				{
					"internalType": "address",
					"name": "newOwner",
					"type": "address"
				}
			],
			"name": "transferOwnership",
			"outputs": [],
			"stateMutability": "nonpayable",
			"type": "function"
		},
		{
			"inputs": [
				{
					"internalType": "address",
					"name": "account",
					"type": "address"
				},
				{
					"internalType": "enum IAuthority.State",
					"name": "state",
					"type": "uint8"
				},
				{
					"internalType": "bool",
					"name": "changePlatformState",
					"type": "bool"
				}
			],
			"name": "updateAccountState",
			"outputs": [],
			"stateMutability": "nonpayable",
			"type": "function"
		},
		{
			"inputs": [
				{
					"internalType": "address",
					"name": "newImplementation",
					"type": "address"
				}
			],
			"name": "upgradeTo",
			"outputs": [],
			"stateMutability": "nonpayable",
			"type": "function"
		},
		{
			"inputs": [
				{
					"internalType": "address",
					"name": "newImplementation",
					"type": "address"
				},
				{
					"internalType": "bytes",
					"name": "data",
					"type": "bytes"
				}
			],
			"name": "upgradeToAndCall",
			"outputs": [],
			"stateMutability": "payable",
			"type": "function"
		}
	]
}